:020000040800F2
:10000000F88D00209502000823DD000835950008D2
:1000100021DD0008192200089543010800000000B6
:1000200000000000000000000000000005160108AC
:10003000EF3B0008000000005DFA000851270108AE
:10004000AF020008AF020008AF020008AF020008CC
:10005000AF020008AF020008AF020008AF020008BC
:10006000AF020008AF020008AF020008AF020008AC
:10007000AF020008AF020008AF020008AF0200089C
:10008000AF020008AF020008AF020008AF0200088C
:10009000AF020008AF020008AF020008AF0200087C
:1000A000AF020008AF020008AF020008AF0200086C
:1000B000AF020008612C0108952D0108AF0200086D
:1000C000AF020008AF020008AF020008AF0200084C
:1000D000AF020008093F0108AF0200085D400108B7
:1000E000AF020008AF020008AF020008AF0200082C
:1000F000AF020008AF020008AF020008AF0200081C
:10010000AF020008AF020008AF020008AF0200080B
:10011000AF020008AF0200089D2E0108AF020008E0
:10012000113A0008AF020008AF020008AF02000851
:10013000AF020008AF020008AF020008AF020008DB
:10014000AF020008AF020008AF02000869E600082D
:10015000AF020008AF020008AF020008AF020008BB
:10016000AF020008AF020008AF020008AF020008AB
:10017000AF020008AF020008AF020008AF0200089B
:10018000AF020008AF02000800F002F800F072F8B9
:100190000AA090E8000C82448344AAF10107DA45E2
:1001A00001D100F067F8AFF2090EBAE80F0013F0C2
:1001B000010F18BFFB1A43F0010318473025030055
:1001C000502503000A444FF0000C10F8013B13F0D7
:1001D000070408BF10F8014B1D1108BF10F8015BA0
:1001E000641E05D010F8016B641E01F8016BF9D193
:1001F00013F0080F1EBF10F8014BAD1C0C1B09D1EA
:100200006D1E58BF01F801CBFAD505E014F8016B5B
:1002100001F8016B6D1EF9D59142D6D370470000ED
:100220000023002400250026103A28BF78C1FBD8FF
:10023000520728BF30C148BF0B607047662924F0C1
:100240000685642900F08480002070471FB524F0E3
:10025000F4FC00F0CFFD04000020002123F098FF03
:10026000401C60600020002123F07CFFE0601FBD87
:1002700010B510BD00F00AFF1146FFF7E7FF23F0AD
:100280007DFB00F036FF03B4FFF7F2FF03BC00F084
:1002900077FF00000948804709480047FEE7FEE76E
:1002A000FEE7FEE7FEE7FEE7FEE7FEE7FEE7FEE726
:1002B00004480549054A064B704700001928010803
:1002C00089010008F8870020F88D0020F8890020B7
:1002D000F88900200FB41CB5074B06AA7B44694679
:1002E0000090059800F0CBFC0020694600F0DAFC95
:1002F0001CBC5DF814FB0000C509000070B5044685
:1003000085690068C10601D5302600E02026C007B7
:1003100008D070BDD4E9012130469047206A00F131
:10032000010020626D1EF5D570BD70B5044685696B
:100330000068C00708D170BDD4E901212020904792
:10034000206A00F1010020626D1EF5D570BD00002D
:100350002DE9F0410746002510687529394616A495
:1003600011D0AFF30080002803DAC0F1000013A41D
:1003700007E039688A0701D511A402E0490704D5CE
:1003800010A4012501E0AFF3008000210A2307F14A
:10039000240607E0B0FBF3F203FB12003030705488
:1003A0001046491C0028F5D12B4622463846BDE8A8
:1003B000F04100F0F3B90000000000002D00000043
:1003C0002B000000200000002DE9F05F0446894664
:1003D0004FF0000ADFF828B1FB44C0F820A0204607
:1003E000E168884700287CD0252806D0D4E901217F
:1003F0009047206A401C2062F1E700255F462046B6
:10040000E16888472028064608DB312E06D207EB34
:10041000060010F8200C08B10543F0E7A80701D545
:1004200025F00405C4F81CA00027C4F818A02A2E43
:1004300009D0304623F050F938B304EB8708303E3A
:10044000C8F8186019E059F8041B204604EB87022D
:100450009161E1688847012F064618D1E0690028BC
:1004600020DA25F020051DE0D8F8180000EB800008
:1004700006EB40003038C8F818002046E16888478D
:10048000064623F029F90028EED1012F0AD02E2E9E
:1004900008D12046E16888477F1C0646022F45F0B8
:1004A0002005C4DBA069002803DA404245F00105BD
:1004B000A061E80701D025F0100596B1A6F1410032
:1004C000192802D8203645F400654A4631462046B0
:1004D00025604D46FFF7B2FE60B1012807D0ED1D43
:1004E00000E009E025F0070000F1080977E705F1D1
:1004F000040974E7304679E7206ABDE8F09F000000
:100500003C22030070B5064600F044F90468054635
:1005100030460A22002100F0CAFB2C6070BD40EA80
:100520000103024630B59B0710D14FF0013400E0C3
:1005300008C208C91D1B9D4315EAC41FF8D013F05B
:10054000FF0102F8011B0DD01B0AF8E711F8013B6F
:10055000002B02F8013B05D011F8013B002B02F8FB
:10056000013BF3D130BD10B5431C02E010F8011B74
:1005700071B18107FAD14FF0013202C88C1A8C4355
:1005800014EAC211F9D0C01A0A0603D0C01E10BD69
:10059000C01A10BD0A0401D0801E10BD0902FCD093
:1005A000401E10BD421E12F8013F002BFBD111F876
:1005B000013B002B02F8013BF9D17047032A40F2BE
:1005C000308010F0030C00F0158011F8013BBCF1F5
:1005D000020F624498BF11F801CB00F8013B38BF0D
:1005E00011F8013BA2F1040298BF00F801CB38BF1B
:1005F00000F8013B11F0030300F06780083AC0F0F7
:10060000088051F8043B083A51F804CBA0E80810E0
:10061000F5E7121D5CBF51F8043B40F8043BAFF313
:100620000080D20724BF11F8013B11F801CB48BF6D
:1006300011F8012B24BF00F8013B00F801CB48BFA3
:1006400000F8012B7047431A28BF9A427FF6B6AFD5
:10065000032A1044114440F2268010F0030F1EBFFD
:1006600011F8013D521E00F8013D10F0030F7FF418
:10067000F6AF11F0030300F06583083AC0F00B8079
:1006800051F8043D083A51F804CD40F8043D40F8D3
:1006900004CDFFF7F3BF121D5CBF51F8043D40F8D5
:1006A000043DAFF30080D20724BF11F8013D11F8DB
:1006B00001CD48BF11F8012C24BF00F8013D00F81E
:1006C00001CD48BF00F8012C704710B5203AC0F0AA
:1006D0000B80B1E81850203AA0E81850B1E8185043
:1006E000A0E81850BFF4F5AF5FEA027C24BFB1E880
:1006F0001850A0E8185044BF18C918C0BDE81040F1
:100700005FEA827C24BF51F8043B40F8043B08BFF9
:100710007047D20728BF31F8023B48BF11F8012BC0
:1007200028BF20F8023B48BF00F8012B704702F0B9
:10073000FF0343EA032242EA024200F02FBB4FF0DC
:10074000000200B5134694469646203922BFA0E821
:100750000C50A0E80C50B1F12001BFF4F7AF09072D
:1007600028BFA0E80C5048BF0CC05DF804EB89001E
:1007700028BF40F8042B08BF704748BF20F8022B61
:1007800011F0804F18BF00F8012B70477047704779
:100790007047000000487047948700202DE9F0471B
:1007A0000D4604469246994600F1240801688806E1
:1007B00004D5E06921F01001216000E00120A84289
:1007C00002DDA0EB050700E00027A16907EB0502A9
:1007D00002EB0900A1EB0000A0612068C00602D472
:1007E0002046FFF78BFD002608E0D4E901211AF826
:1007F00006009047206A401C761C20624E45F4DBC0
:100800002068C0060AD52046FFF778FD06E0D4E947
:10081000012130209047206A401C2062381EA7F139
:100820000107F4DC07E0D4E9012118F8050090473E
:10083000206A401C2062281EA5F10105F3DC204639
:10084000FFF773FD2068000602D50220BDE8F0879F
:100850000120FBE770472DE9FF4F0C461E464FF085
:10086000FF378BB0D2E90001DDF860800A908A463C
:10087000C1F30A5505B93D46002108464FF0000076
:10088000BAF1000F00F4400005DA00EB80004FF4ED
:10089000400101EA50004FEA9059B9F1010F00DD23
:1008A000B9460A9850EA4A000FD044F61050A5F213
:1008B000FF3545432F14B8F1000F1FD07542291E94
:1008C0001FDD4846C9F100021CE0B8F1010F4FF0EE
:1008D000000001D1F24307E0302101E02154401C27
:1008E000B042FBDB30460022002121540B99C1F8B5
:1008F0000880C1E900200FB0BDE8F08FBD1B6D1C62
:10090000DDE74A4600DA694206A800F04DFB06AB77
:1009100007CB03AB07C350460A9900F038FC8DE8BB
:100920000700A0F500501F3800900398002D09DD46
:1009300042F21F014A46084403A90390684600F0AA
:1009400097FE08E0A0F500504A461F3803A903901F
:10095000684600F0A1FE8DE807000004000C03D0FB
:100960004FF0FF30410800E01046B8F1000F03D00F
:100970000022009215461FE0751E06D400F03EFAD4
:1009800002F1300262556D1EF8D5B34601220843CC
:1009900002D000227F1C04E02078302801D1002200
:1009A0007F1E002A099786D01DE0112D07DA00F07E
:1009B00025FA303262556D1C50EA0102F5D1084328
:1009C0000FD10021681E05E0235C625C6354491C62
:1009D0002254401E8142F7DBAB46A81B401E099003
:1009E00001E0009848B1002004F80B000B98099A28
:1009F000C0F80880C0E9002B7DE711264FF0000801
:100A000059E72DE9F04F88460446D21D22F0070130
:100A100091B0D1E90001CDE90A011DF087FC024641
:100A20000B98C00F01D02D2007E02068810701D569
:100A30002B2002E0202101EAC000032A099001D006
:100A4000072A05DB03464146204600F01DFA0EE169
:100A50002068800601D5E06900E00620B8F1650F46
:100A6000814606D0B8F1660F18D0B8F1670F72D181
:100A700032E00020B9F1110F009001DB112301E0F9
:100A800009F101030AAA01A90CA8FFF7E4FEDDE9B8
:100A90000C70002609F10105834648E001204B4611
:100AA00000904FF000470AAA01A90CA8FFF7D3FE57
:100AB000DDE90C050E990026AB4619B909F10101D3
:100AC00000EB0105B9EB050003D4C0F1FF3609F1D5
:100AD0000105A5EB09002BE0B9F1010F01DA4FF098
:100AE00001090020B9F1110F0090484601DD1123E2
:100AF00000E003460AAA01A90CA8FFF7ACFEDDE955
:100B00000C704D4600268346206800070AD4AB458A
:100B100000DA5D4601A8012D04DD411911F8011C20
:100B2000302907D04F4502DA17F1040F04DA01200B
:100B3000824610E06D1EEEE7002F02DCED1B3E4406
:100B400003E0781CA84200DD0546A7EB060000F193
:100B5000010A4FF000472068000703D4AA4501DBD3
:100B60004FF0FF3A0021B7F1004F0DF143088DF827
:100B7000431022D002202B23002F01DA7F422D23A5
:100B80000A22011EA0F1010000DC4FB197FBF2F137
:100B900002FB117C0F460CF1300C08F801CDF0E798
:100BA000A8F1010003702168090501D5452100E085
:100BB0006521A0F1010800F8011C09980FA9A1EB1B
:100BC000080707F1070700B1012000EB050101EB61
:100BD000EA70A1693844A1EB0000A0F10100A06116
:100BE0002068C00602D42046FFF788FB099830B180
:100BF000D4E901219047206A00F1010020622068B9
:100C0000C00620D52046FFF779FB1CE0002E04DB50
:100C1000B34502DD01A8805D00E03020D4E9012168
:100C20009047206A761C401CBAF1010A20620AD162
:100C300000F0E0F8C0680168405CD4E90121904709
:100C4000206A401C2062281EA5F10105DEDC07E0B9
:100C5000D4E9012118F8010B9047206A401C20625A
:100C6000381EA7F10107F3DC2046FFF75EFB0220E8
:100C700011B041E601694A1C02610878704700B56D
:100C80008FB0CDE901310021059105497944CDE9C5
:100C9000031011466846FFF797FB0FB000BD000038
:100CA000E5FFFFFF0A6802F8010B0A6070472DE9B3
:100CB000F0470F46914680460446002614F8015B33
:100CC0002DB100F08FF80068405DC007F6D12B2DE4
:100CD00002D02D2D18D0641E4A463946204600F019
:100CE00013F927B13968A14201D1C7F800804FF04C
:100CF000020471050BD54042002803DDFFF74AFDD1
:100D00000460A007BDE8F08746F48066E4E70028A9
:100D1000F8DAFFF73FFD04606FF00040F2E7431A96
:100D200028BF9A427FF6D1AC104410F0030F114453
:100D30001EBF11F8013D521E00F8013D10F0030FD7
:100D40007FF4F6AF103AC0F00A8010B531E91850C0
:100D5000103A20E91850BFF4F9AFBDE8104053072E
:100D600024BF31E9081020E9081044BF51F8043DC0
:100D700040F8043D12F0030F08BF7047D20728BFA8
:100D800031F8023D48BF11F8012C28BF20F8023D80
:100D900048BF00F8012C70474FF000020429C0F052
:100DA000128010F0030C3FF4CCACCCF1040CBCF17D
:100DB000020F18BF00F8012BA8BF20F8022BA1EBEF
:100DC0000C01FFF7BEBC5FEAC17C24BF00F8012B19
:100DD00000F8012B48BF00F8012B7047004870470E
:100DE0009487002010B500F005F8001D10BD00BF6D
:100DF000A133020000487047B487002030B5B0F13D
:100E00000A024FEA900E71F100034EEA817EB0EBC8
:100E10000E0061EB91014FEA101E4EEA017E10EBCD
:100E20000E0041EB11114FEA102E4EEA016E10EB4D
:100E30000E0041EB11214FEA104E4EEA014E10EB2D
:100E40000E0041EB1141401841F100014FEAD00082
:100E500040EA41704FEAD10110EB80054FEA81046E
:100E600044EA907444EB01046D1944EB0404521BF2
:100E7000A3414FF0000348BF0A3200D530BD401CEB
:100E800041F1000130BD00002DE9F04104461F464C
:100E900003260168072A01F4006004DB08B116A5E7
:100EA00005E016A503E008B115A500E015A521F0A1
:100EB00010002060A069C01EA0610FB1401EA0619B
:100EC0002046FFF71BFA4FB1D4E90121384690477D
:100ED000206A401C2062C01C206206E0206AFAE7FB
:100EE000D4E9012115F8010B9047761EF8D220466F
:100EF000FFF71BFABDE8F0814E414E006E616E00B7
:100F0000494E4600696E66002DE9F05F82468B46C9
:100F1000154600270AF10104B9460078302801D0AF
:100F20009DB113E014F8010B0127782803D058284D
:100F300001D045B10AE00DB1102D07D1002714F8FA
:100F4000010B102502E0082500E00A250026B04626
:100F50000EE005FB080005FB06F101271FFA80F8EB
:100F600001EB1046B6F5803F00D3B94614F8010BEB
:100F7000294600F0B0F80028EBDABBF1000F05D0ED
:100F80000FB1641E00E05446CBF80040B9F1000FE9
:100F900006D0FFF7FFFB02210160C81EBDE8F09FED
:100FA00048EA0640FAE700002DE9F0478146164678
:100FB0008AB035487844D0E9002380680092CDE9B2
:100FC0000130314878440C38D0E90223006903929B
:100FD0004FF03702CDE9043041F69B30014491FBDC
:100FE000F2F0A0F1800502FB10141B3C02D5644214
:100FF000012000E00020DFF890A080460027FA449E
:10100000AAF1C60A0DE0E00709D03246684607EBB0
:1010100047010AEB810100F03FFB8DE807006410F7
:101020007F1C002CEFD1184F7F44B43F17E0E80736
:1010300013D007EB04100DF1180A90E80E00AAE88F
:101040000E00C068F04201D198190890324606A9F6
:1010500003A800F021FB03AB07C36D10641C002D37
:10106000E5D132466946B8F1000F03A802D000F07E
:10107000FFFA01E000F010FBC9E90001C9F80820FF
:101080000AB0BDE8F0870000F01603007546FFF7D0
:10109000A5FEAE4605006946534620F0070085468A
:1010A00018B020B5FFF704F9BDE820404FF0000666
:1010B0004FF000074FF000084FF0000B21F0070140
:1010C000AC46ACE8C009ACE8C009ACE8C009ACE883
:1010D000C0098D4670473A2800D2303820F02002EF
:1010E000412A01D3A2F13700884201D34FF0FF30EB
:1010F00070470446AFF300802046FFF7C4F80000B5
:101100004FF0013C50F8042B51F8043B9A4221D196
:10111000A2EB0C03934313EACC1317D150F8042B22
:1011200051F8043B9A4215D1A2EB0C03934313EA06
:10113000CC130BD150F8042B51F8043B9A4209D13F
:10114000A2EB0C03934313EACC13DBD04FF0000067
:10115000704700BFD01A01BAB1FA81F101F018014D
:1011600022FA01F0CB40C1F12001DBB2C0B2C01ABB
:101170002CFA01F3D11A914311EAC311E6D1704759
:1011800001491820ABBEFEE72600020070475FEA67
:10119000400C08BF91F0000F4FEA8C234FEAC122A8
:1011A00043EA51514FEA1C5018BF00F5F0404FEA96
:1011B000300018BF41F000415FEA6C5C00F029800C
:1011C000BCF1FF3F08BF40F080407047130C06BFE2
:1011D00012044FF0100C4FF0000C130E04BF12025B
:1011E0000CF1080C130F04BF12010CF1040C930F47
:1011F00004BF92000CF1020CD30F04BF52000CF19B
:10120000010C11464FF00002A0F11F00A0EB0C00F2
:10121000704711F0004F08BF704731F000413FF4B4
:10122000D5AF0B0C06BF09044FF0100C4FF0000CAB
:101230000B0E04BF09020CF1080C0B0F04BF0901CF
:101240000CF1040C8B0F04BF89000CF1020CCB0FC6
:1012500004BF49000CF1010CCCF12003A0EB0C0001
:1012600022FA03F302FA0CF241EA030100F1010051
:10127000704720F07F4C80EA030023F07F47ACEBFF
:10128000070303F57C5300F0004003F1FF032DE951
:1012900080494FEA154B09B44FEA144325EA0B4E37
:1012A00024EA03480FF2042606EB132749083E7888
:1012B0005FEA320203FB0667C7F5000707FB06F685
:1012C0004FEA54374FEAD64606F1020607FB066C92
:1012D000CCF1005C4FEA1C472CEA074C07FB06F4F4
:1012E0000CFB06F504EB15464FEA961634BF0020BA
:1012F0004FF000404FEAD13706FB07FC4FEA1C4C89
:101300000CFB0BF7D21B03FB0CF761EB07010CFB8B
:101310000EF7B0EB074072EB17420CFB08F734BF37
:10132000A2EB0742B2EB074261EB17414FEA0C44D4
:101330004FEA910706FB07FC4FEA1C4C0CFB0BF72E
:10134000B0EBC74072EB573203FB0CF734BFA2EB94
:10135000C742B2EBC74261EB57310CFB0EF7B0EB63
:10136000C70072EB57720CFB08F734BFA2EBC70241
:10137000B2EBC70261EB5771039F4FEA816141EA0B
:10138000921104EBCC044FEAD1374FEA826206FB9C
:1013900007FC42EA90124FEA80604FEA1C4C0CFBBB
:1013A0000BF7D21B03FB0CF761EB07010CFB0EF7ED
:1013B000B0EB074072EB17420CFB08F734BFA2EB0F
:1013C0000742B2EB074261EB17414FEA8C554FEAF7
:1013D000910704EB9C2406FB07FC4FEA1C4C0CFB1A
:1013E0000BF7B0EBC74072EB573203FB0CF734BF7F
:1013F000A2EBC742B2EBC74261EB57310CFB0EF7D1
:10140000B0EBC70072EB57720CFB08F734BFA2EBCE
:10141000C702B2EBC70261EB577115EB4C254FEADF
:10142000816141EA92114FEA82624FEAD13742EA82
:10143000901206FB07FC44F100044FEA80604FEA7B
:101440001C4C0CFB0BF7D21B03FB0CF761EB0701E9
:101450000CFB0EF7B0EB074072EB17420CFB08F7E2
:1014600034BFA2EB0742B2EB074261EB174115EB29
:101470001C154FEA813141EA92414FEA823242EA39
:1014800090424FEA80304FEA0C7644F1000448EA7B
:1014900003434EEA0B484FF0000EB2EB080C71EB21
:1014A000030724BF624639464EEB0E0E4FF0000B89
:1014B0000018524149414BEB0B0BB2EB080C71EB9E
:1014C00003077BF1000B24BF624639464EEB0E0E3C
:1014D0004FF0000B0018524149414BEB0B0BB2EBA4
:1014E000080C71EB03077BF1000B24BF6246394601
:1014F0004EEB0E0E51EA020718BF46F0010616EB3E
:101500000E7655F1000254F1000103D5BDE88901C2
:10151000BDE80088BDE88901BDE80048B619524120
:1015200041EB0101A3F10103704780807F7E7D7C48
:101530007B7A7978777676757473727171706F6E65
:101540006E6D6C6C6B6A6A69686867666665646410
:10155000636362616160605F5F5E5E5D5D5C5C5B9A
:101560005B5A5A5959585857575656555555545409
:10157000535352525251515050504F4F4F4E4E4D67
:101580004D4D4C4C4C4B4B4B4A4A4A4949494848B3
:1015900048474747474646464545454444444443F3
:1015A00043434342424242414141002B26D477000B
:1015B00021D01CB54FEA370703B44FF010004FF0AD
:1015C00010014FF000000FBCBDE810400BF1010B03
:1015D000BBF1010F08BF5FEA170722BF12F101023A
:1015E00011F101014FF0004143F1000300F0004010
:1015F00043EA00007047F9D35708DAE746EA06469F
:1016000013F1400F4FEA16461FDD13F1200FDFBF25
:1016100016430A46002120335B42C8D0C3F120079D
:1016200046EA064602FA07F74FEA164646EA070672
:10163000C3F1200722FA03F201FA07F721FA03F1B6
:101640004FF0000342EA0702B1E746EA020646EA23
:1016500006464FEA164646EA0106BCBF46EA06467B
:10166000360C4FF000034FF000024FF000019EE7F0
:101670002DE9C048934630B491E8380007C831EAF4
:10168000400C48BF34EA430C03D5FFF7F2FDFFF7E7
:101690008CFFF0BCBDE800882DE9C048934630B40B
:1016A00091E8380007C810F0804F08BF13F0804F52
:1016B00003D100F005F8FFF778FFF0BCBDE8008823
:1016C00020F07F4780EA030023F07F4C07EB0C03F8
:1016D000A3F57C5300F00040A3F1FE0392F0000F4D
:1016E00000F0B38095F0000F00F077802DE90149FC
:1016F0004FEA11404FEA144621EA004800FB06FC7D
:1017000024EA064708FB06F607FB08F800FB07F784
:1017100018EB06484CEB164C4FEA124B18EB0748F7
:101720004FEA15464CEB174022EA0B4E0BFB06FC2A
:1017300025EA06470EFB06F607FB0EFE0BFB07F736
:101740001EEB064E4CEB164C4FF000061EEB074E00
:101750004CEB174B18EB0B0840F1000018EB0E0B8D
:1017600058EB000840F100008F1A4FF000013CBF19
:10177000C943661B14BFB5EB040C00213CBFC94331
:10178000F61B4FEA17444EEA8E0E27EA04454FEA4D
:101790001C4704FB07622CEA074C05FB07F70CFB10
:1017A00005F604FB0CFC16EB074642EB174216EB62
:1017B0000C4642EB1C421BEB060658EB0202414171
:1017C00046EA9E0601D5BDE80189B619524141EBB2
:1017D0000101A3F10103BDE801894FEA14454FEA75
:1017E000114724EA054621EA074C05FB07F406FBEE
:1017F00007F70CFB06F105FB0CFC11EB074144EB72
:1018000017444FEA124711EB0C4144EB1C4422EA07
:10181000074C05FB07F206FB07F70CFB06F605FB7A
:101820000CFC16EB074642EB174216EB0C4642EB5C
:101830001C456A1854F1000148BF7047B61952415F
:1018400041EB0101A3F10103704795F0000F37D080
:101850004FEA11424FEA144721EA024624EA074CB4
:1018600002FB07F106FB07F70CFB06F402FB0CFC7E
:1018700014EB074441EB17414FEA154714EB0C44B6
:1018800041EB1C4125EA074C02FB07F506FB07F775
:101890000CFB06F602FB0CFC16EB074645EB174566
:1018A00016EB0C4645EB1C42121951F1000148BFE2
:1018B0007047B619524141EB0101A3F10103704792
:1018C0004FEA14454FEA114724EA054621EA074C3E
:1018D00005FB07F106FB07F70CFB06F24FF00006CD
:1018E00005FB0CFC12EB074241EB174112EB0C42DB
:1018F00051EB1C4148BF7047921841EB0101A3F125
:10190000010370472DE9F0419CB04FF4807801212C
:1019100040460EF047F9012188050EF01FF9042713
:10192000019703258DF8085000248DF80B40454E93
:1019300001A9304603F09EFF082001908DF8085061
:101940008DF80B4001A9304603F094FF4020019030
:101950008DF808508DF80B4001A9304603F08AFF3E
:10196000012601968DF808508DF80B4001A93648E4
:1019700003F080FF039435480490354805900694A1
:10198000C82007900894B002099040000A90800097
:101990000B90CDF8308000010D900E940F961094AE
:1019A00011942C4D03A9284602F07EF80121284607
:1019B00002F056F801221021284602F05CF802F0ED
:1019C00011F8224D01214C3D284600F043F91294B4
:1019D00013941494159412A800F024F916948DF819
:1019E0005C608DF85D6019941A948DF86C7016A97E
:1019F000284600F045F9042301220221284600F080
:101A000065F9002302220321284600F05FF9002334
:101A100003220621284600F059F900230422082158
:101A2000284600F053F90121284600F0EFF8284637
:101A300000F08AF90121284600F017F91CB0BDE832
:101A4000F081000000000240000402404C200140F0
:101A5000C4080020106402402DE9F0430020684CC7
:101A6000684A04F5C87604F5FA7704F5167504F5A6
:101A70002F7336E081070BD000F00301022911D04B
:101A80006FEA000C5FEA8C7C16D001291ED026E09C
:101A900034F81080117801F1010C82F800C026F8AA
:101AA00011801CE034F810C0517801F1010882F86F
:101AB000018023F811C012E034F810C0917801F1D0
:101AC000010882F8028027F811C008E034F810C03D
:101AD000D17801F1010882F8038025F811C0401C7B
:101AE00080B2C828C6D30024147054709470D47087
:101AF0000021002004E036F810C06144401CC0B250
:101B00003228F8D35079DFF8008132264FF0130CD9
:101B1000142806D2B1FBF6F0517928F81100002103
:101B20000EE00021012004E038F810904944401CE8
:101B3000C0B21328F8D3B1FBFCF09081002154719E
:101B40005079401C5071002004E037F81080414467
:101B5000401CC0B23228F8D310792B4F283F1428EC
:101B600006D2B1FBF6F0117927F8110000210FE041
:101B70000021012004E037F810804144401CC0B22D
:101B80001328F8D31220B1FBF0F05081002114711A
:101B90001079401C1071002004E035F810703944B1
:101BA000401CC0B23228F8D39079174D283514283C
:101BB00006D2B1FBF6F0917925F8110000210EE074
:101BC0000021012004E035F810703944401CC0B2F7
:101BD0001328F8D3B1FBFCF0D081002194719079E7
:101BE000401C9071002004E033F810402144401C58
:101BF000C0B23228F8D3B1FBF6F01081BDE8F08313
:101C0000C40800205C0000200C0C002021B1816879
:101C100041F0010181607047816821F0010181601C
:101C20007047000010B5094C2268094902EA010218
:101C3000D0E9001341EA0301D0E9023043EA00038E
:101C400041EA030141EA0201216010BD0423014081
:101C5000E030FCFF21B1816841F480718160704700
:101C6000816821F480718160704721B1816841F4FD
:101C7000007181607047816821F400718160704754
:101C800030B542680F4B1A400C790B6842EA0422C7
:101C90001343436083680C4A1340D1E90342224353
:101CA0004D798C6844EA450422431A438260C26A33
:101CB00022F47002097D491EC9B242EA0151C16293
:101CC00030BD0000FFFEFFFCFDF7FFC070B507262A
:101CD00009290ED9D0F80CC0A1F10A0404EB440480
:101CE000A6402CEA060CA3404CEA030CC0F80CC03A
:101CF00007E0056901EB4104A640B543A3401D433D
:101D000005611F23072A09D2446B521E02EB82028F
:101D100093409C4391400C43446370BD0D2A09D20B
:101D2000046BD21F02EB820293409C4391400C4310
:101D3000046370BDC46A0D3A02EB820293409C4377
:101D400091400C43C46270BD816841F08041816064
:101D50007047002800DC40427047000010B50C4876
:101D60000068400612D40B4C206841070ED50206CD
:101D700009484FF4007103D4BDE8104003F0D0BD12
:101D800003F0CCFD206820F00400206010BD0000AE
:101D90003C0000203400002000080240054908688B
:101DA00040F00400044B00221A8020F080000860FC
:101DB00070470000340000207C00002038B54568E2
:101DC00004460146284612F009FB00282AD0206864
:101DD000304A0F2819D006DC0B2824D00C2810D04C
:101DE0000E2851D12FE0112802D028284CD145E0EF
:101DF0009268002A16D02146284601B0BDE830403E
:101E00001047214628465268F7E7284604F0D0FCE0
:101E10000090406E0468684604F014FD002C01D068
:101E20002846A04738BD284604F0C2FC0090683020
:101E300004F026FC009803216C3004F029FC68466D
:101E400004F000FD20E0E168486809680D2902D02F
:101E5000202913D105E0002810DD284619F07EF86E
:101E600006E0002804DD2846BDE8384019F076B8C1
:101E70002846BDE83840022119F086B8E06818B954
:101E80000021284600F097F92046BDE8384012F0BE
:101E900019BF000048020020F0B5044685B08069F3
:101EA000B4F90850668A0027CDE90265CDE900172C
:101EB0000490B4F90C00B4F91060C118B4F90A0028
:101EC000B4F90E50104433462A4600F007F8054690
:101ED000616800F079F905B02846F0BDF0B585B02D
:101EE0000C46DDE90D514C31DFF850C0DDE90A67E1
:101EF000CDE902C12146CDE9006712F033FE0400AE
:101F000018D004F055FC10222946049012F08AFCE7
:101F1000049830220A493430FEF7D7FB084D049963
:101F20000C3D2868486604A804F08CFC28684168C9
:101F30002046884705B02046F0BD0000BD1D0008C2
:101F400054020020F0B5044680688B4989B051F8EE
:101F50002050606800287DD0052804D006287AD05B
:101F6000122879D1AEE0E86900284FD095E80E003C
:101F70008DE80F0004F110010FC906F0B1FE002634
:101F800055F8260005F0F0FFA169E8690A1A2169F1
:101F900001446069304405F08DF9A169E8690A1AC5
:101FA00021690144E069801B05F084F9E169E86971
:101FB0000A1A616901442069304405F01BFAE1699D
:101FC000E8690A1A61690144A069801B05F012FAE8
:101FD000761C022ED4DBA86805F0C6FFE069E9692B
:101FE0006669431A20694218521E3144801C05F06C
:101FF0006BFAE169E869A2690B1A61690144101A78
:10200000401C921E05F060FAEE6913E05FF00006D6
:1020100055F8260005F0A8FFE069831BA069821B24
:10202000606981192069304405F0A6F9761C022EFA
:10203000EEDB0226D5E90301CDE900016169E06923
:1020400008444310A069891C821B2069304405F0B4
:10205000D9F802E089E012E08AE0D5E90501CDE98E
:102060000001E36960690121184401EB6001A06986
:102070009B1E821B2069304405F0C4F878E020687C
:1020800004F096FB0490206813F04CFE40B1A06869
:1020900008B1002008E00498006F28B1012003E097
:1020A0000498406F00B10220049901EB8000C56ED6
:1020B00004A804F0C7FB00231A462846216804F050
:1020C00053FE55E0206804F073FB0490866EEEB377
:1020D000B0F95C70A168D1B3032942D05FF0000170
:1020E00000EB8101406D0C6C05F048FF204605F0C7
:1020F0003BFF05A805F038FABDF81410A88B014481
:10210000ADF81410BDF81810081AADF81800BDF895
:102110001600801CADF81600BDF81A00801EADF840
:102120001A0004985E30B0F90220B0F9001005A83A
:1021300005F078FE04A804F085FB022005F05EFFA0
:10214000304604F035FB3A4605A901E00BE006E015
:10215000079004F001FF07A804F074FB08E00121D8
:10216000BEE70221BCE704A8F6E7206813F09EFA58
:1021700009B00020F0BD00007CEF0208044A0349CA
:10218000116004494A6A4862104670478402002080
:10219000480200205402002038B50D46040009D042
:1021A00004F006FB00904565684604F04BFB2046B2
:1021B00013F07FF838BD4FF480720029114601D02A
:1021C00012F096B912F0E7B82DE9FF410E4605006E
:1021D0004FF001041CD004F0EBFA0190876E01A8C7
:1021E000009704F02FFB3146684607F059F878B1A4
:1021F00000980024B84208D0284604F0D9FA01908B
:102200000099816601A804F01DFB284613F051F8DF
:1022100004B02046BDE8F081FEE700002DE9F05F44
:102220007C4D29787C486FF07046193937118269E6
:1022300040F66F044FF4076840F6770940F6780AD5
:1022400040F6710B0C2925D2DFE801F00626456423
:102250002424242483A324C481462146104612F05A
:102260003FFE04463146204610F09EFB394620468C
:1022700010F0ECFB4146D9F8180012F031FE04468C
:102280006649204610F090FB0021204610F0DEFB4E
:102290001A202870BDE8F09F41468046104612F093
:1022A0001FFE04463146204610F07EFB394620468C
:1022B00010F0CCFB4946D8F8180012F011FE044685
:1022C0005649204610F070FB0021204610F0BEFB5E
:1022D0001B202870DEE780464946104612F000FEBB
:1022E00004463146204610F05FFB3946204610F088
:1022F000ADFB5146D8F8180012F0F2FD04464749EC
:10230000204610F051FB0021204610F09FFB1C20BE
:102310002870BFE780465146104612F0E1FD0446A2
:102320003146204610F040FB3946204610F08EFB27
:102330005946D8F8180012F0D3FD04463749204614
:1023400010F032FB0021204610F080FB2120287085
:10235000A0E780465946104612F0C2FD04463146B9
:10236000204610F021FB3946204610F06FFB40F666
:102370007901D8F8180012F0B3FD04462749204629
:1023800010F012FB0021204610F060FB2220287084
:1023900080E7804640F67901104612F0A1FD044620
:1023A0003146204610F000FB3946204610F04EFB27
:1023B00040F67201D8F8180012F092FD0446174951
:1023C000204610F0F1FA0021204610F03FFB2420B7
:1023D00028705FE7814640F67201104612F080FDDA
:1023E00080463146404610F0DFFA3946404610F04C
:1023F0002DFB2146D9F8180012F072FD044607495A
:10240000204610F0D1FA0021204610F01FFB1920C1
:1024100028703FE76301002098010020FFFFBF0004
:102420002DE9F0412DED028B82B0AE480178DFF846
:10243000BC82AD4A00260127D8F81800192933D0EC
:102440001A297DD0AA4A1B297BD01C2927D198F8AC
:102450000E3040F678010D1D022B73D098F80E3027
:10246000012B1CD1D46812F03BFDA2A110F0C9FAD7
:102470002946D8F8180012F033FD0546204622F010
:102480006BFB41EC100B9FA153EC102B6846FDF742
:1024900021FF6946284610F0B4FA88F80E6002B0B1
:1024A000BDEC028BBDE8F08198F80B109FED970A08
:1024B00040F66F031C1D01292AD098F80B10022941
:1024C000EDD1D2F8801000EE901AF8EE600A80EE9E
:1024D000808A194612F004FD8DA110F092FA21466F
:1024E000D8F8180012F0FCFC044618EE100A22F08E
:1024F00033FB41EC100B8AA153EC102B6846FDF71F
:10250000E9FE6946204610F07CFA88F80B70C6E7B1
:10251000D16F00EE901AF8EE600A80EE808A1946BC
:1025200012F0DEFC80A110F06CFA2146D8F81800F9
:1025300012F0D6FC044618EE100A22F00DFB02E061
:1025400010E06AE0B0E041EC100B75A153EC102BE9
:102550006846FDF7BFFE6946204610F052FA88F83B
:102560000B609CE798F80C109FED730A4FF407631B
:102570001C1D02292AD098F80C1001298FD1D2F8FD
:10258000881000EE901AF8EE600A80EE808A1946F4
:1025900012F0A6FC69A110F034FA2146D8F8180010
:1025A00012F09EFC044618EE100A22F0D5FA41EC17
:1025B000100B54A153EC102B6846FDF78BFE6946B7
:1025C000204610F01EFA88F80C6068E7D2F88C10EC
:1025D00000EE901AF8EE600A80EE808A194612F03A
:1025E0007FFC5AA110F00DFA2146D8F8180012F01D
:1025F00077FC044618EE100A22F0AEFA41EC100BFC
:1026000040A153EC102B6846FDF764FE6946204656
:1026100010F0F7F988F80C7041E798F80D3040F6A3
:1026200077010D1D022B21D098F80D30012B98D188
:10263000146812F055FC49A110F0E3F92946D8F8C6
:10264000180012F04DFC0546204622F085FA41ECB8
:10265000100B33A153EC102B6846FDF73BFE694687
:10266000284610F0CEF988F80D6018E7546812F08B
:1026700037FC3EA110F0C5F92946D8F8180012F031
:102680002FFC0546204622F067FA41EC100B24A1EE
:1026900053EC102B6846FDF71DFE6946284610F0E6
:1026A000B0F988F80D70FAE6146912F019FC33A13C
:1026B00010F0A7F92946D8F8180012F011FC0546C9
:1026C000204622F049FA41EC100B0EA153EC102BDE
:1026D0006846FDF7FFFD6946284610F092F988F834
:1026E0000E70DCE663010020B40C0020980100208D
:1026F0006C850020E688AAE6ADA2E794B5E6B58130
:1027000031000000252E3366000000000000C842A2
:10271000E8BE93E587BAE794B5E58E8B32000000FA
:10272000252E326600000000E8BE93E587BAE794E4
:10273000B5E58E8B3100000000007A44E99990E500
:1027400088B6E794B5E6B58131000000E99990E5D7
:1027500088B6E794B5E6B58132000000E688AAE6BF
:10276000ADA2E794B5E58E8B31000000E688AAE6BD
:10277000ADA2E794B5E58E8B32000000E688AAE6AC
:10278000ADA2E794B5E6B581320000002DE9F04135
:102790002DED028B82B0AD480178DFF8B882AC4AEB
:1027A00001260227D8F81800192933D01A297DD01C
:1027B000A94A1B297BD01C2927D198F80E3040F656
:1027C00078010D1D002B73D098F80E30012B1CD111
:1027D000546912F085FBA1A110F013F92946D8F82D
:1027E000180012F07DFB0546204622F0B5F941ECB9
:1027F000100B9EA153EC102B6846FDF76BFD69464C
:10280000284610F0FEF888F80E7002B0BDEC028B7E
:10281000BDE8F08198F80B109FED960A40F66F0323
:102820001C1D51B398F80B100129EED1D2F8841079
:1028300000EE901AF8EE600A80EE808A194612F0D7
:102840004FFB8DA110F0DDF82146D8F8180012F0EA
:1028500047FB044618EE100A22F07EF941EC100BFB
:1028600089A153EC102B6846FDF734FD69462046DC
:1028700010F0C7F888F80B70C7E7D2F8801000EEA8
:10288000901AF8EE600A80EE808A194612F028FB52
:102890007FA110F0B6F82146D8F8180012F020FBFE
:1028A000044618EE100A22F057F902E010E069E041
:1028B000AEE041EC100B74A153EC102B6846FDF711
:1028C00009FD6946204610F09CF888F80B609CE7EB
:1028D00098F80C109FED720A4FF407631C1D51B35A
:1028E00098F80C10012990D1D2F8901000EE901AAF
:1028F000F8EE600A80EE808A194612F0F1FA69A1BA
:1029000010F07FF82146D8F8180012F0E9FA0446D2
:1029100018EE100A22F020F941EC100B53A153ECF1
:10292000102B6846FDF7D6FC6946204610F069F882
:1029300088F80C7069E7D2F88C1000EE901AF8EE67
:10294000600A80EE808A194612F0CAFA59A110F086
:1029500058F82146D8F8180012F0C2FA044618EECA
:10296000100A22F0F9F841EC100B40A153EC102BA7
:102970006846FDF7AFFC6946204610F042F888F83B
:102980000C6042E798F80D3040F677010D1D0BB34F
:1029900098F80D30012B9AD1946812F0A1FA49A150
:1029A00010F02FF82946D8F8180012F099FA0546C9
:1029B000204622F0D1F841EC100B33A153EC102B40
:1029C0006846FDF787FC6946284610F01AF888F833
:1029D0000D701AE7546812F083FA3EA110F011F856
:1029E0002946D8F8180012F07BFA0546204622F056
:1029F000B3F841EC100B24A153EC102B6846FDF703
:102A000069FC694628460FF0FCFF88F80D60FCE67B
:102A1000146912F065FA33A10FF0F3FF2946D8F8D4
:102A2000180012F05DFA0546204622F095F841ECB8
:102A3000100B0EA153EC102B6846FDF74BFC6946BA
:102A400028460FF0DEFF88F80E60DEE66301002006
:102A5000B40C0020980100206C850020E688AAE6CE
:102A6000ADA2E794B5E6B58133000000252E3366AC
:102A7000000000000000C842E8BE93E587BAE79472
:102A8000B5E58E8B33000000252E32660000000075
:102A9000E8BE93E587BAE794B5E58E8B3200000077
:102AA00000007A44E99990E588B6E794B5E6B581E7
:102AB00033000000E99990E588B6E794B5E6B58162
:102AC00032000000E688AAE6ADA2E794B5E58E8B59
:102AD00033000000E688AAE6ADA2E794B5E58E8B48
:102AE00032000000E688AAE6ADA2E794B5E6B5811B
:102AF000320000002DE9F05F7D4D29787D481939BD
:102B000040F66F0782696FF070464FF4076840F631
:102B1000770940F6780A40F6710B40F679040C29E3
:102B200026D2DFE801F0062747662525252585A45E
:102B300025C339460746104612F0D2F904463146FD
:102B400020460FF031FF6FF07F4120460FF07EFFEF
:102B500040F67201B86912F0C3F90446664920468E
:102B60000FF022FF002120460FF070FF2420287074
:102B7000BDE8F09F41468046104612F0B1F9044688
:102B8000314620460FF010FF6FF07F4120460FF0D6
:102B90005DFF3946D8F8180012F0A2F904465649EC
:102BA00020460FF001FF002120460FF04FFF1920B3
:102BB0002870DDE707464946104612F091F90446B1
:102BC000314620460FF0F0FE6FF07F4120460FF0B7
:102BD0003DFF4146B86912F083F904464649204654
:102BE0000FF0E2FE002120460FF030FF1A2028707F
:102BF000BEE707465146104612F072F904463146C8
:102C000020460FF0D1FE6FF07F4120460FF01EFFEF
:102C10004946B86912F064F90446374920460FF076
:102C2000C3FE002120460FF011FF1B2028709FE7F4
:102C300007465946104612F053F9044631462046DD
:102C40000FF0B2FE6FF07F4120460FF0FFFE5146BD
:102C5000B86912F045F90446274920460FF0A4FE52
:102C6000002120460FF0F2FE1C20287080E7074666
:102C70002146104612F034F90446314620460FF042
:102C800093FE6FF07F4120460FF0E0FE5946B86991
:102C900012F026F90446184920460FF085FE00215F
:102CA00020460FF0D3FE2120287061E7804640F6D1
:102CB0007201104612F014F90746314638460FF0FB
:102CC00073FE6FF07F4138460FF0C0FE2146D8F802
:102CD000180012F005F90446074920460FF064FE7B
:102CE000002120460FF0B2FE2220287040E70000AD
:102CF0006301002098010020FFFFBF002DE9F04F85
:102D00002DED048B83B0F948406E00EE100AB8EE4A
:102D1000400ADFEDF70A80EE208AF448806E00EE6C
:102D2000100AB8EE400ADFEDF30AC0EE208AEF4841
:102D3000C06E00EE100AB8EE400ADFEDEE0A80EE3B
:102D4000209AEA48006F00EE100AB8EE400ADFED64
:102D5000E80AC0EE209AE8480178EB4819390124C6
:102D6000E64DE74EE74F806940F66F0940F6730A7B
:102D70004FF4076B40F67908102932D2DFE801F0F2
:102D80000891FCFB36BBFAF9F8F7F6F5F4F3F2F12B
:102D90004946DD4F12F0A4F806466FF07041304608
:102DA0000FF002FE6FF07F4130460FF04FFE5146AC
:102DB000B86912F095F80646D44930460FF0F4FD94
:102DC000002130460FF042FE0020D14A002102E0EF
:102DD0001154401CC0B20528FAD3C7491D20087001
:102DE0002C7003B0BDEC048BBDE8F08F5146DFF8CA
:102DF00018A312F075F807466FF0704138460FF0CF
:102E0000D3FD6FF07F4138460FF020FEDFF8DC8203
:102E1000D8F8040000EE100AF8EE400A9FEDB41A4C
:102E200080EE810A10EE100A21F096FE41EC100BA4
:102E3000B8A153EC102B01A8FDF74CFA01A93846B4
:102E40000FF0DFFD9AF80B0040B19AF80B00012853
:102E500009D09AF80B0002280AD00DE0D8F8040037
:102E6000C8F87C0008E0D8F80400C8F8800003E047
:102E7000D8F80400C8F884004946DAF8180012F0BF
:102E80002FF80746A14938460FF08EFD002138463D
:102E90000FF0DCFD9849192008702C70002030706C
:102EA0009FE75946984D12F01BF804466FF07041A9
:102EB00020460FF079FD6FF07F4120460FF0C6FDF0
:102EC0000020934A002102E01154401CC0B20528A2
:102ED000FAD340F67401A86912F002F804468B494F
:102EE00020460FF061FD002120460FF0AFFD824922
:102EF0001E20087075E740F67401DFF80C9211F09F
:102F0000EFFF07466FF0704138460FF04DFD6FF050
:102F10007F4138460FF09AFDDFF8D081D8F80810CD
:102F200043F69820814201D9C8F80800D8F8080073
:102F300000EE100AF8EE400A9FED6E1A80EE810A4C
:102F400010EE100A21F008FE41EC100B73A153ECB7
:102F5000102B01A8FDF7BEF901A938460FF051FD6D
:102F60000BE0CEE16BE1F4E061E076E29EE13CE172
:102F7000FFE194E228E2A5E02EE099F80C0040B1D0
:102F800099F80C00012809D099F80C0002280AD001
:102F90000DE0D8F80800C8F8880008E0D8F8080064
:102FA000C8F88C0003E0D8F80800C8F8900059462B
:102FB000D9F8180011F094FF0746544938460FF02D
:102FC000F3FC002138460FF041FD4B491A200870F0
:102FD0002C700020307004E740F677014A4D11F064
:102FE0007FFF04466FF0704120460FF0DDFC6FF06C
:102FF0007F4120460FF02AFD00204549002202E0D3
:103000000A54401CC0B20528FAD340F67B01A869D7
:1030100011F066FF04463D4920460FF0C5FC002133
:1030200020460FF013FD344925200870D9E640F6FC
:103030007B01DFF8D49011F053FF80466FF07041B0
:1030400040460FF0B1FC6FF07F4140460FF0FEFCB0
:1030500018EE100A21F080FD41EC100B2DA153EC6D
:10306000102B01A8FDF736F901A940460FF0C9FC65
:1030700099F80D0040B199F80D00012807D099F892
:103080000D00022806D007E087ED008A04E087EDF6
:10309000018A01E087ED028A40F67701D9F818002D
:1030A00011F01EFF0746194938460FF07DFC00213C
:1030B00038460FF0CBFC10491B2008702C70002004
:1030C00030708EE640F678010F4D11F009FF04468E
:1030D0006FF0704120460FF067FC6FF07F41204693
:1030E0000FF0B4FC00200A4A00211EE0B40C0020BE
:1030F0000000C84200007A44630100201C01002047
:103100001D0100206C85002098010020FFFFBF00FA
:103110005C010020252E326600000000252E33665B
:10312000000000001154401CC0B20528FAD340F63C
:103130007C01A86911F0D4FE0446EC4920460FF04A
:1031400033FC002120460FF081FCE949262008705D
:1031500047E640F67C01DFF89C9311F0C1FE804603
:103160006FF0704140460FF01FFC6FF07F4140460A
:103170000FF06CFC18EE900A21F0EEFC41EC100B05
:1031800053EC102BAFF26C0101A8FDF7A3F801A9D5
:1031900040460FF036FC99F80E0040B199F80E0049
:1031A000012807D099F80E00022806D007E0C7EDE5
:1031B000038A04E0C7ED048A01E0C7ED058A40F602
:1031C0007801D9F8180011F08BFE0746C749384638
:1031D0000FF0EAFB002138460FF038FCC4491C20F0
:1031E00008702C7000203070FBE54146C14D11F095
:1031F00077FE04466FF0704120460FF0D5FB6FF06C
:103200007F4120460FF022FC0020BB4A002102E053
:103210001154401CC0B20528FAD340F67D01A869BC
:1032200011F05EFE0446B14920460FF0BDFB0021BF
:1032300020460FF00BFCAE4927200870D1E540F680
:103240007D01DFF8B09211F04BFE07466FF0704140
:1032500038460FF0A9FB6FF07F4138460FF0F6FBC0
:1032600019EE100A21F078FC41EC100B53EC102BF6
:10327000AFF2581101A8FDF72DF801A938460FF05B
:10328000C0FB4146D9F8180011F02AFE07469749BD
:1032900038460FF089FB002138460FF0D7FB9449E0
:1032A000222008702C70002030709AE540F67A01D8
:1032B000904D11F015FE04466FF0704120460FF05E
:1032C00073FB6FF07F4120460FF0C0FB00208A4A5D
:1032D000002102E01154401CC0B20528FAD340F688
:1032E0007E01A86911F0FCFD0446804920460FF0DC
:1032F0005BFB002120460FF0A9FB7D4928200870C8
:103300006FE540F67E01DFF8EC8111F0E9FD07463C
:103310006FF0704138460FF047FB6FF07F41384641
:103320000FF094FB19EE900A21F016FC41EC100B03
:1033300053EC102BAFF2242101A8FCF7CBFF01A91D
:1033400038460FF05EFB40F67A01D8F8180011F00D
:10335000C7FD0746654938460FF026FB0021384671
:103360000FF074FB6249232008702C70002030702D
:1033700037E540F671015F4D11F0B2FD04466FF084
:10338000704120460FF010FB6FF07F4120460FF098
:103390005DFB0020584A002102E01154401CC0B2DD
:1033A0000528FAD340F67501A86911F099FD044685
:1033B0004E4920460FF0F8FA002120460FF046FB58
:1033C0004B491F2008700CE540F67501DFF8248199
:1033D00011F086FD07466FF0704138460FF0E4FAB1
:1033E0006FF07F4138460FF031FB444801694EF6DB
:1033F0006022914201D900210161006900EE100AAA
:10340000F8EE400A1FEDC51A80EE810A10EE100A90
:1034100021F0A2FB41EC100B53EC102BAFF2043166
:1034200001A8FCF757FF01A938460FF0EAFA40F669
:103430007101D8F8180011F053FD07462B493846A2
:103440000FF0B2FA002138460FF000FB2849212086
:1034500008702C7000203070C3E440F67201254DD6
:1034600011F03EFD04466FF0704120460FF09CFACB
:103470006FF07F4120460FF0E9FA40F67601A86927
:1034800011F02EFD0446194920460FF08DFA002157
:1034900020460FF0DBFA164920200870A1E440F620
:1034A0007601DFF8508011F01BFD07466FF0704188
:1034B00038460FF079FA6FF07F4138460FF0C6FAC0
:1034C00040F67201D8F8180011F00AFD07460749C6
:1034D00038460FF069FA002138460FF0B7FA044970
:1034E000242008702C70002030707AE4FFFFBF00A9
:1034F00063010020980100205C010020B40C002032
:1035000070B5134D69792846124E806940F69902CC
:1035100001290FD0114611F0E3FC04466FF0704111
:1035200020460FF041FA314620460FF08FFA2F2047
:10353000287070BD114611F0D3FC04463146204678
:103540000FF032FA2046BDE8704000210FF07EBA3D
:1035500070010020FFFFBF002DE9FF47044600680F
:1035600010B112F0DFFB68B10022314850F8221090
:1035700060680A2841D007DCF0B306280DD0072880
:1035800054D106E00122F0E712280AD019284DD1C3
:1035900037E0204613F0FEFC48E0204614F078FEA9
:1035A00044E0206803F004F90290B0F9548090F8E8
:1035B0005650476C466B02A803F044F9206800F0AF
:1035C00039F88146684611F063FCBDF8001009EB3C
:1035D00005000844ADF80000246A304604F0CEFC33
:1035E000022004F00BFD384604F0BEFC424669465A
:1035F000204603F0B1FC19E007E0204615F034F94D
:1036000014E0886904B0BDE8F087206812F04EF835
:10361000206803F0CDF80390B0F90610B0F902204D
:10362000891A491CC16703A803F00CF90020E9E7D7
:103630008CEF020838B503F0BBF80090C46F684601
:1036400003F000F9204638BD044A034911600449DB
:10365000CA69C8611046704710030020D8060020D0
:10366000DC06002000B589B024216846FDF767F824
:1036700019200190034800688068416868468847BF
:1036800009B000BDD80600201CB510490120087003
:103690000F4A192111700F4900240C700E4908704F
:1036A000702168200FF047FD4FF480510B4802F065
:1036B00035F911F009FC03460094094A282109480C
:1036C000019403F06DFA084988611CBD1E010020B9
:1036D000630100208400002085000020000C0240CF
:1036E000B514020858590208980100201CB50E486C
:1036F000002404700D4804700D4804707021682087
:103700000FF019FD4FF480510A4802F007F911F04B
:10371000DBFB03460094084A08210848019403F0A3
:103720003FFA074908601CBD1E01002085000020EB
:1037300084000020000C0240712A0208B85D0208D3
:10374000B80100207CB50C4C1320A0710320A070A0
:103750000A4908700025E57120F0CCFA0848057088
:1037600011F0B2FB03460095064A1F210648019559
:1037700003F016FAA0627CBD1C0100208500002029
:103780008400002041ED0108684E02081CB50F4975
:10379000052008700E48002404700E480470702143
:1037A00068200FF0C8FC4FF480510B4802F0B6F8C7
:1037B00011F08AFB03460094084A1F21084801942F
:1037C00003F0EEF9074908601CBD00001E0100204F
:1037D0006301002084000020000C0240F50502086F
:1037E000185402086C0100201CB51449022008700E
:1037F0001349087013490920087013480024047005
:103800001249032008700121114810F0BFFD7021FA
:1038100068200FF090FC4FF480510E4802F07EF8C3
:1038200011F052FB034600940B4A13210B480194FC
:1038300003F0B6F90A4948601CBD00001E010020D3
:103840008500002063010020840000206101002029
:1038500000480040000C02401DE60108544C0208DC
:10386000140100201CB51449042008701349087085
:1038700013491720087013480024047012490220CD
:1038800008700021114810F081FD702168200FF0B0
:1038900052FC4FF480510E4802F040F811F014FB36
:1038A000034600940B4A15210B48019403F078F964
:1038B0000A4948601CBD00001E0100208500002050
:1038C00063010020840000206101002000480040C6
:1038D000000C0240D92D0208CC51020864010020DE
:1038E0001CB511F0F1FA002403460094074A112197
:1038F0000748019403F054F906498861064A147098
:10390000064B07221A702F220A701CBD490F0208AD
:103910007C57020870010020840000201E01002056
:103920001CB502208DF8050001208DF80400002050
:103930008DF806001C2000906946024801F09AFFAD
:103940001CBD00000010024070B50546244E042145
:10395000304601F0E3FF0821304601F0E1FF00BFEF
:1039600000BF00BF00BF0421304601F0D9FF00BFF7
:103970000821304601F0D4FF0421304601F0CEFF8B
:10398000002420E0072C0DD9280404D5102130464E
:1039900001F0C6FF03E01021304601F0BFFF6804CC
:1039A000050C03E01021304601F0B8FF0821304635
:1039B00001F0B4FF00BF00BF00BF0821304601F096
:1039C000AFFF641CE4B2182CDCD30421304601F0B4
:1039D000A7FF3046BDE87040082101F0A1BF0000FC
:1039E0000010024008B538208DF8000003208DF843
:1039F00001008DF8020001208DF8030068460AF0EE
:103A000091F908BD01480068704700005C03002080
:103A100010B50549054800F00DF80548016841F06A
:103A20000201016010BD00002080001010640240FF
:103A300034000020074A904201D2074801E00548BF
:103A40001038064A8B0001EA020101D5C1607047B7
:103A50008160704710640240006002407D0F7D0F5E
:103A600021B1016841F0010101607047016821F056
:103A70000101016070470B0609D522B1436943F08B
:103A80008003436103E0436923F08003436180299D
:103A900005D001F01E011AB102680A4302607047A6
:103AA00002688A430260704730B50368124A1340C7
:103AB000CC680A682243D1E905452C432243CC69EE
:103AC00022430C6A22434C6A22438C6A22434C6B89
:103AD00022438C6B22431A430260426922F007039F
:103AE000D1E90B2422431A4342610A6942604A68C1
:103AF00082608968C16030BD3F801CF0F8B5054622
:103B0000006802F055FE0090448ED0F88860684648
:103B100002F098FE06B1012604F00104286812F0B4
:103B200001F90EB1002006E00CB1012003E008B15C
:103B3000022000E003201B4951F82010686858B3A8
:103B400002280CD0052802D0122828D103E02846EC
:103B500013F04CFA23E0284615F01BFB1FE06A69BE
:103B6000E8694FF0FF33801AA0F1080203EB62040A
:103B7000421CAB69001B4510A3EB6206C86904F048
:103B8000F3F906E03219311B284603F093FB641E5B
:103B90006D1C002CF6DA02E0286811F087FD002089
:103BA000F8BD0000ECEF0208044A03491160044923
:103BB0000A6B086310467047600300201807002056
:103BC0001C07002038B50D46002402F0F1FD0090DE
:103BD000C06B294602F0CEFE0546684602F032FE72
:103BE0001DB1284602F0E4FD0446204638BD70476A
:103BF00030B504464FF47A7502E0284600F006F826
:103C00002300A4F1010084B2F7D130BD00220BE003
:103C1000042100BF00BF00BF00BF00BF491E090450
:103C2000090CF6D1521C92B28242F1D370470000C7
:103C300010B52DED028B24490A78244CB2EE048A8B
:103C4000022AE0681FD00978032939D1204991ED73
:103C5000000A20EE080ABDEEC00A10EE101A09B2E2
:103C600001F036FF1B4890ED000A20EE080ABDEE79
:103C7000C00A10EE100A01B22069BDEC028BBDE84B
:103C8000104001F025BF144991ED000A20EE080A0A
:103C9000BDEEC00A10EE101A09B201F019FF0F486C
:103CA00090ED000A20EE080ABDEEC00A10EE100AE0
:103CB00001B22069BDEC028BBDE8104001F008BFE5
:103CC000BDEC028B10BD000061010020B801002096
:103CD0002800002030000020240000202C000020BC
:103CE00010B504461FF0FAFDA0201FF0C9FD1FF01B
:103CF00025FE68B920461FF0C3FD1FF01FFE38B92E
:103D00001FF0ECFDA1201FF0BBFD1FF017FE18B146
:103D10001FF000FE002010BD1FF090FD034C20702E
:103D20001FF074FD1FF0F6FD207810BD7A00002012
:103D300070B50120FFF7D4FFFE4C20600120FFF793
:103D4000CFFF20602068000220600220FFF7C8FF3C
:103D50002168084420602068000220600320FFF7EB
:103D6000BFFF216808442060206800022060042012
:103D7000FFF7B6FF2168084420600520FFF7B0FF79
:103D8000ED4D28602868000228600620FFF7A8FF94
:103D90002968084428602868000228600720FFF787
:103DA0009FFF2968084428602868000228600820CE
:103DB000FFF796FF2968084428600920FFF790FF65
:103DC00060606068000260600A20FFF789FF616838
:103DD000084460606068000260600B20FFF780FFAD
:103DE0006168084460606068000260600C20FFF752
:103DF00077FF6168084460600D20FFF771FF68601D
:103E00006868000268600E20FFF76AFF696808446E
:103E100068606868000268600F20FFF761FF6968EA
:103E2000084468606868000268601020FFF758FF67
:103E30006968084468601120FFF752FFA060A0681D
:103E40000002A0601220FFF74BFFA1680844A060A9
:103E5000A0680002A0601320FFF742FFA168084499
:103E6000A060A0680002A0601420FFF739FFA168DD
:103E70000844A0601520FFF733FFA860A86800027F
:103E8000A8601620FFF72CFFA9680844A860A8685E
:103E90000002A8601720FFF723FFA9680844A86064
:103EA000A8680002A8601820FFF71AFFA968084454
:103EB000A8601920FFF714FFE060E0680002E060EE
:103EC0001A20FFF70DFFE1680844E060E068000297
:103ED000E0601B20FFF704FFE1680844E060E06851
:103EE0000002E0601C20FFF7FBFEE1680844E06090
:103EF0001D20FFF7F5FEE860E8680002E8601E207C
:103F0000FFF7EEFEE9680844E860E8680002E86050
:103F10001F20FFF7E5FEE9680844E860E868000252
:103F2000E8602020FFF7DCFEE9680844E860212013
:103F3000FFF7D6FE20612069000220612220FFF7F2
:103F4000CFFE2169084420612069000220612320FE
:103F5000FFF7C6FE21690844206120690002206144
:103F60002420FFF7BDFE2169084420612520FFF7CA
:103F7000B7FE28612869000228612620FFF7B0FEFD
:103F80002969084428612869000228612720FFF771
:103F9000A7FE2969084428612869000228612820B1
:103FA000FFF79EFE2969084428612920FFF798FE43
:103FB00060616069000260612A20FFF791FE61691B
:103FC000084460616069000260612B20FFF788FE91
:103FD0006169084460616069000260612C20FFF73C
:103FE0007FFE6169084460612D20FFF779FE6861FA
:103FF0006869000268612E20FFF772FE6969084453
:1040000068616869000268612F20FFF769FE6969CD
:10401000084468616869000268613020FFF760FE4B
:104020006969084468613120FFF75AFEA061A06900
:104030000002A0613220FFF753FEA1690844A0618D
:10404000A0690002A0613320FFF74AFEA16908447D
:10405000A061A0690002A0613420FFF741FEA169C0
:104060000844A0613520FFF73BFEA861A869000263
:10407000A8613620FFF734FEA9690844A861A86941
:104080000002A8613720FFF72BFEA9690844A86148
:10409000A8690002A8613820FFF722FEA969084438
:1040A000A8613920FFF71CFEE061E0690002E061D1
:1040B0003A20FFF715FEE1690844E061E06900027B
:1040C000E0613B20FFF70CFEE1690844E061E06934
:1040D0000002E0613C20FFF703FEE1690844E06173
:1040E0003D20FFF7FDFDE861E8690002E8613E2040
:1040F000FFF7F6FDE9690844E861E8690002E86154
:104100003F20FFF7EDFDE9690844E861E869000236
:10411000E8614020FFF7E4FDE9690844E8614120D7
:10412000FFF7DEFD2062206A000220624220FFF7D6
:10413000D7FD03E05C0C0020880C0020216A0844B5
:104140002062206A000220624320FFF7C9FD216A35
:1041500008442062206A000220624420FFF7C0FD6C
:10416000216A084420624520FFF7BAFD2862286AC8
:10417000000228624620FFF7B3FD296A084428623E
:10418000286A000228624720FFF7AAFD296A08442E
:104190002862286A000228624820FFF7A1FD296AE8
:1041A000084428624920FFF79BFD6062606A0002B4
:1041B00060624A20FFF794FD616A08446062606AA9
:1041C000000260624B20FFF78BFD616A0844606269
:1041D000606A000260624C20FFF782FD616A084459
:1041E00060624D20FFF77CFD6862686A00026862C9
:1041F0004E20FFF775FD696A08446862686A00022C
:1042000068624F20FFF76CFD696A08446862686A5B
:10421000000268625020FFF763FD696A0844686223
:104220005120FFF75DFDA062A06A0002A06252204B
:10423000FFF756FDA16A0844A062A06A0002A062CE
:104240005320FFF74DFDA16A0844A062A06A000256
:10425000A0625420FFF744FDA16A0844A0625520E3
:10426000FFF73EFDA862A86A0002A8625620FFF789
:1042700037FDA96A0844A862A86A0002A86257200C
:10428000FFF72EFDA96A0844A862A86A0002A86286
:104290005820FFF725FDA96A0844A8625920FFF7B6
:1042A0001FFD914C20705A20FFF71AFD60705B20B3
:1042B000FFF716FDA0705C20FFF712FDE0705D2097
:1042C000FFF70EFD20715E20FFF70AFD6071602090
:1042D000FFF706FD854908707A20FFF701FD844944
:1042E00008707B20FFF7FCFC824908707820FFF7FC
:1042F000F7FC814908707920FFF7F2FC7F490870CC
:104300006120FFF7EDFC7E4908707C20FFF7E8FC98
:104310007C4908807D20FFF7E3FC7B4908807E20F4
:10432000FFF7DEFC794908807F20FFF7D9FC784948
:1043300008808020FFF7D4FC764908708120FFF7C1
:10434000CFFC754908708220FFF7CAFC73490870DA
:104350008320FFF7C5FC724908708420FFF7C0FC7A
:10436000704908708520FFF7BBFC6F4908708620F4
:10437000FFF7B6FC6D4908708720FFF7B1FC6C4968
:1043800008708820FFF7ACFC6A4908708920FFF7A5
:10439000A7FC694908708A20FFF7A2FC67490870EA
:1043A0008B20FFF79DFC664908708C20FFF798FC76
:1043B00064490A6860F3C7120A608D20FFF790FC19
:1043C000614908806220FFF78BFC604CA063A06B02
:1043D0000002A0636320FFF783FCA16B0844A06385
:1043E0006420FFF77DFCE063E06B0002E063652082
:1043F000FFF776FCE16B0844E0636620FFF770FC92
:104400002064206C000220646720FFF769FC216CA7
:10441000084420646820FFF763FC6064606C00025D
:1044200060646920FFF75CFC616C084460646A208A
:10443000FFF756FCA064A06C0002A0646B20FFF79D
:104440004FFCA16C0844A0646C20FFF749FCE064B9
:10445000E06C0002E0646D20FFF742FCE16C084470
:10446000E0646E20FFF73CFC606060680002606002
:104470006F20FFF735FC6168084460607020FFF72B
:104480002FFCA060A0680002A0607120FFF728FC4C
:10449000A1680844A0607220FFF722FC2061206917
:1044A000000220617320FFF71BFC21690844206192
:1044B0007420FFF715FCA065A06D0002A0657520B3
:1044C000FFF70EFCA16D0844A0657620FFF708FCFD
:1044D000E065E06D0002E0657720FFF701FCE16D2B
:1044E0000844E06570BD0000C4000020A600002064
:1044F000200100201F0100202F0100206201002068
:104500002D0100207E01002080010020820100207A
:10451000840100207101002072010020730100203D
:10452000740100207601002077010020780100202E
:10453000790100207A0100207B0100207C0100200D
:104540007D0100204000002030010020B40C00203C
:1045500070B505460E461FF0DDF9002409E01FF096
:10456000BDF9A0201FF08CF91FF0E8F918B1641C08
:10457000A4B2642CF3D3B4F57A7F0DD0E8B21FF067
:104580007FF91FF0DBF938B930461FF079F91FF0D9
:10459000D5F908B91FF0BEF9BDE870401FF0BAB9EF
:1045A0002DE9F041044694B0006800F0B7F908B175
:1045B000D94D01E0D84D2C35606815281ED00CDC93
:1045C0000B281FD004DC00287ED005287DD12EE1E9
:1045D0000E287BD01228F9D141E1162806D01728E1
:1045E00008D0182808D01C28F0D109E0E86914B0D8
:1045F000BDE8F081286AFAE7686AF8E7A86AF6E792
:104600006869F4E720680B901C200C90206802F089
:10461000CFF80390016D0BA88847064603A802F067
:1046200011F9022E0EDB95E807008DE80700D4E9AA
:1046300004023346A16904F021FB20698719A069AF
:10464000801B2BE0286803F08FFC2169E8690A18B9
:10465000521E606902F02EFEA269E869111A491C17
:10466000606902F027FE676920697F1C394602F005
:1046700063FE3946A06902F05FFE686803F074FCCF
:1046800020693946401C02F057FEA0693946401E99
:1046900002F052FE2769A069BF1C801E8046286870
:1046A00003F062FC42463946606902F003FE686826
:1046B00003F05AFC60694246401C394602F0FAFD9C
:1046C000686A02280FDD02E015E1AFE000E1A868AA
:1046D00003F04AFC61696A6A881C8B1801465B1EFC
:1046E0004246384627E0296AB14226DD6069022E3B
:1046F000074600F1020801DB374401E007F1020739
:10470000206901DB304401E000F1020022693B46F0
:104710000A44A2F10102414602F0D6FE022E02DB5B
:10472000A069821B01E0A269921EA069E9693B466B
:10473000401A401C414602F0C7FE022E02DB6069AF
:10474000064401E06669B61CE76928687F1E03F02D
:104750000BFC3A463146206902F04CFE3A4631469F
:10476000A06902F047FEE7696868BF1E03F0FCFB22
:1047700020693A46401C314602F03CFEA0693A46A8
:10478000401E314602F036FEE869022802DC286A43
:10479000022823DDA86A022802DDE1690F1A01E080
:1047A000E769BF1EA86803F0DFFBE969022909DD9C
:1047B00020693B46421800F1020C521E3146604609
:1047C00002F082FE286A022808DDA269E8693B46F9
:1047D000101A401C921E314602F076FE286803F043
:1047E000C3FBD4E90620216902F064FD686803F088
:1047F000BBFBA2692169E069521E491C401E02F000
:1048000059FDA86A022811DD2669A169E469B61C70
:10481000271AA1F102087F1CA41EA86803F0A4FBBC
:10482000234642463946304602F04EFE72E0208A68
:1048300006B2ADF81460A08A01B2ADF81610208B54
:1048400002B2ADF81820A08B03B2ADF81A30D5E94A
:104850000304CDE90004304602F0D4FC5AE0208A7B
:10486000298B0844ADF81400A08AADF81600208BFF
:10487000298B401AADF81800A08BADF81A002068FB
:1048800001F096FF0390006FF0B1022003F0B6FB39
:10489000039991F87C00C0F3C00001EB8000006C2C
:1048A00003F062FB0398406B03F068FB0398006F12
:1048B00001F07EFF03990A90B1F95A2005A902F090
:1048C0004BFB0AA801F0BEFF03A801F0BBFF21E0EB
:1048D000208AADF81400A08AADF81600208BADF840
:1048E0001800A08BADF81A00A86803F03DFB05A8DE
:1048F00002F00EFE0EE0206801F05AFF039030F83F
:104900005A1F41F00C01018003A801F09BFF2068B1
:1049100010F0CCFE00206AE63004002038B50024F8
:1049200050B101F045FF009090F87C00000700D5E1
:104930000124684601F086FF204638BD30B50446A4
:104940008BB0006801F034FF009090F87C10246A6E
:10495000006FC1F3C00508B101F02AFF0690E068BE
:10496000029020690390A088401EADF81000E089F5
:10497000ADF812002089401CADF81400608AADF833
:104980001600BDF80800401CADF80800BDF80A008C
:10499000401CADF80A00BDF80C00401EADF80C003C
:1049A0000098406B03F0EAFA009808AA02A9B0F94F
:1049B0005A30069803F0C4FD009800EB8500806B28
:1049C00008F0B2FA009800EB8500006C08F0E4FAF9
:1049D00008AB02AA04A906980FF04AFE684601F047
:1049E00031FF069810B106A801F02CFF0BB0002093
:1049F00030BD0000074A0649054B1160064A083BD6
:104A0000D16958601B68C2E906300846704700004B
:104A100024040020580700205C07002038B50D460C
:104A2000040009D001F0C4FE00900566684601F05C
:104A300009FF204610F03DFC38BD2DE9F34F85B04D
:104A400000270C46B846059801F0B2FE0090C06DF4
:104A50000121856805982A68904782462A680321C3
:104A60000598904704902A68022105989047039082
:104A70002A680021059890470646009810F0D8FF54
:104A80008346009810F0DBFF8146009890F83210C2
:104A9000890601D5B0F9588000F036F8054600982F
:104AA000C06E10B110F03AFB074625806780A4F86D
:104AB00004A0049AABEB020006EB0802401E2A4455
:104AC00020813A44E280039BA9EB0302521E6281DB
:104AD000A4F80CA020827019E681401E608268460E
:104AE00001F0B0FEB4F90C000190B4F9100002908E
:104AF00002AA01A9059800F039F80198A08102984E
:104B0000208207B0BDE8F08F10B50146002091F873
:104B10003220920607D5B1F95400002803D1486B22
:104B200002F074FD801C10BD70B58AB00C460546BD
:104B300001F03EFE0990C06D866809A801F082FE72
:104B4000009534B1012C06D0022C0BD0032C04D1DB
:104B50000AE0182000E01620019071686846884736
:104B60000AB070BD1520F7E71720F5E72DE9FC47DF
:104B700090468946044601F01BFE0090C16D056811
:104B800068468E6801F05EFE32680021204690473C
:104B90000646204610F0ACF92F1404462DB227E04B
:104BA00001F006FE0190B0F90010B0F90420B0F950
:104BB0000230491B521BDB1BB34212D190F8280074
:104BC000000607D5D8F8000088420ADB491EC8F85D
:104BD000001006E0D9F80000904202DC521CC9F82F
:104BE000002001A801F02EFE204610F011FA044624
:104BF000002CD5D1BDE8FC874FF0204202EB8000AD
:104C000021B1016841F00101016070470168024A69
:104C10001140016070470000FEFF0F0030B5D0E981
:104C200001121143D0E903231A4311434269036877
:104C3000114382691143C2691143026A1143426AF6
:104C40001143826A1143C26A1143026B11434FF050
:104C5000204242F823108168082906D1016802EB3E
:104C600081010B6843F040030B60416BD1E90034D4
:104C700043EA04138C68CD68240244EA05442343C4
:104C80000C6943EA04534C69896943EA04630B43A2
:104C90000168491C42F82130C16AB1F5804F07D044
:104CA00000686FF0704102EB8000C0F8041130BD65
:104CB000816B0068D1E9003443EA04138C680D6904
:104CC000240244EA055423434C69896943EA046396
:104CD00002EB80000B43C0F8043130BD70B5FE4CD0
:104CE0002068010E0120FFF733FC2068C0F3074164
:104CF0000220FFF72DFC2068C0F307210320FFF7F7
:104D000027FC2068C1B20420FFF722FCF34D28687D
:104D1000010E0520FFF71CFC2868C0F307410620A0
:104D2000FFF716FC2868C0F307210720FFF710FCE7
:104D30002868C1B20820FFF70BFC6068010E09204B
:104D4000FFF706FC6068C0F307410A20FFF700FC8C
:104D50006068C0F307210B20FFF7FAFB6068C1B25F
:104D60000C20FFF7F5FB6868010E0D20FFF7F0FB44
:104D70006868C0F307410E20FFF7EAFB6868C0F3DC
:104D800007210F20FFF7E4FB6868C1B21020FFF78E
:104D9000DFFBA068010E1120FFF7DAFBA068C0F36B
:104DA00007411220FFF7D4FBA068C0F307211320AE
:104DB000FFF7CEFBA068C1B21420FFF7C9FBA868BB
:104DC000010E1520FFF7C4FBA868C0F307411620A9
:104DD000FFF7BEFBA868C0F307211720FFF7B8FB59
:104DE000A868C1B21820FFF7B3FBE068010E1920D4
:104DF000FFF7AEFBE068C0F307411A20FFF7A8FBFE
:104E0000E068C0F307211B20FFF7A2FBE068C1B2F6
:104E10001C20FFF79DFBE868010E1D20FFF798FBA3
:104E2000E868C0F307411E20FFF792FBE868C0F373
:104E300007211F20FFF78CFBE868C1B22020FFF795
:104E400087FB2069010E2120FFF782FB2069C0F358
:104E500007412220FFF77CFB2069C0F307212320B4
:104E6000FFF776FB2069C1B22420FFF771FB2869A8
:104E7000010E2520FFF76CFB2869C0F307412620AF
:104E8000FFF766FB2869C0F307212720FFF760FBC7
:104E90002869C1B22820FFF75BFB6069010E292059
:104EA000FFF756FB6069C0F307412A20FFF750FB6C
:104EB0006069C0F307212B20FFF74AFB6069C1B28C
:104EC0002C20FFF745FB6869010E2D20FFF740FB02
:104ED0006869C0F307412E20FFF73AFB6869C0F309
:104EE00007212F20FFF734FB6869C1B23020FFF79C
:104EF0002FFBA069010E3120FFF72AFBA069C0F348
:104F000007413220FFF724FBA069C0F307213320BB
:104F1000FFF71EFBA069C1B23420FFF719FBA86997
:104F2000010E3520FFF714FBA869C0F307413620B6
:104F3000FFF70EFBA869C0F307213720FFF708FB36
:104F4000A869C1B23820FFF703FBE069010E3920E0
:104F5000FFF7FEFAE069C0F307413A20FFF7F8FADD
:104F6000E069C0F307213B20FFF7F2FAE069C1B224
:104F70003C20FFF7EDFAE869010E3D20FFF7E8FA63
:104F8000E869C0F307413E20FFF7E2FAE869C0F3A1
:104F900007213F20FFF7DCFAE869C1B24020FFF7A4
:104FA000D7FA206A010E4120FFF7D2FA206AC0F337
:104FB00007414220FFF7CCFA206AC0F307214320C3
:104FC000FFF7C6FA206AC1B24420FFF7C1FA286A87
:104FD000010E4520FFF7BCFA286AC0F307414620BE
:104FE000FFF7B6FA286AC0F307214720FFF7B0FAA7
:104FF000286AC1B24820FFF7ABFA606A010E492067
:10500000FFF7A6FA606AC0F307414A20FFF7A0FA4B
:10501000606AC0F307214B20FFF79AFA606AC1B2B9
:105020004C20FFF795FA686A010E4D20FFF790FAC1
:10503000686AC0F307414E20FFF78AFA686AC0F336
:1050400007214F20FFF784FA686AC1B25020FFF7AA
:105050007FFAA06A010E5120FFF77AFAA06AC0F326
:1050600007415220FFF774FAA06AC0F307215320CA
:10507000FFF76EFAA06AC1B25420FFF769FAA86A76
:10508000010E5520FFF764FAA86AC0F307415620C5
:10509000FFF75EFAA86AC0F307215720FFF758FA16
:1050A000A86AC1B25820FFF753FA0D4C2178592055
:1050B000FFF74EFA61785A20FFF74AFAA1785B2091
:1050C000FFF746FAE1785C20FFF742FA21795D208C
:1050D000FFF73EFA617905E05C0C0020880C0020A7
:1050E000C4000020BDE870405E20FFF731BA000028
:1050F0002DE9F0430446C56887B0904689460020F4
:1051000002F03AFF064625B1287910B146F00200B8
:1051100001E026F0020002F02FFF2069012558B1BE
:10512000D4E902128DE8260003956388228804687A
:1051300041464846A0471EE0124F134B21463868AF
:105140001B68427CE068984730B9E088012801D0AC
:10515000002001E03868806BA288E388A168009590
:10516000CDE90410CDE902320195638822884146D9
:10517000484607F029FB07B03046BDE8F04302F08F
:10518000FBBE0000E8010020E00100201CB5002467
:10519000019401AC009400F0E7F81CBD2DE9FF4F2D
:1051A00083B0814606988A46A0EB0A08109E00202C
:1051B0000090A2EB09043568934654EA080018D021
:1051C0002046FCF7C6FD07464046FCF7C2FD874275
:1051D0000BDA2046444680464846D1468246584629
:1051E000DDF818B0069001200090002C07DD204665
:1051F00006E007B04846BDE8F04F00F03BB960421A
:10520000A0420AD04846D9466442C8F10008834605
:105210004FF0FF37DDF818A000E001275148B8F142
:10522000000F11D004EBD4714FEA610B01DACBF11E
:10523000000B4C480068807E88B3002F02DA30688B
:105240002044306000257BE000990029016821D0CE
:10525000897E11B10027804615E007B05A464946BD
:105260005046BDE8F04F07F013BC28466D1C18F0FF
:10527000B3F938B9D8F8000009EB0701C06E4268ED
:10528000504690477F1CA742EFDD6D1E356007B08A
:10529000BDE8F08F8A7E1AB10027804617E019E03A
:1052A000C86E5A465146036807B04846BDE8F04FFD
:1052B000184728466D1C18F08FF938B9D8F8001037
:1052C00009EB0700C96E4A68514690477F1CA74208
:1052D000EFDDDAE700250FE008FB05B090FBF4F105
:1052E00001EB0A00009951B11E4A09EB0501126851
:1052F000D26E526890476D1CA542EDDDC7E7194993
:1053000009EB05030968C96E4A6801461846F1E7CA
:1053100008FB05B090FBF4F101EB0A000190306846
:105320003844306018F058F948B9009890B10D48E9
:1053300009EB05010068C06E4268019890476D1C3A
:10534000A542E5DD3068002F01DA20443060C01B43
:1053500030609CE7034909EB05000968C96E4A689B
:105360000199EBE7E80100202DE9FF470F4640498E
:105370001646804609680C981D460A7E012A1CD0F4
:10538000A8EB0600791B50EA01031CD0A2F1010929
:1053900019F0FEF800F58060824604F06FF800FB1B
:1053A00009F4504604F06EF800FB09F1002C0CDA09
:1053B000C4F50070801240420AE00090324639463F
:1053C0004046FFF7EBFEBDE8FF8704F50074A0122E
:1053D000002904DAC1F5007189124C4202E001F59E
:1053E00000718C12002804DD411C01EBD1714910C1
:1053F00003E000EBD0714910401E00EBD07042106A
:10540000002C04DD601C00EBD070401003E004EBC6
:10541000D4704010641E04EBD47308EB0104ADF8A3
:1054200000403C18ADF80240A8EB02045B10B21A31
:10543000ADF80440ADF808203144FC1AEA1AADF882
:105440000C102844ADF80A20ADF80E000023ADF88A
:1054500006401A460421684600F07AF8394640466C
:1054600013F094FD2946304613F090FDABE70000A1
:10547000E8010020064A13681A7E012A05D0521E50
:1054800002EBD272521000F005B8DA6E5268104783
:10549000E80100202DE9F05F0646884640F2C3206F
:1054A00050434FF47A7190FBF1F702FB02F002EBEC
:1054B000D27100EB610B254914467F1C0968324408
:1054C000301BC96E0B684146984701253AE000BF82
:1054D00005FB05F004FB040159451CDDBC4219DD48
:1054E0001A4B06EB050AA6EB05091B68AAF1010297
:1054F00008EB0401DB6E09F101001B689847134BB0
:10550000AAF10102A8EB04011B6809F10100DB6E9E
:105510001B689847641E0D4806EB040AA6EB0409B5
:10552000006808EB05015246C06E0368484698477C
:105530000648A8EB050152460068C06E036848465D
:1055400098476D1CBD42C3DDBDE8F09FE801002017
:105550002DE9FF4F40F6FF740F46664283B09B462D
:10556000814600210BE000BF09EB8100B0F9020089
:10557000A04200DA0446B04200DD0646491CB942AA
:10558000F2DB68480068406900280DD0B0F90610C9
:105590001A46A1EB0B01B14200DA0E46B0F9020047
:1055A000801AA04200DD0446B5E0DFF87CA10020AF
:1055B0000546CAF8000089E0781E854201DA6B1CB6
:1055C00000E0002309EB850C09EB8302BCF9020023
:1055D000B2F90210A04245D1A14215D139F92330C8
:1055E000059A39F9251003EB020C4E4A059812680A
:1055F000084404EB0B01D26E6045136801DA624681
:105600002BE00246604628E02846A4464FF00008FA
:105610007A1E0BE008B1401E00E0781E09EB800303
:10562000B3F90230634504D108F101089045F1DB7C
:105630002346A34249D0A3EB040239F92500A1EB8C
:10564000040C059B92EA0C0209D4364A184404EB78
:105650000B011268D26E13680246984735E010F0CD
:10566000F3FE32E0A14230D001DBA04203DDA042D4
:105670002BDBA14229DCE04688420ADC0346A0423B
:1056800023DC0846A14220DBB8F900C0B2F90010C3
:1056900008E00B46A14218DCA04216DBB2F900C0BC
:1056A000B8F90010E21AA1EB0C0151430029A0EB5C
:1056B000030202DD01EB620102E0A1EB6201491C81
:1056C000C01A91FBF0F06044C9E76D1CBD42FFF6C3
:1056D00073AF0598009004EB0B000190002080460A
:1056E000054613E01149B8F1000F31F915A009D0B2
:1056F000009901EB0A0208440A490968C96E0B685F
:105700000199984788F0010850466D1C06490968C0
:105710008D42E7DB641CB4427FF747AF07B0BDE8BA
:10572000F08F0000E8010020680800207C8700203E
:1057300010B5002002F014FC6FF07F4002F014FC62
:10574000012002F049FC002002F04EFC002002F093
:1057500055FC002002F010FC0448006802F00EFC2A
:10576000BDE81040002002F013BC0000E40100205E
:105770002DE9FC4701211F200AF0F0F902268DF8DF
:10578000056001248DF8044000258DF80650E003E3
:1057900000906946324800F06DF88DF805608DF88C
:1057A00004408DF806504FF4435000902D4F694649
:1057B000384600F05FF88DF805608DF804408DF8EC
:1057C000065041F2C2300090DFF89C8069464046A6
:1057D00000F050F88DF805608DF804408DF8065003
:1057E0004FF440500090DFF884906946484600F03E
:1057F00041F88DF805608DF804408DF80650402082
:10580000009069461A4800F035F88DF805608DF86B
:1058100004508DF80740200200906946384600F099
:1058200029F88DF805608DF804508DF80740E002E6
:1058300000906946404600F01DF864032146484642
:1058400000F06EF84021404600F068F840214046E4
:1058500000F066F82146384600F062F8BDE8FC87A3
:10586000000002400004024000080240000C024018
:1058700000100240F0B5002201274FF0030C07FA98
:1058800002F40B682340A3422DD1046853000CFAA4
:1058900003F5AC4304600C7906689C403443046013
:1058A0000E79012E01D0022E12D18468AC4384609F
:1058B0004C7985689C402C438460456807FA02F463
:1058C000A543456044688D799540ADB22C43446052
:1058D000C56856000CFA06F4A543C560CC799C4017
:1058E000C3681C43C460521C102AC8D3F0BD10B555
:1058F0004B07DB0E9A40C90800EB8100016A0F24B8
:105900009C40A1430162016A1143016210BD02463D
:10591000002012690A4200D001207047418370477D
:105920000183704733B583B0040016D000F040FF08
:105930000190456E01A800F085FF049800F038FF43
:1059400000908460684600F07DFF042204A9284688
:1059500000F09CFF20460FF0ACFC05B030BD33B525
:1059600083B0040016D000F023FF0090856E6846D7
:1059700000F068FF049800F01BFF0190846001A80C
:1059800000F060FF042204A9284600F07FFF2046B3
:105990000FF08FFC05B030BD2DE9F0410446002525
:1059A000D4E90007B0F5407F00D1012521463846F3
:1059B0000EF014FD064615B1384615F024FA002EF7
:1059C0002FD02068052806D00B280ED00F2806D02F
:1059D000262821D10EE0384615F015FA1CE038468D
:1059E000E168BDE8F04115F0B7BB3846BDE8F041CD
:1059F00015F0E7BAE06805280ED138460FF045FBF0
:105A0000A168884205D038460FF036FBA16888426D
:105A100002D1606815F0E5FD2046BDE8F0410FF0C9
:105A200051B9BDE8F081F0B585B0B0F90850468AAB
:105A300084690296CDE903540027CDE90017B0F937
:105A40000C10B0F91050B0F90E40B0F90A0019442A
:105A500010442B46224600F003F805B0F0BD0000CC
:105A60002DE9F04186B00DF1300CDDE90F84BCE882
:105A7000E0006C34DFF850C003948DE860100FF044
:105A800071F804001BD000F03EFF054600F03BFF1C
:105A90000646204600F08CFE0490C0E9195600220C
:105AA00041460EF0BFFE0498302208493430FAF720
:105AB0000CFE0498A0F8787004A800F0C3FE06B0AD
:105AC0002046BDE8F08100009959000888040020B4
:105AD00003B583B000F06CFE009060B1406A00F046
