:020000040800F2
:10000000488E012095020008B7EC0008359A0008D8
:10001000B5EC000819220008455501080000000051
:10002000000000000000000000000000C1250108E1
:10003000E73C000800000000F10901080D37010845
:10004000AF020008AF020008AF020008AF020008CC
:10005000AF020008AF020008AF020008AF020008BC
:10006000AF020008AF020008AF020008AF020008AC
:10007000AF020008AF020008AF020008AF0200089C
:10008000AF020008AF020008AF020008AF0200088C
:10009000AF020008AF020008AF020008AF0200087C
:1000A000AF020008AF020008AF020008AF0200086C
:1000B000AF0200081D3C01085D3E0108AF020008C8
:1000C000AF020008AF020008AF020008AF0200084C
:1000D000AF020008B9500108AF0200080D52010834
:1000E000AF020008AF020008AF020008AF0200082C
:1000F000AF020008AF020008AF020008AF0200081C
:10010000AF020008AF020008AF020008AF0200080B
:10011000AF020008AF020008E13F0108AF0200088B
:10012000093B0008AF020008AF020008AF02000858
:10013000AF020008AF020008AF020008AF020008DB
:10014000AF020008AF020008AF020008FDF500088A
:10015000AF020008AF020008AF020008AF020008BB
:10016000AF020008AF020008AF020008AF020008AB
:10017000AF020008AF020008AF020008AF0200089B
:10018000AF020008AF02000800F002F800F072F8B9
:100190000AA090E8000C82448344AAF10107DA45E2
:1001A00001D100F067F8AFF2090EBAE80F0013F0C2
:1001B000010F18BFFB1A43F00103184784280400FD
:1001C000A42804000A444FF0000C10F8013B13F07F
:1001D000070408BF10F8014B1D1108BF10F8015BA0
:1001E000641E05D010F8016B641E01F8016BF9D193
:1001F00013F0080F1EBF10F8014BAD1C0C1B09D1EA
:100200006D1E58BF01F801CBFAD505E014F8016B5B
:1002100001F8016B6D1EF9D59142D6D370470000ED
:100220000023002400250026103A28BF78C1FBD8FF
:10023000520728BF30C148BF0B607047662926F0BF
:100240003680642900F08480002070471FB526F0B6
:1002500024F800F0CFFD04000020002125F0C8FAAA
:10026000401C60600020002125F0ACFAE0601FBD5A
:1002700010B510BD00F00AFF1146FFF7E7FF24F0AC
:10028000ADFE00F036FF03B4FFF7F2FF03BC00F051
:1002900077FF00000948804709480047FEE7FEE76E
:1002A000FEE7FEE7FEE7FEE7FEE7FEE7FEE7FEE726
:1002B00004480549054A064B70470000D537010838
:1002C0008901000848880020488E0120480A012042
:1002D000480A01200FB41CB5074B06AA7B446946A7
:1002E0000090059800F0CBFC0020694600F0DAFC95
:1002F0001CBC5DF814FB0000C509000070B5044685
:1003000085690068C10601D5302600E02026C007B7
:1003100008D070BDD4E9012130469047206A00F131
:10032000010020626D1EF5D570BD70B5044685696B
:100330000068C00708D170BDD4E901212020904792
:10034000206A00F1010020626D1EF5D570BD00002D
:100350002DE9F0410746002510687529394616A495
:1003600011D0AFF30080002803DAC0F1000013A41D
:1003700007E039688A0701D511A402E0490704D5CE
:1003800010A4012501E0AFF3008000210A2307F14A
:10039000240607E0B0FBF3F203FB12003030705488
:1003A0001046491C0028F5D12B4622463846BDE8A8
:1003B000F04100F0F3B90000000000002D00000043
:1003C0002B000000200000002DE9F05F0446894664
:1003D0004FF0000ADFF828B1FB44C0F820A0204607
:1003E000E168884700287CD0252806D0D4E901217F
:1003F0009047206A401C2062F1E700255F462046B6
:10040000E16888472028064608DB312E06D207EB34
:10041000060010F8200C08B10543F0E7A80701D545
:1004200025F00405C4F81CA00027C4F818A02A2E43
:1004300009D0304624F080FC38B304EB8708303E06
:10044000C8F8186019E059F8041B204604EB87022D
:100450009161E1688847012F064618D1E0690028BC
:1004600020DA25F020051DE0D8F8180000EB800008
:1004700006EB40003038C8F818002046E16888478D
:10048000064624F059FC0028EED1012F0AD02E2E6A
:1004900008D12046E16888477F1C0646022F45F0B8
:1004A0002005C4DBA069002803DA404245F00105BD
:1004B000A061E80701D025F0100596B1A6F1410032
:1004C000192802D8203645F400654A4631462046B0
:1004D00025604D46FFF7B2FE60B1012807D0ED1D43
:1004E00000E009E025F0070000F1080977E705F1D1
:1004F000040974E7304679E7206ABDE8F09F000000
:100500009025040070B5064600F044F904680546DD
:1005100030460A22002100F0CAFB2C6070BD40EA80
:100520000103024630B59B0710D14FF0013400E0C3
:1005300008C208C91D1B9D4315EAC41FF8D013F05B
:10054000FF0102F8011B0DD01B0AF8E711F8013B6F
:10055000002B02F8013B05D011F8013B002B02F8FB
:10056000013BF3D130BD10B5431C02E010F8011B74
:1005700071B18107FAD14FF0013202C88C1A8C4355
:1005800014EAC211F9D0C01A0A0603D0C01E10BD69
:10059000C01A10BD0A0401D0801E10BD0902FCD093
:1005A000401E10BD421E12F8013F002BFBD111F876
:1005B000013B002B02F8013BF9D17047032A40F2BE
:1005C000308010F0030C00F0158011F8013BBCF1F5
:1005D000020F624498BF11F801CB00F8013B38BF0D
:1005E00011F8013BA2F1040298BF00F801CB38BF1B
:1005F00000F8013B11F0030300F06780083AC0F0F7
:10060000088051F8043B083A51F804CBA0E80810E0
:10061000F5E7121D5CBF51F8043B40F8043BAFF313
:100620000080D20724BF11F8013B11F801CB48BF6D
:1006300011F8012B24BF00F8013B00F801CB48BFA3
:1006400000F8012B7047431A28BF9A427FF6B6AFD5
:10065000032A1044114440F2268010F0030F1EBFFD
:1006600011F8013D521E00F8013D10F0030F7FF418
:10067000F6AF11F0030300F06583083AC0F00B8079
:1006800051F8043D083A51F804CD40F8043D40F8D3
:1006900004CDFFF7F3BF121D5CBF51F8043D40F8D5
:1006A000043DAFF30080D20724BF11F8013D11F8DB
:1006B00001CD48BF11F8012C24BF00F8013D00F81E
:1006C00001CD48BF00F8012C704710B5203AC0F0AA
:1006D0000B80B1E81850203AA0E81850B1E8185043
:1006E000A0E81850BFF4F5AF5FEA027C24BFB1E880
:1006F0001850A0E8185044BF18C918C0BDE81040F1
:100700005FEA827C24BF51F8043B40F8043B08BFF9
:100710007047D20728BF31F8023B48BF11F8012BC0
:1007200028BF20F8023B48BF00F8012B704702F0B9
:10073000FF0343EA032242EA024200F02FBB4FF0DC
:10074000000200B5134694469646203922BFA0E821
:100750000C50A0E80C50B1F12001BFF4F7AF09072D
:1007600028BFA0E80C5048BF0CC05DF804EB89001E
:1007700028BF40F8042B08BF704748BF20F8022B61
:1007800011F0804F18BF00F8012B70477047704779
:100790007047000000487047E48700202DE9F047CB
:1007A0000D4604469246994600F1240801688806E1
:1007B00004D5E06921F01001216000E00120A84289
:1007C00002DDA0EB050700E00027A16907EB0502A9
:1007D00002EB0900A1EB0000A0612068C00602D472
:1007E0002046FFF78BFD002608E0D4E901211AF826
:1007F00006009047206A401C761C20624E45F4DBC0
:100800002068C0060AD52046FFF778FD06E0D4E947
:10081000012130209047206A401C2062381EA7F139
:100820000107F4DC07E0D4E9012118F8050090473E
:10083000206A401C2062281EA5F10105F3DC204639
:10084000FFF773FD2068000602D50220BDE8F0879F
:100850000120FBE770472DE9FF4F0C461E464FF085
:10086000FF378BB0D2E90001DDF860800A908A463C
:10087000C1F30A5505B93D46002108464FF0000076
:10088000BAF1000F00F4400005DA00EB80004FF4ED
:10089000400101EA50004FEA9059B9F1010F00DD23
:1008A000B9460A9850EA4A000FD044F61050A5F213
:1008B000FF3545432F14B8F1000F1FD07542291E94
:1008C0001FDD4846C9F100021CE0B8F1010F4FF0EE
:1008D000000001D1F24307E0302101E02154401C27
:1008E000B042FBDB30460022002121540B99C1F8B5
:1008F0000880C1E900200FB0BDE8F08FBD1B6D1C62
:10090000DDE74A4600DA694206A800F04DFB06AB77
:1009100007CB03AB07C350460A9900F038FC8DE8BB
:100920000700A0F500501F3800900398002D09DD46
:1009300042F21F014A46084403A90390684600F0AA
:1009400097FE08E0A0F500504A461F3803A903901F
:10095000684600F0A1FE8DE807000004000C03D0FB
:100960004FF0FF30410800E01046B8F1000F03D00F
:100970000022009215461FE0751E06D400F03EFAD4
:1009800002F1300262556D1EF8D5B34601220843CC
:1009900002D000227F1C04E02078302801D1002200
:1009A0007F1E002A099786D01DE0112D07DA00F07E
:1009B00025FA303262556D1C50EA0102F5D1084328
:1009C0000FD10021681E05E0235C625C6354491C62
:1009D0002254401E8142F7DBAB46A81B401E099003
:1009E00001E0009848B1002004F80B000B98099A28
:1009F000C0F80880C0E9002B7DE711264FF0000801
:100A000059E72DE9F04F88460446D21D22F0070130
:100A100091B0D1E90001CDE90A011EF01BFF0246A9
:100A20000B98C00F01D02D2007E02068810701D569
:100A30002B2002E0202101EAC000032A099001D006
:100A4000072A05DB03464146204600F01DFA0EE169
:100A50002068800601D5E06900E00620B8F1650F46
:100A6000814606D0B8F1660F18D0B8F1670F72D181
:100A700032E00020B9F1110F009001DB112301E0F9
:100A800009F101030AAA01A90CA8FFF7E4FEDDE9B8
:100A90000C70002609F10105834648E001204B4611
:100AA00000904FF000470AAA01A90CA8FFF7D3FE57
:100AB000DDE90C050E990026AB4619B909F10101D3
:100AC00000EB0105B9EB050003D4C0F1FF3609F1D5
:100AD0000105A5EB09002BE0B9F1010F01DA4FF098
:100AE00001090020B9F1110F0090484601DD1123E2
:100AF00000E003460AAA01A90CA8FFF7ACFEDDE955
:100B00000C704D4600268346206800070AD4AB458A
:100B100000DA5D4601A8012D04DD411911F8011C20
:100B2000302907D04F4502DA17F1040F04DA01200B
:100B3000824610E06D1EEEE7002F02DCED1B3E4406
:100B400003E0781CA84200DD0546A7EB060000F193
:100B5000010A4FF000472068000703D4AA4501DBD3
:100B60004FF0FF3A0021B7F1004F0DF143088DF827
:100B7000431022D002202B23002F01DA7F422D23A5
:100B80000A22011EA0F1010000DC4FB197FBF2F137
:100B900002FB117C0F460CF1300C08F801CDF0E798
:100BA000A8F1010003702168090501D5452100E085
:100BB0006521A0F1010800F8011C09980FA9A1EB1B
:100BC000080707F1070700B1012000EB050101EB61
:100BD000EA70A1693844A1EB0000A0F10100A06116
:100BE0002068C00602D42046FFF788FB099830B180
:100BF000D4E901219047206A00F1010020622068B9
:100C0000C00620D52046FFF779FB1CE0002E04DB50
:100C1000B34502DD01A8805D00E03020D4E9012168
:100C20009047206A761C401CBAF1010A20620AD162
:100C300000F0E0F8C0680168405CD4E90121904709
:100C4000206A401C2062281EA5F10105DEDC07E0B9
:100C5000D4E9012118F8010B9047206A401C20625A
:100C6000381EA7F10107F3DC2046FFF75EFB0220E8
:100C700011B041E601694A1C02610878704700B56D
:100C80008FB0CDE901310021059105497944CDE9C5
:100C9000031011466846FFF797FB0FB000BD000038
:100CA000E5FFFFFF0A6802F8010B0A6070472DE9B3
:100CB000F0470F46914680460446002614F8015B33
:100CC0002DB100F08FF80068405DC007F6D12B2DE4
:100CD00002D02D2D18D0641E4A463946204600F019
:100CE00013F927B13968A14201D1C7F800804FF04C
:100CF000020471050BD54042002803DDFFF74AFDD1
:100D00000460A007BDE8F08746F48066E4E70028A9
:100D1000F8DAFFF73FFD04606FF00040F2E7431A96
:100D200028BF9A427FF6D1AC104410F0030F114453
:100D30001EBF11F8013D521E00F8013D10F0030FD7
:100D40007FF4F6AF103AC0F00A8010B531E91850C0
:100D5000103A20E91850BFF4F9AFBDE8104053072E
:100D600024BF31E9081020E9081044BF51F8043DC0
:100D700040F8043D12F0030F08BF7047D20728BFA8
:100D800031F8023D48BF11F8012C28BF20F8023D80
:100D900048BF00F8012C70474FF000020429C0F052
:100DA000128010F0030C3FF4CCACCCF1040CBCF17D
:100DB000020F18BF00F8012BA8BF20F8022BA1EBEF
:100DC0000C01FFF7BEBC5FEAC17C24BF00F8012B19
:100DD00000F8012B48BF00F8012B7047004870470E
:100DE000E487002010B500F005F8001D10BD00BF1D
:100DF000014A0200004870470488002030B5B0F175
:100E00000A024FEA900E71F100034EEA817EB0EBC8
:100E10000E0061EB91014FEA101E4EEA017E10EBCD
:100E20000E0041EB11114FEA102E4EEA016E10EB4D
:100E30000E0041EB11214FEA104E4EEA014E10EB2D
:100E40000E0041EB1141401841F100014FEAD00082
:100E500040EA41704FEAD10110EB80054FEA81046E
:100E600044EA907444EB01046D1944EB0404521BF2
:100E7000A3414FF0000348BF0A3200D530BD401CEB
:100E800041F1000130BD00002DE9F04104461F464C
:100E900003260168072A01F4006004DB08B116A5E7
:100EA00005E016A503E008B115A500E015A521F0A1
:100EB00010002060A069C01EA0610FB1401EA0619B
:100EC0002046FFF71BFA4FB1D4E90121384690477D
:100ED000206A401C2062C01C206206E0206AFAE7FB
:100EE000D4E9012115F8010B9047761EF8D220466F
:100EF000FFF71BFABDE8F0814E414E006E616E00B7
:100F0000494E4600696E66002DE9F05F82468B46C9
:100F1000154600270AF10104B9460078302801D0AF
:100F20009DB113E014F8010B0127782803D058284D
:100F300001D045B10AE00DB1102D07D1002714F8FA
:100F4000010B102502E0082500E00A250026B04626
:100F50000EE005FB080005FB06F101271FFA80F8EB
:100F600001EB1046B6F5803F00D3B94614F8010BEB
:100F7000294600F0B0F80028EBDABBF1000F05D0ED
:100F80000FB1641E00E05446CBF80040B9F1000FE9
:100F900006D0FFF7FFFB02210160C81EBDE8F09FED
:100FA00048EA0640FAE700002DE9F0478146164678
:100FB0008AB035487844D0E9002380680092CDE9B2
:100FC0000130314878440C38D0E90223006903929B
:100FD0004FF03702CDE9043041F69B30014491FBDC
:100FE000F2F0A0F1800502FB10141B3C02D5644214
:100FF000012000E00020DFF890A080460027FA449E
:10100000AAF1C60A0DE0E00709D03246684607EBB0
:1010100047010AEB810100F03FFB8DE807006410F7
:101020007F1C002CEFD1184F7F44B43F17E0E80736
:1010300013D007EB04100DF1180A90E80E00AAE88F
:101040000E00C068F04201D198190890324606A9F6
:1010500003A800F021FB03AB07C36D10641C002D37
:10106000E5D132466946B8F1000F03A802D000F07E
:10107000FFFA01E000F010FBC9E90001C9F80820FF
:101080000AB0BDE8F0870000441A04007546FFF777
:10109000A5FEAE4605006946534620F0070085468A
:1010A00018B020B5FFF704F9BDE820404FF0000666
:1010B0004FF000074FF000084FF0000B21F0070140
:1010C000AC46ACE8C009ACE8C009ACE8C009ACE883
:1010D000C0098D4670473A2800D2303820F02002EF
:1010E000412A01D3A2F13700884201D34FF0FF30EB
:1010F00070470446AFF300802046FFF7C4F80000B5
:101100004FF0013C50F8042B51F8043B9A4221D196
:10111000A2EB0C03934313EACC1317D150F8042B22
:1011200051F8043B9A4215D1A2EB0C03934313EA06
:10113000CC130BD150F8042B51F8043B9A4209D13F
:10114000A2EB0C03934313EACC13DBD04FF0000067
:10115000704700BFD01A01BAB1FA81F101F018014D
:1011600022FA01F0CB40C1F12001DBB2C0B2C01ABB
:101170002CFA01F3D11A914311EAC311E6D1704759
:1011800001491820ABBEFEE72600020070475FEA67
:10119000400C08BF91F0000F4FEA8C234FEAC122A8
:1011A00043EA51514FEA1C5018BF00F5F0404FEA96
:1011B000300018BF41F000415FEA6C5C00F029800C
:1011C000BCF1FF3F08BF40F080407047130C06BFE2
:1011D00012044FF0100C4FF0000C130E04BF12025B
:1011E0000CF1080C130F04BF12010CF1040C930F47
:1011F00004BF92000CF1020CD30F04BF52000CF19B
:10120000010C11464FF00002A0F11F00A0EB0C00F2
:10121000704711F0004F08BF704731F000413FF4B4
:10122000D5AF0B0C06BF09044FF0100C4FF0000CAB
:101230000B0E04BF09020CF1080C0B0F04BF0901CF
:101240000CF1040C8B0F04BF89000CF1020CCB0FC6
:1012500004BF49000CF1010CCCF12003A0EB0C0001
:1012600022FA03F302FA0CF241EA030100F1010051
:10127000704720F07F4C80EA030023F07F47ACEBFF
:10128000070303F57C5300F0004003F1FF032DE951
:1012900080494FEA154B09B44FEA144325EA0B4E37
:1012A00024EA03480FF2042606EB132749083E7888
:1012B0005FEA320203FB0667C7F5000707FB06F685
:1012C0004FEA54374FEAD64606F1020607FB066C92
:1012D000CCF1005C4FEA1C472CEA074C07FB06F4F4
:1012E0000CFB06F504EB15464FEA961634BF0020BA
:1012F0004FF000404FEAD13706FB07FC4FEA1C4C89
:101300000CFB0BF7D21B03FB0CF761EB07010CFB8B
:101310000EF7B0EB074072EB17420CFB08F734BF37
:10132000A2EB0742B2EB074261EB17414FEA0C44D4
:101330004FEA910706FB07FC4FEA1C4C0CFB0BF72E
:10134000B0EBC74072EB573203FB0CF734BFA2EB94
:10135000C742B2EBC74261EB57310CFB0EF7B0EB63
:10136000C70072EB57720CFB08F734BFA2EBC70241
:10137000B2EBC70261EB5771039F4FEA816141EA0B
:10138000921104EBCC044FEAD1374FEA826206FB9C
:1013900007FC42EA90124FEA80604FEA1C4C0CFBBB
:1013A0000BF7D21B03FB0CF761EB07010CFB0EF7ED
:1013B000B0EB074072EB17420CFB08F734BFA2EB0F
:1013C0000742B2EB074261EB17414FEA8C554FEAF7
:1013D000910704EB9C2406FB07FC4FEA1C4C0CFB1A
:1013E0000BF7B0EBC74072EB573203FB0CF734BF7F
:1013F000A2EBC742B2EBC74261EB57310CFB0EF7D1
:10140000B0EBC70072EB57720CFB08F734BFA2EBCE
:10141000C702B2EBC70261EB577115EB4C254FEADF
:10142000816141EA92114FEA82624FEAD13742EA82
:10143000901206FB07FC44F100044FEA80604FEA7B
:101440001C4C0CFB0BF7D21B03FB0CF761EB0701E9
:101450000CFB0EF7B0EB074072EB17420CFB08F7E2
:1014600034BFA2EB0742B2EB074261EB174115EB29
:101470001C154FEA813141EA92414FEA823242EA39
:1014800090424FEA80304FEA0C7644F1000448EA7B
:1014900003434EEA0B484FF0000EB2EB080C71EB21
:1014A000030724BF624639464EEB0E0E4FF0000B89
:1014B0000018524149414BEB0B0BB2EB080C71EB9E
:1014C00003077BF1000B24BF624639464EEB0E0E3C
:1014D0004FF0000B0018524149414BEB0B0BB2EBA4
:1014E000080C71EB03077BF1000B24BF6246394601
:1014F0004EEB0E0E51EA020718BF46F0010616EB3E
:101500000E7655F1000254F1000103D5BDE88901C2
:10151000BDE80088BDE88901BDE80048B619524120
:1015200041EB0101A3F10103704780807F7E7D7C48
:101530007B7A7978777676757473727171706F6E65
:101540006E6D6C6C6B6A6A69686867666665646410
:10155000636362616160605F5F5E5E5D5D5C5C5B9A
:101560005B5A5A5959585857575656555555545409
:10157000535352525251515050504F4F4F4E4E4D67
:101580004D4D4C4C4C4B4B4B4A4A4A4949494848B3
:1015900048474747474646464545454444444443F3
:1015A00043434342424242414141002B26D477000B
:1015B00021D01CB54FEA370703B44FF010004FF0AD
:1015C00010014FF000000FBCBDE810400BF1010B03
:1015D000BBF1010F08BF5FEA170722BF12F101023A
:1015E00011F101014FF0004143F1000300F0004010
:1015F00043EA00007047F9D35708DAE746EA06469F
:1016000013F1400F4FEA16461FDD13F1200FDFBF25
:1016100016430A46002120335B42C8D0C3F120079D
:1016200046EA064602FA07F74FEA164646EA070672
:10163000C3F1200722FA03F201FA07F721FA03F1B6
:101640004FF0000342EA0702B1E746EA020646EA23
:1016500006464FEA164646EA0106BCBF46EA06467B
:10166000360C4FF000034FF000024FF000019EE7F0
:101670002DE9C048934630B491E8380007C831EAF4
:10168000400C48BF34EA430C03D5FFF7F2FDFFF7E7
:101690008CFFF0BCBDE800882DE9C048934630B40B
:1016A00091E8380007C810F0804F08BF13F0804F52
:1016B00003D100F005F8FFF778FFF0BCBDE8008823
:1016C00020F07F4780EA030023F07F4C07EB0C03F8
:1016D000A3F57C5300F00040A3F1FE0392F0000F4D
:1016E00000F0B38095F0000F00F077802DE90149FC
:1016F0004FEA11404FEA144621EA004800FB06FC7D
:1017000024EA064708FB06F607FB08F800FB07F784
:1017100018EB06484CEB164C4FEA124B18EB0748F7
:101720004FEA15464CEB174022EA0B4E0BFB06FC2A
:1017300025EA06470EFB06F607FB0EFE0BFB07F736
:101740001EEB064E4CEB164C4FF000061EEB074E00
:101750004CEB174B18EB0B0840F1000018EB0E0B8D
:1017600058EB000840F100008F1A4FF000013CBF19
:10177000C943661B14BFB5EB040C00213CBFC94331
:10178000F61B4FEA17444EEA8E0E27EA04454FEA4D
:101790001C4704FB07622CEA074C05FB07F70CFB10
:1017A00005F604FB0CFC16EB074642EB174216EB62
:1017B0000C4642EB1C421BEB060658EB0202414171
:1017C00046EA9E0601D5BDE80189B619524141EBB2
:1017D0000101A3F10103BDE801894FEA14454FEA75
:1017E000114724EA054621EA074C05FB07F406FBEE
:1017F00007F70CFB06F105FB0CFC11EB074144EB72
:1018000017444FEA124711EB0C4144EB1C4422EA07
:10181000074C05FB07F206FB07F70CFB06F605FB7A
:101820000CFC16EB074642EB174216EB0C4642EB5C
:101830001C456A1854F1000148BF7047B61952415F
:1018400041EB0101A3F10103704795F0000F37D080
:101850004FEA11424FEA144721EA024624EA074CB4
:1018600002FB07F106FB07F70CFB06F402FB0CFC7E
:1018700014EB074441EB17414FEA154714EB0C44B6
:1018800041EB1C4125EA074C02FB07F506FB07F775
:101890000CFB06F602FB0CFC16EB074645EB174566
:1018A00016EB0C4645EB1C42121951F1000148BFE2
:1018B0007047B619524141EB0101A3F10103704792
:1018C0004FEA14454FEA114724EA054621EA074C3E
:1018D00005FB07F106FB07F70CFB06F24FF00006CD
:1018E00005FB0CFC12EB074241EB174112EB0C42DB
:1018F00051EB1C4148BF7047921841EB0101A3F125
:10190000010370472DE9F0419CB04FF4807801212C
:1019100040460FF011F9012188050FF0E9F804277E
:10192000019703258DF8085000248DF80B40454E93
:1019300001A9304604F044F9082001908DF80850C0
:101940008DF80B4001A9304604F03AF9402001908F
:101950008DF808508DF80B4001A9304604F030F99D
:10196000012601968DF808508DF80B4001A93648E4
:1019700004F026F903943548049035480590069400
:10198000C82007900894B002099040000A90800097
:101990000B90CDF8308000010D900E940F961094AE
:1019A00011942C4D03A9284602F0FAF8012128468B
:1019B00002F0D2F801221021284602F0D8F802F0F5
:1019C0008DF8224D01214C3D284600F043F9129438
:1019D00013941494159412A800F024F916948DF819
:1019E0005C608DF85D6019941A948DF86C7016A97E
:1019F000284600F045F9042301220221284600F080
:101A000065F9002302220321284600F05FF9002334
:101A100003220621284600F059F900230422082158
:101A2000284600F053F90121284600F0EFF8284637
:101A300000F08AF90121284600F017F91CB0BDE832
:101A4000F081000000000240000402404C200140F0
:101A5000D8080020106402402DE9F0430020684CB3
:101A6000684A04F5C87604F5FA7704F5167504F5A6
:101A70002F7336E081070BD000F00301022911D04B
:101A80006FEA000C5FEA8C7C16D001291ED026E09C
:101A900034F81080117801F1010C82F800C026F8AA
:101AA00011801CE034F810C0517801F1010882F86F
:101AB000018023F811C012E034F810C0917801F1D0
:101AC000010882F8028027F811C008E034F810C03D
:101AD000D17801F1010882F8038025F811C0401C7B
:101AE00080B2C828C6D30024147054709470D47087
:101AF0000021002004E036F810C06144401CC0B250
:101B00003228F8D35079DFF8008132264FF0130CD9
:101B1000142806D2B1FBF6F0517928F81100002103
:101B20000EE00021012004E038F810904944401CE8
:101B3000C0B21328F8D3B1FBFCF09081002154719E
:101B40005079401C5071002004E037F81080414467
:101B5000401CC0B23228F8D310792B4F283F1428EC
:101B600006D2B1FBF6F0117927F8110000210FE041
:101B70000021012004E037F810804144401CC0B22D
:101B80001328F8D31220B1FBF0F05081002114711A
:101B90001079401C1071002004E035F810703944B1
:101BA000401CC0B23228F8D39079174D283514283C
:101BB00006D2B1FBF6F0917925F8110000210EE074
:101BC0000021012004E035F810703944401CC0B2F7
:101BD0001328F8D3B1FBFCF0D081002194719079E7
:101BE000401C9071002004E033F810402144401C58
:101BF000C0B23228F8D3B1FBF6F01081BDE8F08313
:101C0000D80800205C000020200C002021B1816851
:101C100041F0010181607047816821F0010181601C
:101C20007047000010B5094C2268094902EA010218
:101C3000D0E9001341EA0301D0E9023043EA00038E
:101C400041EA030141EA0201216010BD0423014081
:101C5000E030FCFF21B1816841F480718160704700
:101C6000816821F480718160704721B1816841F4FD
:101C7000007181607047816821F400718160704754
:101C800030B542680F4B1A400C790B6842EA0422C7
:101C90001343436083680C4A1340D1E90342224353
:101CA0004D798C6844EA450422431A438260C26A33
:101CB00022F47002097D491EC9B242EA0151C16293
:101CC00030BD0000FFFEFFFCFDF7FFC070B507262A
:101CD00009290ED9D0F80CC0A1F10A0404EB440480
:101CE000A6402CEA060CA3404CEA030CC0F80CC03A
:101CF00007E0056901EB4104A640B543A3401D433D
:101D000005611F23072A09D2446B521E02EB82028F
:101D100093409C4391400C43446370BD0D2A09D20B
:101D2000046BD21F02EB820293409C4391400C4310
:101D3000046370BDC46A0D3A02EB820293409C4377
:101D400091400C43C46270BD816841F08041816064
:101D50007047002800DC40427047000010B50C4876
:101D60000068400612D40B4C206841070ED50206CD
:101D700009484FF4007103D4BDE8104003F076BF6A
:101D800003F072FF206820F00400206010BD000006
:101D90003C0000203400002000080240054908688B
:101DA00040F00400044B00221A8020F080000860FC
:101DB00070470000340000207C00002038B54568E2
:101DC00004460146284613F0E1FB00282AD020688B
:101DD000304A0F2819D006DC0B2824D00C2810D04C
:101DE0000E2851D12FE0112802D028284CD145E0EF
:101DF0009268002A16D02146284601B0BDE830403E
:101E00001047214628465268F7E7284604F076FE38
:101E10000090406E0468684604F0BAFE002C01D0C1
:101E20002846A04738BD284604F068FE0090683078
:101E300004F0CCFD009803216C3004F0CFFD68461F
:101E400004F0A6FE20E0E168486809680D2902D088
:101E5000202913D105E0002810DD28461AF012FBD6
:101E600006E0002804DD2846BDE838401AF00ABB29
:101E70002846BDE8384002211AF01ABBE06818B9BC
:101E80000021284600F097F92046BDE8384013F0BD
:101E9000F1BF00004C020020F0B5044685B0806917
:101EA000B4F90850668A0027CDE90265CDE900172C
:101EB0000490B4F90C00B4F91060C118B4F90A0028
:101EC000B4F90E50104433462A4600F007F8054690
:101ED000616800F079F905B02846F0BDF0B585B02D
:101EE0000C46DDE90D514C31DFF850C0DDE90A67E1
:101EF000CDE902C12146CDE9006713F00BFF0400D4
:101F000018D004F0FBFD10222946049013F062FD66
:101F1000049830220A493430FEF7D7FB084D049963
:101F20000C3D2868486604A804F032FE2868416821
:101F30002046884705B02046F0BD0000BD1D0008C2
:101F400058020020F0B5044680688B4989B051F8EA
:101F50002050606800287DD0052804D006287AD05B
:101F6000122879D1AEE0E86900284FD095E80E003C
:101F70008DE80F0004F110010FC907F031F90026B8
:101F800055F8260006F096F9A169E8690A1A216950
:101F900001446069304405F033FBA169E8690A1A1D
:101FA00021690144E069801B05F02AFBE169E869C9
:101FB0000A1A616901442069304405F0C1FBE169F6
:101FC000E8690A1A61690144A069801B05F0B8FB41
:101FD000761C022ED4DBA86806F06CF9E069E9698A
:101FE0006669431A20694218521E3144801C05F06C
:101FF00011FCE169E869A2690B1A61690144101AD0
:10200000401C921E05F006FCEE6913E05FF000062E
:1020100055F8260006F04EF9E069831BA069821B83
:10202000606981192069304405F04CFB761C022E52
:10203000EEDB0226D5E90301CDE900016169E06923
:1020400008444310A069891C821B2069304405F0B4
:102050007FFA02E089E012E08AE0D5E90501CDE9E6
:102060000001E36960690121184401EB6001A06986
:102070009B1E821B2069304405F06AFA78E02068D4
:1020800004F03CFD0490206814F024FF40B1A068E7
:1020900008B1002008E00498006F28B1012003E097
:1020A0000498406F00B10220049901EB8000C56ED6
:1020B00004A804F06DFD00231A462846216804F0A8
:1020C000F9FF55E0206804F019FD0490866EEEB328
:1020D000B0F95C70A168D1B3032942D05FF0000170
:1020E00000EB8101406D0C6C06F0EEF8204606F026
:1020F000E1F805A805F0DEFBBDF81410A88B01443B
:10210000ADF81410BDF81810081AADF81800BDF895
:102110001600801CADF81600BDF81A00801EADF840
:102120001A0004985E30B0F90220B0F9001005A83A
:1021300006F01EF804A804F02BFD022006F004F9B6
:10214000304604F0DBFC3A4605A901E00BE006E06E
:10215000079005F0A7F807A804F01AFD08E0012190
:10216000BEE70221BCE704A8F6E7206814F076FB7E
:1021700009B00020F0BD0000D0F20308044A034972
:10218000116004494A6A486210467047880200207C
:102190004C0200205802002038B50D46040009D03A
:1021A00004F0ACFC00904565684604F0F1FC204664
:1021B00014F057F938BD4FF480720029114601D050
:1021C00013F06EBA13F0BFB92DE9FF410E460500BA
:1021D0004FF001041CD004F091FC0190876E01A81F
:1021E000009704F0D5FC3146684607F0D9FA78B17B
:1021F00000980024B84208D0284604F07FFC0190E3
:102200000099816601A804F0C3FC284614F029F95E
:1022100004B02046BDE8F081FEE700002DE9F05F44
:102220007C4D29787C486FF07046193937118269E6
:1022300040F66F044FF4076840F6770940F6780AD5
:1022400040F6710B0C2925D2DFE801F00626456423
:102250002424242483A324C481462146104613F059
:1022600017FF04463146204611F07CFB39462046D4
:1022700011F0CAFB4146D9F8180013F009FF0446D3
:102280006649204611F06EFB0021204611F0BCFB90
:102290001A202870BDE8F09F41468046104613F092
:1022A000F7FE04463146204611F05CFB39462046D5
:1022B00011F0AAFB4946D8F8180013F0E9FE0446CD
:1022C0005649204611F04EFB0021204611F09CFBA0
:1022D0001B202870DEE780464946104613F0D8FEE2
:1022E00004463146204611F03DFB3946204611F0A8
:1022F0008BFB5146D8F8180013F0CAFE0446474934
:10230000204611F02FFB0021204611F07DFB1C2000
:102310002870BFE780465146104613F0B9FE0446C8
:102320003146204611F01EFB3946204611F06CFB69
:102330005946D8F8180013F0ABFE0446374920463A
:1023400011F010FB0021204611F05EFB21202870C7
:10235000A0E780465946104613F09AFE04463146DF
:10236000204611F0FFFA3946204611F04DFB40F6A9
:102370007901D8F8180013F08BFE0446274920464F
:1023800011F0F0FA0021204611F03EFB22202870C7
:1023900080E7804640F67901104613F079FE044646
:1023A0003146204611F0DEFA3946204611F02CFB6A
:1023B00040F67201D8F8180013F06AFE0446174977
:1023C000204611F0CFFA0021204611F01DFB2420F9
:1023D00028705FE7814640F67201104613F058FE00
:1023E00080463146404611F0BDFA3946404611F06C
:1023F0000BFB2146D9F8180013F04AFE04460749A2
:10240000204611F0AFFA0021204611F0FDFA192004
:1024100028703FE763010020A0010020FFFFBF00FC
:10242000F0B52DED028B83B0B0480178B04A9FED36
:10243000B10AB14D00260127A869192938D0DFED6E
:10244000AF0A1A297ED0AE4A1B297CD01C292BD179
:10245000A97B40F678031C1D022975D0A97B0129B0
:1024600022D1D18800EE101AB8EE400A80EE208A00
:10247000194613F00DFEA3A111F0A1FA2146A86997
:1024800013F006FE044618EE100A23F095FE41EC08
:10249000100BA0A153EC102B01A8FDF71BFF01A905
:1024A000204611F08CFAAE7303B0BDEC028BF0BD88
:1024B000E97A40F66F031C1D012927D0E97A022929
:1024C000F2D1D2F8801000EE901AF8EE600A80EE99
:1024D000808A194613F0DCFD90A111F070FA2146B4
:1024E000A86913F0D5FD044618EE100A23F064FE27
:1024F00041EC100B8DA153EC102B01A8FDF7EAFE67
:1025000001A9204611F05BFAEF72CDE7D16F00EE22
:10251000901AF8EE600A80EE808A194613F0B8FD32
:1025200084A111F04CFA2146A86913F0B1FD0446CC
:1025300018EE100A23F040FE41EC100B7BA153EC87
:10254000102B02E00AE05CE0ACE001A8FDF7C2FE5F
:1025500001A9204611F033FAEE72A5E7297B4FF46A
:1025600007631C1D022927D0297B01299CD1D2F8A1
:10257000881000EE101AB8EE400A80EE208A194644
:1025800013F086FD6FA111F01AFA2146A86913F025
:102590007FFD044618EE100A23F00EFE41EC100BEE
:1025A0005CA153EC102B01A8FDF794FE01A9204675
:1025B00011F005FA2E7377E7D2F88C1000EE101A9E
:1025C000B8EE400A80EE208A194613F061FD61A141
:1025D00011F0F5F92146A86913F05AFD044618EEEA
:1025E000100A23F0E9FD41EC100B4AA153EC102B2B
:1025F00001A8FDF76FFE01A9204611F0E0F92F7345
:1026000052E7697B40F677031C1D022926D0697BBF
:102610000129A2D1118800EE901AF8EE600A80EE2E
:10262000808A194613F034FD4EA111F0C8F92146F5
:10263000A86913F02DFD044618EE100A23F0BCFD26
:1026400041EC100B39A153EC102B01A8FDF742FE11
:1026500001A9204611F0B3F96E7325E7518800EE09
:10266000901AF8EE600A80EE808A194613F010FD89
:1026700040A111F0A4F92146A86913F009FD044610
:1026800018EE100A23F098FD41EC100B27A153EC33
:10269000102B01A8FDF71EFE01A9204611F08FF9AD
:1026A0006F7301E7118900EE101AB8EE400A80EE50
:1026B000208A194613F0ECFC32A111F080F9214672
:1026C000A86913F0E5FC044618EE100A23F074FD27
:1026D00041EC100B0FA153EC102B01A8FDF7FAFDF4
:1026E00001A9204611F06BF9AF73DDE6630100200C
:1026F000D00C00200000C842A001002000007A4455
:1027000098850020E688AAE6ADA2E794B5E6B581F3
:1027100031000000252E336600000000E8BE93E57E
:1027200087BAE794B5E58E8B32000000252E32661D
:1027300000000000E8BE93E587BAE794B5E58E8B0C
:1027400031000000E99990E588B6E794B5E6B581D7
:1027500031000000E99990E588B6E794B5E6B581C7
:1027600032000000E688AAE6ADA2E794B5E58E8BBC
:1027700031000000E688AAE6ADA2E794B5E58E8BAD
:1027800032000000E688AAE6ADA2E794B5E6B5817E
:1027900032000000F0B52DED028B83B0AF48017818
:1027A000AF4A9FEDB00AB04D01260227A86919294A
:1027B00038D0DFEDAE0A1A297ED0AD4A1B297CD075
:1027C0001C292BD1A97B40F678031C1D002975D04C
:1027D000A97B012922D1518900EE101AB8EE400AD6
:1027E00080EE208A194613F053FCA2A111F0E7F8FD
:1027F0002146A86913F04CFC044618EE100A23F099
:10280000DBFC41EC100B9FA153EC102B01A8FDF752
:1028100061FD01A9204611F0D2F8AF7303B0BDEC01
:10282000028BF0BDE97A40F66F031C1D39B3E97ADB
:102830000129F3D1D2F8841000EE901AF8EE600A64
:1028400080EE808A194613F023FC90A111F0B7F8AE
:102850002146A86913F01CFC044618EE100A23F068
:10286000ABFC41EC100B8DA153EC102B01A8FDF734
:1028700031FD01A9204611F0A2F8EF72CEE7D2F89F
:10288000801000EE901AF8EE600A80EE808A1946F9
:1028900013F0FEFB83A111F092F82146A86913F012
:1028A000F7FB044618EE100A23F086FC41EC100BEF
:1028B0007AA153EC102B02E00AE05BE0AAE001A849
:1028C000FDF708FD01A9204611F079F8EE72A5E7A1
:1028D000297B4FF407631C1D39B3297B01299DD146
:1028E000D2F8901000EE101AB8EE400A80EE208A5E
:1028F000194613F0CDFB6FA111F061F82146A869CC
:1029000013F0C6FB044618EE100A23F055FC41EC08
:10291000100B5CA153EC102B01A8FDF7DBFC01A907
:10292000204611F04CF82F7378E7D2F88C1000EEA7
:10293000101AB8EE400A80EE208A194613F0A8FB60
:1029400060A111F03CF82146A86913F0A1FB0446F0
:1029500018EE100A23F030FC41EC100B49A153ECA7
:10296000102B01A8FDF7B6FC01A9204611F027F8AD
:102970002E7353E7697B40F677031C1D31B3697BE7
:102980000129A4D1918800EE901AF8EE600A80EE39
:10299000808A194613F07CFB4EA111F010F82146F5
:1029A000A86913F075FB044618EE100A23F004FC26
:1029B00041EC100B39A153EC102B01A8FDF78AFC58
:1029C00001A9204610F0FBFF6F7327E7518800EE46
:1029D000901AF8EE600A80EE808A194613F058FBD0
:1029E00040A110F0ECFF2146A86913F051FB04460A
:1029F00018EE100A23F0E0FB41EC100B27A153EC7A
:102A0000102B01A8FDF766FC01A9204610F0D7FFA6
:102A10006E7303E7118900EE101AB8EE400A80EEDB
:102A2000208A194613F034FB32A110F0C8FF21466A
:102A3000A86913F02DFB044618EE100A23F0BCFB26
:102A400041EC100B0FA153EC102B01A8FDF742FC39
:102A500001A9204610F0B3FFAE73DFE6630100204A
:102A6000D00C00200000C842A001002000007A44E1
:102A700098850020E688AAE6ADA2E794B5E6B58180
:102A800033000000252E336600000000E8BE93E509
:102A900087BAE794B5E58E8B33000000252E3266A9
:102AA00000000000E8BE93E587BAE794B5E58E8B99
:102AB00032000000E99990E588B6E794B5E6B58163
:102AC00033000000E99990E588B6E794B5E6B58152
:102AD00032000000E688AAE6ADA2E794B5E58E8B49
:102AE00033000000E688AAE6ADA2E794B5E58E8B38
:102AF00032000000E688AAE6ADA2E794B5E6B5810B
:102B0000320000002DE9F05F7D4D29787D481939AC
:102B100040F66F0782696FF070464FF4076840F621
:102B2000770940F6780A40F6710B40F679040C29D3
:102B300026D2DFE801F0062747662525252585A44E
:102B400025C339460746104613F0A2FA044631461B
:102B5000204610F007FF6FF07F41204610F054FF31
:102B600040F67201B86913F093FA044666492046AC
:102B700010F0F8FE0021204610F046FF24202870B7
:102B8000BDE8F09F41468046104613F081FA0446A6
:102B90003146204610F0E6FE6FF07F41204610F0EF
:102BA00033FF3946D8F8180013F072FA0446564934
:102BB000204610F0D7FE0021204610F025FF1920F6
:102BC0002870DDE707464946104613F061FA0446CF
:102BD0003146204610F0C6FE6FF07F41204610F0CF
:102BE00013FF4146B86913F053FA0446464920469C
:102BF00010F0B8FE0021204610F006FF1A202870C1
:102C0000BEE707465146104613F042FA04463146E5
:102C1000204610F0A7FE6FF07F41204610F0F4FE32
:102C20004946B86913F034FA04463749204610F093
:102C300099FE0021204610F0E7FE1B2028709FE738
:102C400007465946104613F023FA044631462046FB
:102C500010F088FE6FF07F41204610F0D5FE5146FF
:102C6000B86913F015FA04462749204610F07AFE99
:102C70000021204610F0C8FE1C20287080E707467F
:102C80002146104613F004FA04463146204610F05F
:102C900069FE6FF07F41204610F0B6FE5946B869D4
:102CA00013F0F6F904461849204610F05BFE0021A7
:102CB000204610F0A9FE2120287061E7804640F6EA
:102CC0007201104613F0E4F907463146384610F019
:102CD00049FE6FF07F41384610F096FE2146D8F845
:102CE000180013F0D5F904460749204610F03AFEC3
:102CF0000021204610F088FE2220287040E70000C6
:102D000063010020A0010020FFFFBF002DE9F04F6C
:102D10002DED048B83B0F948406E00EE100AB8EE3A
:102D2000400ADFEDF70A80EE208AF448806E00EE5C
:102D3000100AB8EE400ADFEDF30AC0EE208AEF4831
:102D4000C06E00EE100AB8EE400ADFEDEE0A80EE2B
:102D5000209AEA48006F00EE100AB8EE400ADFED54
:102D6000E80AC0EE209AE8480178EB4819390124B6
:102D7000E64DE74EE74F806940F66F0940F6730A6B
:102D80004FF4076B40F67908102932D2DFE801F0E2
:102D90000890FDFC36BAFBFAF9F8F7F6F5F4F3F211
:102DA0004946DD4F13F074F906466FF07041304626
:102DB00010F0D8FD6FF07F41304610F025FE5146EF
:102DC000B86913F065F90646D449304610F0CAFDDB
:102DD0000021304610F018FE0020D14A002102E008
:102DE0001154401CC0B20528FAD3C7491D200870F1
:102DF0002C7003B0BDEC048BBDE8F08F5146DFF8BA
:102E0000188313F045F907466FF07041384610F00B
:102E1000A9FD6FF07F41384610F0F6FD98F80B00E1
:102E200040B198F80B00012808D098F80B00022850
:102E300009D00CE0B148C16F416008E0AF48D0F85C
:102E40008010416003E0AD48D0F884104160AB4889
:102E5000406800EE100AF8EE400A9FEDA91A80EED5
:102E6000810A10EE100A23F0A7F941EC100BADA176
:102E700053EC102B01A8FDF72DFA01A9384610F0EC
:102E80009EFD4946D8F8180013F002F90746A349F9
:102E9000384610F067FD0021384610F0B5FD9A491C
:102EA000192008702C700020307014F07BFAA0E715
:102EB0005946994D13F0ECF804466FF070412046E6
:102EC00010F050FD6FF07F41204610F09DFD002076
:102ED0009349002202E00A54401CC0B20528FAD3EC
:102EE00040F67401A86913F0D3F804468B492046D4
:102EF00010F038FD0021204610F086FD82491E208A
:102F0000087076E740F67401DFF80C8213F0C0F821
:102F100007466FF07041384610F024FD6FF07F4196
:102F2000384610F071FD98F80C0040B198F80C008C
:102F3000012809D098F80C0002280AD00DE06F484B
:102F4000D0F88810816008E06C48D0F88C1081605F
:102F500003E06A48D0F8901081606848826841F2C6
:102F600088318A4200D98160806800EE100AF8EE4C
:102F7000400A0BE0FAE195E107E15DE0A7E2CAE172
:102F800066E12BE2C5E254E2D4E02AE09FED5D1A4F
:102F900080EE810A10EE100A23F00EF941EC100BBE
:102FA00062A153EC102B01A8FDF794F901A9384652
:102FB00010F005FD5946D8F8180013F069F80746D7
:102FC0005649384610F0CEFC0021384610F01CFD62
:102FD0004D491A2008702C700020307014F0E2F96E
:102FE00007E740F677014C4D13F052F804466FF0B6
:102FF0007041204610F0B6FC6FF07F41204610F083
:1030000003FD0020464A002102E01154401CC0B2DA
:103010000528FAD340F67B01A86913F039F8044675
:103020003E49204610F09EFC0021204610F0ECFCAA
:10303000354925200870DCE640F67B01DFF8D890A2
:1030400013F026F880466FF07041404610F08AFC7D
:103050006FF07F41404610F0D7FC99F80D0040B169
:1030600099F80D0001280ED099F80D00022814D00F
:103070001CE03888DFED220A00EE100AB8EE400AA4
:1030800080EE208A12E07888DFED1D0A00EE100A3B
:10309000B8EE400A80EE208A08E0B888DFED180A12
:1030A00000EE100AB8EE400A80EE208A18EE100AF0
:1030B00023F082F841EC100B1AA153EC102B01A85D
:1030C000FDF708F901A9404610F079FC40F67701B8
:1030D000D9F8180012F0DCFF07461049384610F006
:1030E00041FC0021384610F08FFC07491B20087076
:1030F0002C700020307014F055F97AE6D00C0020C6
:103100000000C84200007A44630100201C01002036
:103110001D01002098850020A0010020FFFFBF00B6
:103120005C010020252E326600000000252E33664B
:103130000000000040F67801FE4D12F0A9FF0446A1
:103140006FF07041204610F00DFC6FF07F4120467B
:1031500010F05AFC0020F84A002102E01154401CF3
:10316000C0B20528FAD340F67C01A86912F090FF9E
:103170000446F249204610F0F5FB0021204610F0ED
:1031800043FCEF492620087033E640F67C01DFF867
:10319000A49312F07DFF80466FF07041404610F01E
:1031A000E1FB6FF07F41404610F02EFC99F80E00D5
:1031B00040B199F80E0001280ED099F80E000228AF
:1031C00014D01CE0F8885FED310A00EE100AB8EE6A
:1031D000400AC0EE208A12E038895FED360A00EE20
:1031E000100AB8EE400AC0EE208A08E078895FED48
:1031F0003B0A00EE100AB8EE400AC0EE208A18EE34
:10320000900A22F0D9FF41EC100B53EC102BAFF2D7
:10321000E40101A8FDF75EF801A9404610F0CFFBDC
:1032200040F67801D9F8180012F032FF0746C3497A
:10323000384610F097FB0021384610F0E5FBC049F6
:103240001C2008702C700020307014F0ABF8D0E512
:103250004146B84D12F01CFF04466FF07041204605
:1032600010F080FB6FF07F41204610F0CDFB002076
:10327000B149002202E00A54401CC0B20528FAD32A
:1032800040F67D01A86912F003FF0446AB492046D1
:1032900010F068FB0021204610F0B6FBA84927205B
:1032A0000870A6E540F67D01DFF8889212F0F0FE86
:1032B00007466FF07041384610F054FB6FF07F41C5
:1032C000384610F0A1FB19EE100A22F075FF41EC10
:1032D000100B53EC102BAFF2AC1101A8FCF7FAFF66
:1032E00001A9384610F06BFB4146D9F8180012F0DE
:1032F000CFFE07469149384610F034FB002138468E
:1033000010F082FB8E49222008702C700020307053
:1033100014F048F86DE540F67A01864D12F0B8FEDB
:1033200004466FF07041204610F01CFB6FF07F41A7
:10333000204610F069FB00207F4A002102E0115472
:10334000401CC0B20528FAD340F67E01A86912F0ED
:103350009FFE04467949204610F004FB00212046D8
:1033600010F052FB76492820087042E540F67E01B5
:10337000DFF8C08112F08CFE07466FF070413846CE
:1033800010F0F0FA6FF07F41384610F03DFB19EE77
:10339000900A22F011FF41EC100B53EC102BAFF20E
:1033A0007C2101A8FCF796FF01A9384610F007FB25
:1033B00040F67A01D8F8180012F06AFE07465F4915
:1033C000384610F0CFFA0021384610F01DFB5C495A
:1033D000232008702C70002030700AE540F671013F
:1033E000544D12F055FE04466FF07041204610F027
:1033F000B9FA6FF07F41204610F006FB00204E4ADC
:10340000002102E01154401CC0B20528FAD340F656
:103410007501A86912F03CFE04464849204610F0A8
:10342000A1FA0021204610F0EFFA45491F2008704C
:10343000DFE440F67501DFF8FC8012F029FE074654
:103440006FF07041384610F08DFA6FF07F413846CA
:1034500010F0DAFA3B48D0F89C10016101694EF691
:103460006022914201D900210161006900EE100A39
:10347000F8EE400A1FEDDD1A80EE810A10EE100A08
:1034800022F09AFE41EC100B53EC102BAFF264319A
:1034900001A8FCF71FFF01A9384610F090FA40F68A
:1034A0007101D8F8180012F0F3FD07462349384699
:1034B00010F058FA0021384610F0A6FA20492120D1
:1034C00008702C700020307013F06CFF91E440F60F
:1034D0007201184D12F0DCFD04466FF07041204679
:1034E00010F040FA6FF07F41204610F08DFA40F660
:1034F0007601A86912F0CCFD04461049204610F070
:1035000031FA0021204610F07FFA0D492020087082
:103510006FE440F67601DFF81C8012F0B9FD074633
:103520006FF07041384610F01DFA6FF07F41384659
:103530000AE00000A00100205C010020FFFFBF00A6
:1035400063010020D00C002010F05EFA40F67201FA
:10355000D8F8180012F09CFD07460849384610F0CC
:1035600001FA0021384610F04FFA0549242008706E
:103570002C700020307013F015FF3AE4FFFFBF00FD
:103580006301002070B5134D69792846124E806999
:1035900040F6990201290FD0114612F079FD044638
:1035A0006FF07041204610F0DDF93146204610F0F2
:1035B0002BFA2F20287070BD114612F069FD0446C9
:1035C0003146204610F0CEF92046BDE8704000217B
:1035D00010F01ABA78010020FFFFBF002DE9FF4765
:1035E0000446006810B113F075FC68B10022314840
:1035F00050F8221060680A2841D007DCF0B3062892
:103600000DD0072854D106E00122F0E712280AD095
:1036100019284DD137E0204614F034FE48E020460A
:1036200015F0BEFF44E0206803F068FA0290B0F99C
:10363000548090F85650476C466B02A803F0A8FAE5
:10364000206800F039F88146684612F0F9FCBDF8B0
:10365000001009EB05000844ADF80000246A30466C
:1036600004F032FE022004F06FFE384604F022FE21
:1036700042466946204603F015FE19E007E0204661
:1036800016F07AFA14E0886904B0BDE8F087206883
:1036900013F0E4F8206803F031FA0390B0F9061053
:1036A000B0F90220891A491CC16703A803F070FA17
:1036B0000020E9E7E0F2030838B503F01FFA0090B4
:1036C000C46F684603F064FA204638BD044A0349D3
:1036D00011600449CA69C86110467047140300208C
:1036E000DC060020E006002000B589B024216846F1
:1036F000FDF725F8192001900348006880684168AB
:103700006846884709B000BDDC0600201CB5194892
:1037100001210170184A1920107018480024047003
:103720001748C26F4260D0F888208260D0F89C2091
:103730000261144801707021682010F09EFD4FF462
:103740008051114802F090FA0221104802F08CFAE0
:1037500000210F4811F0F2FE12F08EFC0346009497
:103760000C4A28210C48019403F0C0FB0B498861E6
:103770001CBD00001E010020630100208400002009
:10378000D00C002085000020000C02400008024000
:1037900000480040552A0208A05C0308A001002050
:1037A0001CB50E48002404700D4804700D480470C8
:1037B0007021682010F061FD4FF480510A4802F03A
:1037C00053FA12F059FC03460094084A08210848AD
:1037D000019403F08BFB074908601CBD1E0100200B
:1037E0008500002084000020000C0240D140020827
:1037F00000610308BC0100207CB50C4C1320A071B3
:103800000320A0700A4908700025E57121F0A2FD8F
:103810000848057012F030FC03460095064A1F2147
:103820000648019503F062FBA0627CBD1C010020EC
:10383000850000208400002069020208C864020894
:103840001CB50F49052008700E48002404700E486E
:1038500004707021682010F010FD4FF480510B4867
:1038600002F002FA12F008FC03460094084A1F21F5
:103870000848019403F03AFB074908601CBD0000AA
:103880001E0100206301002084000020000C024083
:10389000151B0208786A02086C0100201CB5084953
:1038A0000620087012F0E8FB03460020009001900B
:1038B000044A0121044803F019FB044948601CBD77
:1038C0001E01002069240208DC6D0208700100203E
:1038D0001CB51549022008701449087014490920C4
:1038E00008701448D0F898104160D0F8A01081609A
:1038F00011480024047011490320087070216820C9
:1039000010F0BBFC4FF480510D4802F0ADF912F0FD
:10391000B3FB034600940B4A13210B48019403F0B8
:10392000E5FA0A4948601CBD1E0100208500002000
:1039300063010020D00C00208400002061010020E1
:10394000000C024045FB0108B4620208140100208B
:103950001CB5164904200870154908701549172030
:1039600008701548D0F894100161144800240470C0
:103970001349022008700021124811F0DFFD702168
:10398000682010F07AFC4FF480510F4802F06CF977
:1039900012F072FB034600940C4A15210C48019466
:1039A00003F0A4FA0B4948601CBD00001E01002072
:1039B0008500002063010020D00C0020840000203E
:1039C0006101002000480040000C02403944020818
:1039D0002C680208640100201CB512F04DFB002485
:1039E00003460094074A11210748019403F07EFA28
:1039F00006498861064A1470064B07221A702F2266
:103A00000A701CBDE9240208C45A0308780100208A
:103A1000840000201E0100201CB502208DF8050046
:103A200001208DF8040000208DF806001C20009075
:103A30006946024802F0C4F81CBD000000100240B4
:103A400070B50546244E0421304602F00DF90821D8
:103A5000304602F00BF900BF00BF00BF00BF0421D9
:103A6000304602F003F900BF0821304602F0FEF8AC
:103A70000421304602F0F8F8002420E0072C0DD98C
:103A8000280404D51021304602F0F0F803E010219C
:103A9000304602F0E9F86804050C03E010213046D6
:103AA00002F0E2F80821304602F0DEF800BF00BF65
:103AB00000BF0821304602F0D9F8641CE4B2182C8B
:103AC000DCD30421304602F0D1F83046BDE8704026
:103AD000082102F0CBB800000010024008B53820E1
:103AE0008DF8000003208DF801008DF80200012000
:103AF0008DF8030068460BF0DFF808BD0148006848
:103B0000704700006003002010B50549054800F02B
:103B10000DF80548016841F00201016010BD000088
:103B2000208000101064024034000020074A9042B8
:103B300001D2074801E005481038064A8B0001EA27
:103B4000020101D5C1607047816070471064024076
:103B5000006002407D0F7D0F21B1016841F001013D
:103B600001607047016821F00101016070470B0698
:103B700009D522B1436943F08003436103E04369FF
:103B800023F080034361802905D001F01E011AB1A2
:103B900002680A430260704702688A430260704705
:103BA00030B50368124A1340CC680A682243D1E951
:103BB00005452C432243CC6922430C6A22434C6ABC
:103BC00022438C6A22434C6B22438C6B22431A4360
:103BD0000260426922F00703D1E90B2422431A4311
:103BE00042610A6942604A6882608968C16030BD8A
:103BF0003F801CF0F8B50546006802F07FFF00909A
:103C0000448ED0F88860684602F0C2FF06B10126F3
:103C100004F00104286813F05DF90EB1002006E0FD
:103C20000CB1012003E008B1022000E003201B4991
:103C300051F82010686858B302280CD0052802D02B
:103C4000122828D103E0284614F048FB23E0284638
:103C500016F027FC1FE06A69E8694FF0FF33801A0D
:103C6000A0F1080203EB6204421CAB69001B451083
:103C7000A3EB6206C86904F01DFB06E03219311B94
:103C8000284603F0BDFC641E6D1C002CF6DA02E031
:103C9000286812F0E3FD0020F8BD000040F303089F
:103CA000044A0349116004490A6B086310467047CF
:103CB000640300201C0700202007002038B50D46B3
:103CC000002402F01BFF0090C06B294602F0F8FFB1
:103CD0000546684602F05CFF1DB1284602F00EFF63
:103CE0000446204638BD704730B504464FF47A7517
:103CF00002E0284600F006F82300A4F1010084B297
:103D0000F7D130BD00220BE0042100BF00BF00BF8F
:103D100000BF00BF491E0904090CF6D1521C92B223
:103D20008242F1D37047000010B52DED028B24497B
:103D30000A78244CB2EE048A022AE0681FD009787F
:103D4000032939D1204991ED000A20EE080ABDEE81
:103D5000C00A10EE101A09B202F060F81B4890ED8C
:103D6000000A20EE080ABDEEC00A10EE100A01B2E9
:103D70002069BDEC028BBDE8104002F04FB8144939
:103D800091ED000A20EE080ABDEEC00A10EE101AEE
:103D900009B202F043F80F4890ED000A20EE080A3D
:103DA000BDEEC00A10EE100A01B22069BDEC028B14
:103DB000BDE8104002F032B8BDEC028B10BD00002F
:103DC00061010020BC0100202800002030000020FC
:103DD000240000202C00002010B5044621F0AEF88D
:103DE000A02021F07DF821F0D9F868B9204621F013
:103DF00077F821F0D3F838B921F0A0F8A12021F00C
:103E00006FF821F0CBF818B121F0B4F8002010BD04
:103E100021F044F8034C207021F028F821F0AAF892
:103E2000207810BD7A00002070B50120FFF7D4FF84
:103E3000FE4C20600120FFF7CFFF206020680002C9
:103E400020600220FFF7C8FF216808442060206836
:103E5000000220600320FFF7BFFF216808442060B4
:103E60002068000220600420FFF7B6FF21680844A4
:103E700020600520FFF7B0FFED4D286028680002A4
:103E800028600620FFF7A8FF2968084428602868F2
:103E9000000228600720FFF79FFF29680844286078
:103EA0002868000228600820FFF796FF2968084468
:103EB00028600920FFF790FF606060680002606082
:103EC0000A20FFF789FF61680844606060680002AB
:103ED00060600B20FFF780FF6168084460606068E5
:103EE000000260600C20FFF777FF616808446060A3
:103EF0000D20FFF771FF68606868000268600E209F
:103F0000FFF76AFF696808446860686800026860D3
:103F10000F20FFF761FF6968084468606868000265
:103F200068601020FFF758FF696808446860112036
:103F3000FFF752FFA060A0680002A0601220FFF708
:103F40004BFFA1680844A060A0680002A060132095
:103F5000FFF742FFA1680844A060A0680002A060CB
:103F60001420FFF739FFA1680844A0601520FFF76F
:103F700033FFA860A8680002A8601620FFF72CFF96
:103F8000A9680844A860A8680002A8601720FFF785
:103F900023FFA9680844A860A8680002A860182048
:103FA000FFF71AFFA9680844A8601920FFF714FF5B
:103FB000E060E0680002E0601A20FFF70DFFE168B2
:103FC0000844E060E0680002E0601B20FFF704FFA7
:103FD000E1680844E060E0680002E0601C20FFF750
:103FE000FBFEE1680844E0601D20FFF7F5FEE86095
:103FF000E8680002E8601E20FFF7EEFEE96808446A
:10400000E860E8680002E8601F20FFF7E5FEE96865
:104010000844E860E8680002E8602020FFF7DCFE62
:10402000E9680844E8602120FFF7D6FE2061206996
:10403000000220612220FFF7CFFE216908442061A1
:104040002069000220612320FFF7C6FE2169084491
:1040500020612069000220612420FFF7BDFE216954
:10406000084420612520FFF7B7FE28612869000277
:1040700028612620FFF7B0FE2969084428612869D5
:10408000000228612720FFF7A7FE2969084428615C
:104090002869000228612820FFF79EFE296908444C
:1040A00028612920FFF798FE606160690002606165
:1040B0002A20FFF791FE616908446061606900028F
:1040C00060612B20FFF788FE6169084460616069C8
:1040D000000260612C20FFF77FFE61690844606187
:1040E0002D20FFF779FE68616869000268612E2063
:1040F000FFF772FE696908446861686900026861D7
:104100002F20FFF769FE6969084468616869000249
:1041100068613020FFF760FE696908446861AB2080
:10412000FFF75AFEE062E06A0002E062AC20FFF7AF
:1041300053FEE16A0844E062E06A0002E062AD20FA
:10414000FFF74AFEE16A0844E062E06A0002E062CA
:10415000AE20FFF741FEE16A0844E062AF20FFF7BE
:104160003BFEE862E86A0002E862B020FFF734FE36
:10417000E96A0844E862E86A0002E862B120FFF7F1
:104180002BFEE96A0844E862E86A0002E862B220AD
:10419000FFF722FEE96A0844E8623120FFF71CFEBF
:1041A000A061A0690002A0613220FFF715FEA1699D
:1041B0000844A061A0690002A0613320FFF70CFE53
:1041C000A1690844A061A0690002A0613420FFF742
:1041D00003FEA1690844A0613520FFF7FDFDA86139
:1041E000A8690002A8613620FFF7F6FDA969084416
:1041F000A861A8690002A8613720FFF7EDFDA96951
:104200000844A861A8690002A8613820FFF7E4FD0E
:10421000A9690844A8613920FFF7DEFDE061E06983
:104220000002E0613A20FFF7D7FD03E0700C0020A8
:10423000A00C0020E1690844E061E0690002E0614F
:104240003B20FFF7C9FDE1690844E061E069000235
:10425000E0613C20FFF7C0FDE1690844E0613D20DA
:10426000FFF7BAFDE861E8690002E8613E20FFF768
:10427000B3FDE9690844E861E8690002E8613F20AC
:10428000FFF7AAFDE9690844E861E8690002E8610E
:104290004020FFF7A1FDE9690844E8614120FFF7EC
:1042A0009BFD2062206A000220624220FFF794FDFD
:1042B000216A08442062206A000220624320FFF73E
:1042C0008BFD216A08442062206A0002206244209B
:1042D000FFF782FD216A084420624520FFF77CFD3C
:1042E0002862286A000228624620FFF775FD296AC5
:1042F00008442862286A000228624720FFF76CFD04
:10430000296A08442862286A000228624820FFF7C8
:1043100063FD296A084428624920FFF75DFD606259
:10432000606A000260624A20FFF756FD616A084435
:104330006062606A000260624B20FFF74DFD616AB7
:1043400008446062606A000260624C20FFF744FD2E
:10435000616A084460624D20FFF73EFD6862686A4A
:10436000000268624E20FFF737FD696A0844686200
:10437000686A000268624F20FFF72EFD696A0844F0
:104380006862686A000268625020FFF725FD696A6A
:10439000084468625120FFF71FFDA062A06A000276
:1043A000A0625220FFF718FDA16A0844A062A06A2B
:1043B0000002A0625320FFF70FFDA16A0844A0622B
:1043C000A06A0002A0625420FFF706FDA16A08441B
:1043D000A0625520FFF700FDA862A86A0002A8624B
:1043E0005620FFF7F9FCA96A0844A862A86A0002EF
:1043F000A8625720FFF7F0FCA96A0844A862A86ADF
:104400000002A8625820FFF7E7FCA96A0844A862E6
:104410005920FFF7E1FCEF4C20705A20FFF7DCFC3D
:1044200060705B20FFF7D8FCA0705C20FFF7D4FC25
:10443000E0705D20FFF7D0FC20715E20FFF7CCFC20
:1044400060716020FFF7C8FCE34908707A20FFF72D
:10445000C3FCE24908707B20FFF7BEFCE04908700E
:104460007820FFF7B9FCDF4908707920FFF7B4FC2A
:10447000DD4908706120FFF7AFFCDC4908707C2043
:10448000FFF7AAFCDA4908807D20FFF7A5FCD9498F
:1044900008807E20FFF7A0FCD74908807F20FFF727
:1044A0009BFCD64908808020FFF796FCD449087011
:1044B0008120FFF791FCD34908708220FFF78CFC24
:1044C000D14908708320FFF787FCD0490870842009
:1044D000FFF782FCCE4908708520FFF77DFCCD49AF
:1044E00008708620FFF778FCCB4908708720FFF71B
:1044F00073FCCA4908708820FFF76EFCC849087031
:104500008920FFF769FCC74908708A20FFF764FC1F
:10451000C54908708B20FFF75FFCC44908708C20E8
:10452000FFF75AFCC2490A6860F3C7120A608D207F
:10453000FFF752FCBF4908806220FFF74DFCBE4CDC
:10454000A063A06B0002A0636320FFF745FCA16B92
:104550000844A0636420FFF73FFCE063E06B0002C7
:10456000E0636520FFF738FCE16B0844E0636620F8
:10457000FFF732FC2064206C000220646720FFF704
:104580002BFC216C084420646820FFF725FC606444
:10459000606C000260646920FFF71EFC616C0844D7
:1045A00060646A20FFF718FCA064A06C0002A0649D
:1045B0006B20FFF711FCA16C0844A0646C20FFF78E
:1045C0000BFC44F84C0F2068000220606D20FFF7C0
:1045D00003FC2168084420606E20FFF7FDFBE064C7
:1045E000E06C0002E0646F20FFF7F6FBE16C08442A
:1045F000E0647020FFF7F0FB6065606D00026065AD
:104600007120FFF7E9FB616D084460657220FFF7D8
:10461000E3FBA064A06C0002A0647320FFF7DCFB46
:10462000A16C0844A0647420FFF7D6FBE060E0684A
:104630000002E0607520FFF7CFFBE1680844E0600E
:104640007620FFF7C9FB20612069000220617720F6
:10465000FFF7C2FB2169084420618E20FFF7BCFBF5
:104660002063206B000220638F20FFF7B5FB216BD6
:10467000084420639020FFF7AFFB6063606B00028B
:1046800060639120FFF7A8FB616B08446063922090
:10469000FFF7A2FBA063A06B0002A0639320FFF7CB
:1046A0009BFBA16B0844A0639420FFF795FB634D2F
:1046B00028802888000228809520FFF78DFB298814
:1046C000084428809620FFF787FB688068880002EE
:1046D00068809720FFF780FB6988084468809820ED
:1046E000FFF77AFBA880A8880002A8809920FFF72E
:1046F00073FBA9880844A8809A20FFF76DFBE0634C
:10470000E06B0002E0639B20FFF766FBE16B08446F
:10471000E0639C20FFF760FB2064206C00022064B3
:104720009D20FFF759FB216C084420649E20FFF771
:1047300053FB6064606C000260649F20FFF74CFBD9
:10474000616C08446064A020FFF746FBE880E888BD
:104750000002E880A120FFF73FFBE9880844E880D9
:10476000A220FFF739FB2881288900022881A32095
:10477000FFF732FB298908442881A420FFF72CFB8E
:104780006881688900026881A520FFF725FB698997
:1047900008446881A620FFF71FFB29490870A7205D
:1047A000FFF71AFB2065206D00022065A820FFF7A7
:1047B00013FB216D08442065A920FFF70DFB206243
:1047C000206A00022062AA20FFF706FB216A084443
:1047D000206270BDC4000020A6000020200100203F
:1047E0001F0100202F010020620100202D01002068
:1047F00086010020880100208A0100208C01002011
:10480000790100207A0100207B0100207C0100203A
:104810007E0100207F010020800100208101002016
:1048200082010020830100208401002085010020F6
:104830004000002030010020D00C0020988500208E
:10484000A001002070B505460E4620F093FB002421
:1048500009E020F073FBA02020F042FB20F09EFB3B
:1048600018B1641CA4B2642CF3D3B4F57A7F0DD0D4
:10487000E8B220F035FB20F091FB38B9304620F04B
:104880002FFB20F08BFB08B920F074FBBDE87040D3
:1048900020F070BB2DE9F041044694B0006800F0B0
:1048A000B7F908B1D94D01E0D84D2C35606815280D
:1048B0001ED00CDC0B281FD004DC00287ED005287D
:1048C0007DD12EE10E287BD01228F9D141E11628A6
:1048D00006D0172808D0182808D01C28F0D109E0E5
:1048E000E86914B0BDE8F081286AFAE7686AF8E779
:1048F000A86AF6E76869F4E720680B901C200C9022
:10490000206802F0FBF80390016D0BA8884706466B
:1049100003A802F03DF9022E0EDB95E807008DE8B2
:104920000700D4E904023346A16904F027FC20699A
:104930008719A069801B2BE0286803F0BBFC216964
:10494000E8690A18521E606902F05AFEA269E86915
:10495000111A491C606902F053FE676920697F1CC7
:10496000394602F08FFE3946A06902F08BFE686876
:1049700003F0A0FC20693946401C02F083FEA069C8
:104980003946401E02F07EFE2769A069BF1C801ECA
:104990008046286803F08EFC42463946606902F082
:1049A0002FFE686803F086FC60694246401C394669
:1049B00002F026FE686A02280FDD02E015E1AFE092
:1049C00000E1A86803F076FC61696A6A881C8B18AC
:1049D00001465B1E4246384627E0296AB14226DD81
:1049E0006069022E074600F1020801DB374401E04E
:1049F00007F10207206901DB304401E000F1020009
:104A000022693B460A44A2F10102414602F002FF3C
:104A1000022E02DBA069821B01E0A269921EA0693E
:104A2000E9693B46401A401C414602F0F3FE022E63
:104A300002DB6069064401E06669B61CE769286824
:104A40007F1E03F037FC3A463146206902F078FEBB
:104A50003A463146A06902F073FEE7696868BF1EF6
:104A600003F028FC20693A46401C314602F068FEFB
:104A7000A0693A46401E314602F062FEE86902280B
:104A800002DC286A022823DDA86A022802DDE16927
:104A90000F1A01E0E769BF1EA86803F00BFCE96983
:104AA000022909DD20693B46421800F1020C521E22
:104AB0003146604602F0AEFE286A022808DDA2698F
:104AC000E8693B46101A401C921E314602F0A2FED5
:104AD000286803F0EFFBD4E90620216902F090FD7D
:104AE000686803F0E7FBA2692169E069521E491C6E
:104AF000401E02F085FDA86A022811DD2669A16921
:104B0000E469B61C271AA1F102087F1CA41EA8683C
:104B100003F0D0FB234642463946304602F07AFE87
:104B200072E0208A06B2ADF81460A08A01B2ADF836
:104B30001610208B02B2ADF81820A08B03B2ADF88E
:104B40001A30D5E90304CDE90004304602F000FD37
:104B50005AE0208A298B0844ADF81400A08AADF8E9
:104B60001600208B298B401AADF81800A08BADF8E9
:104B70001A00206801F0C2FF0390006FF0B102201C
:104B800003F0E2FB039991F87C00C0F3C00001EB55
:104B90008000006C03F08EFB0398406B03F094FBE5
:104BA0000398006F01F0AAFF03990A90B1F95A2007
:104BB00005A902F077FB0AA801F0EAFF03A801F0BB
:104BC000E7FF21E0208AADF81400A08AADF81600B6
:104BD000208BADF81800A08BADF81A00A86803F080
:104BE00069FB05A802F03AFE0EE0206801F086FF9E
:104BF000039030F85A1F41F00C01018003A801F026
:104C0000C7FF206811F02AFE00206AE63404002065
:104C100038B5002450B101F071FF009090F87C008D
:104C2000000700D50124684601F0B2FF204638BDD8
:104C300030B504468BB0006801F060FF009090F83A
:104C40007C10246A006FC1F3C00508B101F056FF63
:104C50000690E068029020690390A088401EADF89D
:104C60001000E089ADF812002089401CADF8140056
:104C7000608AADF81600BDF80800401CADF80800C9
:104C8000BDF80A00401CADF80A00BDF80C00401E3B
:104C9000ADF80C000098406B03F016FB009808AAD2
:104CA00002A9B0F95A30069803F0F0FD009800EB25
:104CB0008500806B09F0F4F8009800EB8500006C2B
:104CC00009F026F908AB02AA04A9069810F0A8FD7D
:104CD000684601F05DFF069810B106A801F058FF84
:104CE0000BB0002030BD0000074A0649054B11609B
:104CF000064A083BD16958601B68C2E9063008467D
:104D000070470000280400205C0700206007002096
:104D100038B50D46040009D001F0F0FE009005669C
:104D2000684601F035FF204611F09BFB38BD2DE9A8
:104D3000F34F85B000270C46B846059801F0DEFE1B
:104D40000090C06D0121856805982A6890478246C9
:104D50002A6803210598904704902A680221059843
:104D6000904703902A6800210598904706460098CE
:104D700011F036FF8346009811F039FF8146009804
:104D800090F83210890601D5B0F9588000F036F855
:104D900005460098C06E10B111F098FA07462580BC
:104DA0006780A4F804A0049AABEB020006EB0802AB
:104DB000401E2A4420813A44E280039BA9EB03026F
:104DC000521E6281A4F80CA020827019E681401E58
:104DD0006082684601F0DCFEB4F90C000190B4F981
:104DE0001000029002AA01A9059800F039F8019874
:104DF000A0810298208207B0BDE8F08F10B501466F
:104E0000002091F83220920607D5B1F9540000280D
:104E100003D1486B02F0A0FD801C10BD70B58AB0B4
:104E20000C46054601F06AFE0990C06D866809A827
:104E300001F0AEFE009534B1012C06D0022C0BD04F
:104E4000032C04D10AE0182000E0162001907168BC
:104E5000684688470AB070BD1520F7E71720F5E7C8
:104E60002DE9FC4790468946044601F047FE009034
:104E7000C16D056868468E6801F08AFE32680021BF
:104E8000204690470646204611F00AF92F140446A2
:104E90002DB227E001F032FE0190B0F90010B0F918
:104EA0000420B0F90230491B521BDB1BB34212D164
:104EB00090F82800000607D5D8F8000088420ADBE1
:104EC000491EC8F8001006E0D9F80000904202DC44
:104ED000521CC9F8002001A801F05AFE204611F02A
:104EE0006FF90446002CD5D1BDE8FC874FF0204275
:104EF00002EB800021B1016841F0010101607047BF
:104F00000168024A1140016070470000FEFF0F0077
:104F100030B5D0E901121143D0E903231A431143FC
:104F200042690368114382691143C2691143026AED
:104F30001143426A1143826A1143C26A1143026BF0
:104F400011434FF0204242F823108168082906D10E
:104F5000016802EB81010B6843F040030B60416B79
:104F6000D1E9003443EA04138C68CD68240244EA92
:104F7000054423430C6943EA04534C69896943EAB5
:104F800004630B430168491C42F82130C16AB1F542
:104F9000804F07D000686FF0704102EB8000C0F8CE
:104FA000041130BD816B0068D1E9003443EA041379
:104FB0008C680D69240244EA055423434C698969CD
:104FC00043EA046302EB80000B43C0F8043130BDB8
:104FD00070B5FE4C2068010E0120FFF733FC2068FD
:104FE000C0F307410220FFF72DFC2068C0F3072122
:104FF0000320FFF727FC2068C1B20420FFF722FC42
:10500000F34D2868010E0520FFF71CFC2868C0F34B
:1050100007410620FFF716FC2868C0F30721072088
:10502000FFF710FC2868C1B20820FFF70BFC60688E
:10503000010E0920FFF706FC6068C0F307410A2053
:10504000FFF700FC6068C0F307210B20FFF7FAFBB5
:105050006068C1B20C20FFF7F5FB6868010E0D20F7
:10506000FFF7F0FB6868C0F307410E20FFF7EAFB8B
:105070006868C0F307210F20FFF7E4FB6868C1B23E
:105080001020FFF7DFFBA068010E1120FFF7DAFB0D
:10509000A068C0F307411220FFF7D4FBA068C0F35B
:1050A00007211320FFF7CEFBA068C1B21420FFF741
:1050B000C9FBA868010E1520FFF7C4FBA868C0F360
:1050C00007411620FFF7BEFBA868C0F30721172091
:1050D000FFF7B8FBA868C1B21820FFF7B3FBE06880
:1050E000010E1920FFF7AEFBE068C0F307411A205C
:1050F000FFF7A8FBE068C0F307211B20FFF7A2FB26
:10510000E068C1B21C20FFF79DFBE868010E1D207E
:10511000FFF798FBE868C0F307411E20FFF792FBFA
:10512000E868C0F307211F20FFF78CFBE868C1B2D5
:105130002020FFF787FB2069010E2120FFF782FB6B
:105140002069C0F307412220FFF77CFB2069C0F3F0
:1051500007212320FFF776FB2069C1B22420FFF747
:1051600071FB2869010E2520FFF76CFB2869C0F34D
:1051700007412620FFF766FB2869C0F30721272097
:10518000FFF760FB2869C1B22820FFF75BFB60696D
:10519000010E2920FFF756FB6069C0F307412A2062
:1051A000FFF750FB6069C0F307212B20FFF74AFB94
:1051B0006069C1B22C20FFF745FB6869010E2D2004
:1051C000FFF740FB6869C0F307412E20FFF73AFB69
:1051D0006869C0F307212F20FFF734FB6869C1B26B
:1051E0003020FFF72FFBE06A010EAB20FFF72AFB10
:1051F000E06AC0F30741AC20FFF724FBE06AC0F38C
:105200000721AD20FFF71EFBE06AC1B2AE20FFF719
:1052100019FBE86A010EAF20FFF714FBE86AC0F340
:105220000741B020FFF70EFBE86AC0F30721B12069
:10523000FFF708FBE86AC1B2B220FFF703FBA069E1
:10524000010E3120FFF7FEFAA069C0F307413220BA
:10525000FFF7F8FAA069C0F307213320FFF7F2FA4D
:10526000A069C1B23420FFF7EDFAA869010E35201C
:10527000FFF7E8FAA869C0F307413620FFF7E2FA22
:10528000A869C0F307213720FFF7DCFAA869C1B28B
:105290003820FFF7D7FAE069010E3920FFF7D2FA7C
:1052A000E069C0F307413A20FFF7CCFAE069C0F3A8
:1052B00007213B20FFF7C6FAE069C1B23C20FFF7A7
:1052C000C1FAE869010E3D20FFF7BCFAE869C0F3B6
:1052D00007413E20FFF7B6FAE869C0F307213F20F7
:1052E000FFF7B0FAE869C1B24020FFF7ABFA206AD5
:1052F000010E4120FFF7A6FA206AC0F307414220C1
:10530000FFF7A0FA206AC0F307214320FFF79AFABB
:10531000206AC1B24420FFF795FA286A010E4520A1
:10532000FFF790FA286AC0F307414620FFF78AFA90
:10533000286AC0F307214720FFF784FA286AC1B220
:105340004820FFF77FFA606A010E4920FFF77AFADA
:10535000606AC0F307414A20FFF774FA606AC0F33D
:1053600007214B20FFF76EFA606AC1B24C20FFF7AD
:1053700069FA686A010E4D20FFF764FA686AC0F3A3
:1053800007414E20FFF75EFA686AC0F307214F20FD
:10539000FFF758FA686AC1B25020FFF753FAA06AC3
:1053A000010E5120FFF74EFAA06AC0F307415220C8
:1053B000FFF748FAA06AC0F307215320FFF742FA2B
:1053C000A06AC1B25420FFF73DFA03E0700C002040
:1053D000A00C0020A86A010E5520FFF733FAA86A36
:1053E000C0F307415620FFF72DFAA86AC0F3072142
:1053F0005720FFF727FAA86AC1B25820FFF722FA10
:105400000D4C21785920FFF71DFA61785A20FFF7DB
:1054100019FAA1785B20FFF715FAE1785C20FFF715
:1054200011FA21795D20FFF70DFA6179BDE870402E
:105430005E20FFF707BA0000C40000202DE9F0430A
:105440000446C56887B090468946002002F03AFFBE
:10545000064625B1287910B146F0020001E026F099
:10546000020002F02FFF2069012558B1D4E9021291
:105470008DE82600039563882288046841464846E3
:10548000A0471EE0124F134B214638681B68427C30
:10549000E068984730B9E088012801D0002001E099
:1054A0003868806BA288E388A1680095CDE9041074
:1054B000CDE902320195638822884146484608F0CA
:1054C00011F907B03046BDE8F04302F0FBBE000022
:1054D000EC010020E40100201CB50024019401AC83
:1054E000009400F0E7F81CBD2DE9FF4F83B0814622
:1054F00006988A46A0EB0A08109E00200090A2EBB6
:1055000009043568934654EA080018D02046FCF791
:1055100020FC07464046FCF71CFC87420BDA20467D
:10552000444680464846D14682465846DDF818B083
:10553000069001200090002C07DD204606E007B011
:105540004846BDE8F04F00F03BB96042A0420AD0A7
:105550004846D9466442C8F1000883464FF0FF37F9
:10556000DDF818A000E001275148B8F1000F11D074
:1055700004EBD4714FEA610B01DACBF1000B4C481C
:105580000068807E88B3002F02DA306820443060E3
:1055900000257BE000990029016821D0897E11B1A6
:1055A0000027804615E007B05A4649465046BDE8F8
:1055B000F04F08F0FBB928466D1C19F0A1FA38B974
:1055C000D8F8000009EB0701C06E426850469047CA
:1055D0007F1CA742EFDD6D1E356007B0BDE8F08F80
:1055E0008A7E1AB10027804617E019E0C86E5A4635
:1055F0005146036807B04846BDE8F04F18472846B3
:105600006D1C19F07DFA38B9D8F8001009EB0700C5
:10561000C96E4A68514690477F1CA742EFDDDAE722
:1056200000250FE008FB05B090FBF4F101EB0A0048
:10563000009951B11E4A09EB05011268D26E5268F9
:1056400090476D1CA542EDDDC7E7194909EB05033D
:105650000968C96E4A6801461846F1E708FB05B0BB
:1056600090FBF4F101EB0A0001903068384430609F
:1056700019F046FA48B9009890B10D4809EB0501B8
:105680000068C06E4268019890476D1CA542E5DD38
:105690003068002F01DA20443060C01B30609CE786
:1056A000034909EB05000968C96E4A680199EBE7EF
:1056B000EC0100202DE9FF470F4640491646804681
:1056C00009680C981D460A7E012A1CD0A8EB06002A
:1056D000791B50EA01031CD0A2F101091AF0ECF980
:1056E00000F58060824604F049F900FB09F4504659
:1056F00004F048F900FB09F1002C0CDAC4F5007045
:10570000801240420AE00090324639464046FFF798
:10571000EBFEBDE8FF8704F50074A012002904DA4F
:10572000C1F5007189124C4202E001F500718C1242
:10573000002804DD411C01EBD171491003E000EBAE
:10574000D0714910401E00EBD0704210002C04DDD7
:10575000601C00EBD070401003E004EBD4704010EC
:10576000641E04EBD47308EB0104ADF800403C1850
:10577000ADF80240A8EB02045B10B21AADF8044089
:10578000ADF808203144FC1AEA1AADF80C10284490
:10579000ADF80A20ADF80E000023ADF806401A4619
:1057A0000421684600F07AF83946404614F076FD48
:1057B0002946304614F072FDABE70000EC010020F2
:1057C000064A13681A7E012A05D0521E02EBD272D5
:1057D000521000F005B8DA6E52681047EC01002054
:1057E0002DE9F05F0646884640F2C32050434FF44F
:1057F0007A7190FBF1F702FB02F002EBD27100EB41
:10580000610B254914467F1C09683244301BC96E60
:105810000B684146984701253AE000BF05FB05F0BB
:1058200004FB040159451CDDBC4219DD1A4B06EB93
:10583000050AA6EB05091B68AAF1010208EB0401A1
:10584000DB6E09F101001B689847134BAAF10102B6
:10585000A8EB04011B6809F10100DB6E1B68984787
:10586000641E0D4806EB040AA6EB0409006808EB69
:1058700005015246C06E0368484698470648A8EBA3
:10588000050152460068C06E0368484698476D1C83
:10589000BD42C3DDBDE8F09FEC0100202DE9FF4FC4
:1058A00040F6FF740F46664283B09B468146002156
:1058B0000BE000BF09EB8100B0F90200A04200DA62
:1058C0000446B04200DD0646491CB942F2DB684896
:1058D0000068406900280DD0B0F906101A46A1EB07
:1058E0000B01B14200DA0E46B0F90200801AA04264
:1058F00000DD0446B5E0DFF87CA100200546CAF8CB
:10590000000089E0781E854201DA6B1C00E000236C
:1059100009EB850C09EB8302BCF90200B2F9021015
:10592000A04245D1A14215D139F92330059A39F960
:10593000251003EB020C4E4A05981268084404EB4C
:105940000B01D26E6045136801DA62462BE0024615
:10595000604628E02846A4464FF000087A1E0BE077
:1059600008B1401E00E0781E09EB8003B3F9023055
:10597000634504D108F101089045F1DB2346A342B9
:1059800049D0A3EB040239F92500A1EB040C059BD7
:1059900092EA0C0209D4364A184404EB0B0112684F
:1059A000D26E13680246984735E011F0C5FE32E02A
:1059B000A14230D001DBA04203DDA0422BDBA1429B
:1059C00029DCE04688420ADC0346A04223DC084684
:1059D000A14220DBB8F900C0B2F9001008E00B4684
:1059E000A14218DCA04216DBB2F900C0B8F90010E1
:1059F000E21AA1EB0C0151430029A0EB030202DDE6
:105A000001EB620102E0A1EB6201491CC01A91FBAB
:105A1000F0F06044C9E76D1CBD42FFF673AF059816
:105A2000009004EB0B00019000208046054613E037
:105A30001149B8F1000F31F915A009D0009901EB17
:105A40000A0208440A490968C96E0B680199984717
:105A500088F0010850466D1C064909688D42E7DB55
:105A6000641CB4427FF747AF07B0BDE8F08F000079
:105A7000EC0100206C0800209C87002010B500205D
:105A800002F014FC6FF07F4002F014FC012002F0E1
:105A900049FC002002F04EFC002002F055FC0020E2
:105AA00002F010FC0448006802F00EFCBDE8104053
:105AB000002002F013BC0000E80100202DE9FC47A3
:105AC00001211F200BF014F802268DF80560012437
:105AD0008DF8044000258DF80650E00300906946DB
