:020000040800F2
:10000000608C00206902000833760008D163000884
:10001000317600086D0F00080D9800080000000000
:10002000000000000000000000000000597F0008F0
:10003000F313000800000000357800080180000874
:10004000830200088302000883020008830200087C
:10005000830200088302000883020008830200086C
:10006000830200088302000883020008830200085C
:10007000830200088302000883020008830200084C
:10008000830200088302000883020008830200083C
:10009000830200088302000883020008830200082C
:1000A000830200088302000883020008830200081C
:1000B000830200088302000883020008830200080C
:1000C00083020008830200088302000883020008FC
:1000D0008302000855950008830200088302000887
:1000E00083020008830200088302000883020008DC
:1000F00083020008830200088302000883020008CC
:1001000083020008830200088302000883020008BB
:1001100083020008830200082D850008830200087E
:1001200015120008830200088302000883020008F9
:10013000830200088302000883020008830200088B
:10014000830200088302000883020008B9760008D1
:10015000830200088302000883020008830200086B
:10016000830200088302000883020008830200085B
:10017000830200088302000883020008830200084B
:10018000830200088302000800F002F800F05CF827
:100190000AA090E8000C82448344AAF10107DA45E2
:1001A00001D100F051F8AFF2090EBAE80F0013F0D8
:1001B000010F18BFFB1A43F001031847D8E70100ED
:1001C000F8E701000A444FF0000C10F8013B13F06F
:1001D000070408BF10F8014B1D1108BF10F8015BA0
:1001E000641E05D010F8016B641E01F8016BF9D193
:1001F00013F0080F1EBF10F8014BAD1C0C1B09D1EA
:100200006D1E58BF01F801CBFAD505E014F8016B5B
:1002100001F8016B6D1EF9D59142D6D370470000ED
:100220000023002400250026103A28BF78C1FBD8FF
:10023000520728BF30C148BF0B6070471FB513F08D
:100240009CFC1FBD10B510BD00F0BBF91146FFF7B7
:10025000F5FF12F0CFFF00F0D9F903B4FFF7F2FF7A
:1002600003BC00F0DDF90000094880470948004759
:10027000FEE7FEE7FEE7FEE7FEE7FEE7FEE7FEE756
:10028000FEE7FEE704480549054A064B70470000B3
:10029000C98000088901000860860020608C002069
:1002A000608800206088002040EA0103024630B5E3
:1002B0009B0710D14FF0013400E008C208C91D1B94
:1002C0009D4315EAC41FF8D013F0FF0102F8011B8B
:1002D0000DD01B0AF8E711F8013B002B02F8013B97
:1002E00005D011F8013B002B02F8013BF3D130BDE2
:1002F00010B5431C02E010F8011B71B18107FAD15F
:100300004FF0013202C88C1A8C4314EAC211F9D0A2
:10031000C01A0A0603D0C01E10BDC01A10BD0A04C0
:1003200001D0801E10BD0902FCD0401E10BD032A62
:1003300040F2308010F0030C00F0158011F8013B02
:10034000BCF1020F624498BF11F801CB00F8013BE9
:1003500038BF11F8013BA2F1040298BF00F801CBAD
:1003600038BF00F8013B11F0030300F06780083A42
:10037000C0F0088051F8043B083A51F804CBA0E8DB
:100380000810F5E7121D5CBF51F8043B40F8043B30
:10039000AFF30080D20724BF11F8013B11F801CB65
:1003A00048BF11F8012B24BF00F8013B00F801CB36
:1003B00048BF00F8012B7047431A28BF9A427FF6C6
:1003C000B6AF032A1044114440F2268010F0030F08
:1003D0001EBF11F8013D521E00F8013D10F0030F41
:1003E0007FF4F6AF11F0030300F09F80083AC0F0ED
:1003F0000B8051F8043D083A51F804CD40F8043D13
:1004000040F804CDFFF7F3BF121D5CBF51F8043D67
:1004100040F8043DAFF30080D20724BF11F8013D3E
:1004200011F801CD48BF11F8012C24BF00F8013D9F
:1004300000F801CD48BF00F8012C704710B5203AF4
:10044000C0F00B80B1E81850203AA0E81850B1E88D
:100450001850A0E81850BFF4F5AF5FEA027C24BF43
:10046000B1E81850A0E8185044BF18C918C0BDE83A
:1004700010405FEA827C24BF51F8043B40F8043B03
:1004800008BF7047D20728BF31F8023B48BF11F8B8
:10049000012B28BF20F8023B48BF00F8012B704712
:1004A00002F0FF0343EA032242EA024200F069B885
:1004B0004FF0000200B5134694469646203922BFFD
:1004C000A0E80C50A0E80C50B1F12001BFF4F7AF48
:1004D000090728BFA0E80C5048BF0CC05DF804EB2A
:1004E000890028BF40F8042B08BF704748BF20F898
:1004F000022B11F0804F18BF00F8012B7047704796
:1005000070477047431A28BF9A427FF697AF10444E
:1005100010F0030F11441EBF11F8013D521E00F8E8
:10052000013D10F0030F7FF4F6AF103AC0F00A80DF
:1005300010B531E91850103A20E91850BFF4F9AF5E
:10054000BDE81040530724BF31E9081020E9081026
:1005500044BF51F8043D40F8043D12F0030F08BFBA
:100560007047D20728BF31F8023D48BF11F8012C6F
:1005700028BF20F8023D48BF00F8012C70474FF01B
:1005800000020429C0F0128010F0030C3FF492AF77
:10059000CCF1040CBCF1020F18BF00F8012BA8BF6E
:1005A00020F8022BA1EB0C01FFF784BF5FEAC17CAE
:1005B00024BF00F8012B00F8012B48BF00F8012BE5
:1005C0007047754600F028F8AE4605006946534668
:1005D00020F00700854618B020B5FFF753FEBDE8B0
:1005E00020404FF000064FF000074FF000084FF09A
:1005F000000B21F00701AC46ACE8C009ACE8C0092B
:10060000ACE8C009ACE8C0098D4670470446AFF3BA
:1006100000802046FFF721FE00487047FC8500203F
:1006200001491820ABBEFEE726000200704700001B
:100630002DE9F0419CB04FF480780121404607F04D
:100640009DF90121880507F075F904270197032515
:100650008DF8085000248DF80B40454E01A9304616
:1006600002F074FB082001908DF808508DF80B40C3
:1006700001A9304602F06AFB402001908DF8085035
:100680008DF80B4001A9304602F060FB012601966F
:100690008DF808508DF80B4001A9364802F056FB42
:1006A000039435480490354805900694C820079077
:1006B0000894B002099040000A9080000B90CDF899
:1006C000308000010D900E940F96109411942C4DD3
:1006D00003A9284600F0EAFD0121284600F0C2FDEA
:1006E00001221021284600F0C8FD00F07DFD224DBA
:1006F00001214C3D284600F043F9129413941494C0
:10070000159412A800F024F916948DF85C608DF809
:100710005D6019941A948DF86C7016A9284600F043
:1007200045F9042301220221284600F065F900233F
:1007300002220321284600F05FF90023032206214C
:10074000284600F059F9002304220821284600F029
:1007500053F90121284600F0EFF8284600F08AF905
:100760000121284600F017F91CB0BDE8F081000017
:1007700000000240000402404C200140A00700207D
:10078000106402402DE9F0430020684C684A04F5EB
:10079000C87604F5FA7704F5167504F52F7336E07C
:1007A00081070BD000F00301022911D06FEA000C81
:1007B0005FEA8C7C16D001291ED026E034F8108028
:1007C000117801F1010C82F800C026F811801CE0BC
:1007D00034F810C0517801F1010882F8018023F843
:1007E00011C012E034F810C0917801F1010882F8CC
:1007F000028027F811C008E034F810C0D17801F168
:10080000010882F8038025F811C0401C80B2C82876
:10081000C6D30024147054709470D470002100204A
:1008200004E036F810C06144401CC0B23228F8D34E
:100830005079DFF8008132264FF0130C142806D2CD
:10084000B1FBF6F0517928F8110000210EE00021EB
:10085000012004E038F810904944401CC0B213282D
:10086000F8D3B1FBFCF09081002154715079401C09
:100870005071002004E037F810804144401CC0B2A1
:100880003228F8D310792B4F283F142806D2B1FB19
:10089000F6F0117927F8110000210FE00021012066
:1008A00004E037F810804144401CC0B21328F8D34C
:1008B0001220B1FBF0F05081002114711079401C1E
:1008C0001071002004E035F810703944401CC0B2AB
:1008D0003228F8D39079174D2835142806D2B1FB69
:1008E000F6F0917925F8110000210EE00021012099
:1008F00004E035F810703944401CC0B21328F8D316
:10090000B1FBFCF0D081002194719079401C907172
:10091000002004E033F810402144401CC0B23228CB
:10092000F8D3B1FBF6F01081BDE8F083A0070020FA
:1009300040000020E80A002021B1816841F0010157
:1009400081607047816821F001018160704700007B
:1009500010B5094C2268094902EA0102D0E90013E6
:1009600041EA0301D0E9023043EA000341EA03010E
:1009700041EA0201216010BD04230140E030FCFF88
:1009800021B1816841F4807181607047816821F4F0
:1009900080718160704721B1816841F4007181608C
:1009A0007047816821F400718160704730B54268FA
:1009B0000F4B1A400C790B6842EA04221343436040
:1009C00083680C4A1340D1E9034222434D798C6875
:1009D00044EA450422431A438260C26A22F4700248
:1009E000097D491EC9B242EA0151C16230BD000011
:1009F000FFFEFFFCFDF7FFC070B5072609290ED9E1
:100A0000D0F80CC0A1F10A0404EB4404A6402CEA7F
:100A1000060CA3404CEA030CC0F80CC007E00569C3
:100A200001EB4104A640B543A3401D4305611F23CC
:100A3000072A09D2446B521E02EB820293409C4368
:100A400091400C43446370BD0D2A09D2046BD21F40
:100A500002EB820293409C4391400C43046370BDBF
:100A6000C46A0D3A02EB820293409C4391400C43CE
:100A7000C46270BD816841F0804181607047002888
:100A800000DC40427047000010B50C48006840068A
:100A900012D40B4C206841070ED5020609484FF4CA
:100AA000007103D4BDE8104002F0A6B902F0A2F92B
:100AB000206820F00400206010BD00002C00002001
:100AC00024000020000802400549086840F00400A6
:100AD000044B00221A8020F080000860704700005C
:100AE000240000206000002038B545680446014617
:100AF000284608F0AFFE00282AD02068304A0F2888
:100B000019D006DC0B2824D00C2810D00E2851D187
:100B10002FE0112802D028284CD145E09268002A05
:100B200016D02146284601B0BDE830401047214686
:100B300028465268F7E7284602F048FE0090406ECB
:100B40000468684602F064FE002C01D02846A047E5
:100B500038BD284602F03AFE0090683002F09EFD53
:100B6000009803216C3002F0A1FD684602F050FEAF
:100B700020E0E168486809680D2902D0202913D1D6
:100B800005E0002810DD28460EF014FE06E00028DF
:100B900004DD2846BDE838400EF00CBE2846BDE80E
:100BA000384002210EF01CBEE06818B9002128462A
:100BB00000F097F92046BDE8384009F085BA0000FA
:100BC00060010020F0B5044685B08069B4F9085092
:100BD000668A0027CDE90265CDE900170490B4F9D3
:100BE0000C00B4F91060C118B4F90A00B4F90E5041
:100BF000104433462A4600F007F80546616800F0C5
:100C000079F905B02846F0BDF0B585B00C46DDE9B0
:100C10000D514C31DFF850C0DDE90A67CDE902C162
:100C20002146CDE9006709F09FF9040018D002F0D1
:100C3000CDFD10222946049009F030F804983022A6
:100C40000A493430FFF7FAFB084D04990C3D286837
:100C5000486604A802F0DCFD286841682046884701
:100C600005B02046F0BD0000E90A00086C01002034
:100C7000F0B5044680688B4989B051F8205060680F
:100C800000287DD0052804D006287AD0122879D1F2
:100C9000AEE0E86900284FD095E80E008DE80F001F
:100CA00004F110010FC904F069FF002655F8260071
:100CB00004F0A8F8A169E8690A1A21690144606989
:100CC000304403F061FAA169E8690A1A2169014414
:100CD000E069801B03F058FAE169E8690A1A616962
:100CE00001442069304403F0EFFAE169E8690A1A27
:100CF00061690144A069801B03F0E6FA761C022EAC
:100D0000D4DBA86804F07EF8E069E9696669431AF3
:100D100020694218521E3144801C03F03FFBE169F8
:100D2000E869A2690B1A61690144101A401C921EFD
:100D300003F034FBEE6913E05FF0000655F826007F
:100D400004F060F8E069831BA069821B6069811967
:100D50002069304403F07AFA761C022EEEDB02267C
:100D6000D5E90301CDE900016169E0690844431058
:100D7000A069891C821B2069304403F0D1F902E08C
:100D800089E012E08AE0D5E90501CDE90001E369D7
:100D900060690121184401EB6001A0699B1E821B60
:100DA0002069304403F0BCF978E0206802F00EFDC1
:100DB000049020680AF0CCF840B1A06808B1002087
:100DC00008E00498006F28B1012003E00498406F08
:100DD00000B10220049901EB8000C56E04A802F066
:100DE00017FD00231A462846216802F03BFF55E014
:100DF000206802F0EBFC0490866EEEB3B0F95C70F4
:100E0000A168D1B3032942D05FF0000100EB81015A
:100E1000406D0C6C04F000F8204603F0F3FF05A8C9
:100E200003F00CFBBDF81410A88B0144ADF81410AE
:100E3000BDF81810081AADF81800BDF81600801C8F
:100E4000ADF81600BDF81A00801EADF81A0004981F
:100E50005E30B0F90220B0F9001005A803F030FFB1
:100E600004A802F0D5FC022004F016F8304602F087
:100E7000ADFC3A4605A901E00BE006E0079002F060
:100E8000F9FF07A802F0C4FC08E00121BEE7022137
:100E9000BCE704A8F6E7206809F03CFD09B0002093
:100EA000F0BD000050970108044A0349116004494D
:100EB0004A6A4862104670479C0100206001002089
:100EC0006C01002038B50D46040009D002F07EFC0C
:100ED00000904565684602F09BFC204609F037FB10
:100EE00038BD4FF480720029114601D008F03CBD96
:100EF00008F08DBC2DE9FF410E4605004FF00104BE
:100F00001CD002F063FC0190876E01A8009702F0EC
:100F10007FFC3146684605F011F978B1009800244D
:100F2000B84208D0284602F051FC01900099816631
:100F300001A802F06DFC284609F009FB04B0204628
:100F4000BDE8F081F8B515460C4606000DD002F05C
:100F50003DFC0090032C02D200EB8400056468463F
:100F600002F056FC304609F0F2FAF8BDFEE7000048
:100F70002DE9FF470446006810B109F0E9FF68B1A8
:100F80000022314850F8221060680A2841D007DC5E
:100F9000F0B306280DD0072854D106E00122F0E76F
:100FA00012280AD019284DD137E020460AF018FF40
:100FB00048E020460CF092F844E0206802F006FC7D
:100FC0000290B0F9548090F85650476C466B02A8D6
:100FD00002F01EFC206800F039F88146684609F0EE
:100FE00059F9BDF8001009EB05000844ADF8000000
:100FF000246A304603F010FF022003F04DFF38460C
:1010000003F000FF42466946204602F033FF19E034
:1010100007E020460CF0AAFA14E0886904B0BDE8A5
:10102000F087206809F076FC206802F0CFFB03907F
:10103000B0F90610B0F90220891A491CC16703A84B
:1010400002F0E6FB0020E9E76097010838B502F0FE
:10105000BDFB0090C46F684602F0DAFB204638BD45
:10106000044A034911600449CA69C86110467047BF
:1010700028020020B4050020B805002000B589B082
:1010800024216846FFF714FA1920019003480068EC
:10109000806841686846884709B000BDB4050020F3
:1010A0001CB509F013F90346002000900190044A92
:1010B0000C21044802F0F2FC034908601CBD00004A
:1010C000052901088C3C0108CC0000201CB509F062
:1010D000FDF80346002000900190044A09210448CD
:1010E00002F0DCFC034908601CBD00002526010855
:1010F000903B0108C80000201CB509F0E7F8034642
:10110000002000900190044A0921044802F0C6FC26
:10111000034908601CBD0000292C0108DC3D0108C2
:10112000E00000201CB502208DF8050001208DF89C
:10113000040000208DF806001C200090694602483B
:1011400001F004FE1CBD00000010024070B5054611
:10115000244E0421304601F04DFE0821304601F0B6
:101160004BFE00BF00BF00BF00BF0421304601F0AE
:1011700043FE00BF0821304601F03EFE0421304608
:1011800001F038FE002420E0072C0DD9280404D5F6
:101190001021304601F030FE03E01021304601F00E
:1011A00029FE6804050C03E01021304601F022FE00
:1011B0000821304601F01EFE00BF00BF00BF08211D
:1011C000304601F019FE641CE4B2182CDCD3042173
:1011D000304601F011FE3046BDE87040082101F0B4
:1011E0000BBE00000010024008B538208DF800004A
:1011F00003208DF801008DF8020001208DF8030016
:10120000684606F017FA08BD0148006870470000FC
:101210007402002010B50549054800F00DF8054896
:10122000016841F00201016010BD00002080001043
:101230001064024024000020074A904201D207486F
:1012400001E005481038064A8B0001EA020101D589
:10125000C1607047816070471064024000600240C6
:101260007D0F7D0F21B1016841F0010101607047E0
:10127000016821F00101016070470B0609D522B118
:10128000436943F08003436103E0436923F0800333
:101290004361802905D001F01E011AB102680A439A
:1012A0000260704702688A430260704730B5036885
:1012B000124A1340CC680A682243D1E905452C4301
:1012C0002243CC6922430C6A22434C6A22438C6A33
:1012D00022434C6B22438C6B22431A4302604269C7
:1012E00022F00703D1E90B2422431A4342610A6921
:1012F00042604A6882608968C16030BD3F801CF0EE
:10130000F8B50546006802F061FA0090448ED0F806
:101310008860684602F07CFA06B1012604F00104F8
:10132000286809F015FE0EB1002006E00CB101207E
:1013300003E008B1022000E003201B4951F820100F
:10134000686858B302280CD0052802D0122828D18A
:1013500003E028460AF070FD23E028460CF017FC55
:101360001FE06A69E8694FF0FF33801AA0F10802B4
:1013700003EB6204421CAB69001B4510A3EB620641
:10138000C86903F03FFD06E03219311B284602F020
:10139000FBFE641E6D1C002CF6DA02E0286809F0E2
:1013A000B9FA0020F8BD0000C0970108044A0349BB
:1013B000116004490A6B08631046704778020020E8
:1013C000F4050020F805002038B50D46002402F091
:1013D000FDF90090C06B294602F04AFA05466846BE
:1013E00002F016FA1DB1284602F0F0F90446204634
:1013F00038BD704730B504464FF47A7502E0284690
:1014000000F006F82300A4F1010084B2F7D130BD4A
:1014100000220BE0042100BF00BF00BF00BF00BFDF
:10142000491E0904090CF6D1521C92B28242F1D332
:101430007047000010B5044611F08CFEA02011F09A
:101440005BFE11F0B7FE68B9204611F055FE11F0B1
:10145000B1FE38B911F07EFEA12011F04DFE11F061
:10146000A9FE18B111F092FE002010BD11F022FE6D
:10147000034C207011F006FE11F088FE207810BD9C
:101480005E00002070B50120FFF7D4FFFE4C206005
:101490000120FFF7CFFF20602068000220600220BB
:1014A000FFF7C8FF21680844206020680002206020
:1014B0000320FFF7BFFF2168084420602068000276
:1014C00020600420FFF7B6FF216808442060052053
:1014D000FFF7B0FFED4D2860286800022860062065
:1014E000FFF7A8FF296808442860286800022860E0
:1014F0000720FFF79FFF296808442860286800023A
:1015000028600820FFF796FF296808442860092012
:10151000FFF790FF60606068000260600A20FFF7DC
:1015200089FF6168084460606068000260600B20A9
:10153000FFF780FF616808446060606800026060D7
:101540000C20FFF777FF6168084460600D20FFF70B
:1015500071FF68606868000268600E20FFF76AFF2C
:101560006968084468606868000268600F20FFF7D7
:1015700061FF69680844686068680002686010205C
:10158000FFF758FF6968084468601120FFF752FFB1
:10159000A060A0680002A0601220FFF74BFFA168C6
:1015A0000844A060A0680002A0601320FFF742FF7B
:1015B000A1680844A060A0680002A0601420FFF7A2
:1015C00039FFA1680844A0601520FFF733FFA86029
:1015D000A8680002A8601620FFF72CFFA96808443D
:1015E000A860A8680002A8601720FFF723FFA96879
:1015F0000844A860A8680002A8601820FFF71AFF36
:10160000A9680844A8601920FFF714FFE060E068AB
:101610000002E0601A20FFF70DFFE1680844E06077
:10162000E0680002E0601B20FFF704FFE168084467
:10163000E060E0680002E0601C20FFF7FBFEE1686C
:101640000844E0601D20FFF7F5FEE860E86800024E
:10165000E8601E20FFF7EEFEE9680844E860E868ED
:101660000002E8601F20FFF7E5FEE9680844E86033
:10167000E8680002E8602020FFF7DCFEE968084423
:10168000E8602120FFF7D6FE20612069000220617A
:101690002220FFF7CFFE2169084420612069000263
:1016A00020612320FFF7C6FE2169084420612069DC
:1016B000000220612420FFF7BDFE2169084420615B
:1016C0002520FFF7B7FE286128690002286126203F
:1016D000FFF7B0FE296908442861286900022861E3
:1016E0002720FFF7A7FE296908442861286900021E
:1016F00028612820FFF79EFE2969084428612920D7
:10170000FFF798FE60616069000260612A20FFF7C0
:1017100091FE6169084460616069000260612B208C
:10172000FFF788FE616908446061606900026061DA
:101730002C20FFF77FFE6169084460612D20FFF7D0
:1017400079FE68616869000268612E20FFF772FE09
:101750006969084468616869000268612F20FFF7C1
:1017600069FE69690844686168690002686130203F
:10177000FFF760FE6969084468613120FFF75AFE8F
:10178000A061A0690002A0613220FFF753FEA169A9
:101790000844A061A0690002A0613320FFF74AFE5F
:1017A000A1690844A061A0690002A0613420FFF78C
:1017B00041FEA1690844A0613520FFF73BFEA86106
:1017C000A8690002A8613620FFF734FEA969084421
:1017D000A861A8690002A8613720FFF72BFEA9695C
:1017E0000844A861A8690002A8613820FFF722FE1A
:1017F000A9690844A8613920FFF71CFEE061E0698F
:101800000002E0613A20FFF715FEE1690844E0615B
:10181000E0690002E0613B20FFF70CFEE16908444B
:10182000E061E0690002E0613C20FFF703FEE1694E
:101830000844E0613D20FFF7FDFDE861E869000232
:10184000E8613E20FFF7F6FDE9690844E861E869D0
:101850000002E8613F20FFF7EDFDE9690844E86117
:10186000E8690002E8614020FFF7E4FDE969084407
:10187000E8614120FFF7DEFD2062206A000220625D
:101880004220FFF7D7FD03E0380B0020640B002057
:10189000216A08442062206A000220624320FFF788
:1018A000C9FD216A08442062206A000220624420A7
:1018B000FFF7C0FD216A084420624520FFF7BAFD0A
:1018C0002862286A000228624620FFF7B3FD296AD1
:1018D00008442862286A000228624720FFF7AAFD10
:1018E000296A08442862286A000228624820FFF713
:1018F000A1FD296A084428624920FFF79BFD606228
:10190000606A000260624A20FFF794FD616A084441
:101910006062606A000260624B20FFF78BFD616AC3
:1019200008446062606A000260624C20FFF782FD3A
:10193000616A084460624D20FFF77CFD6862686A56
:10194000000268624E20FFF775FD696A084468620C
:10195000686A000268624F20FFF76CFD696A0844FC
:101960006862686A000268625020FFF763FD696A76
:10197000084468625120FFF75DFDA062A06A000282
:10198000A0625220FFF756FDA16A0844A062A06A37
:101990000002A0625320FFF74DFDA16A0844A06237
:1019A000A06A0002A0625420FFF744FDA16A084427
:1019B000A0625520FFF73EFDA862A86A0002A86257
:1019C0005620FFF737FDA96A0844A862A86A0002FA
:1019D000A8625720FFF72EFDA96A0844A862A86AEA
:1019E0000002A8625820FFF725FDA96A0844A862F2
:1019F0005920FFF71FFD0B4C20705A20FFF71AFDEE
:101A000060705B20FFF716FDA0705C20FFF712FDF1
:101A1000E0705D20FFF70EFD20715E20FFF70AFDEC
:101A2000607170BD9000002070B505460E4611F043
:101A3000ADFB002409E011F08DFBA02011F05CFB50
:101A400011F0B8FB18B1641CA4B2642CF3D3B4F544
:101A50007A7F0DD0E8B211F04FFB11F0ABFB38B933
:101A6000304611F049FB11F0A5FB08B911F08EFBCF
:101A7000BDE8704011F08ABB2DE9F041044694B0F6
:101A8000006800F0B7F908B1D94D01E0D84D2C3508
:101A9000606815281ED00CDC0B281FD004DC002841
:101AA0007ED005287DD12EE10E287BD01228F9D1D9
:101AB00041E1162806D0172808D0182808D01C287D
:101AC000F0D109E0E86914B0BDE8F081286AFAE7CE
:101AD000686AF8E7A86AF6E76869F4E720680B9097
:101AE0001C200C90206801F071FE0390016D0BA882
:101AF0008847064603A801F08BFE022E0EDB95E810
:101B000007008DE80700D4E904023346A16904F018
:101B100003F820698719A069801B2BE0286803F06F
:101B200071F92169E8690A18521E606902F02CFBFC
:101B3000A269E869111A491C606902F025FB67690E
:101B400020697F1C394602F061FB3946A06902F02A
:101B50005DFB686803F056F920693946401C02F0C5
:101B600055FBA0693946401E02F050FB2769A06969
:101B7000BF1C801E8046286803F044F9424639465F
:101B8000606902F001FB686803F03CF96069424655
:101B9000401C394602F0F8FA686A02280FDD02E0BC
:101BA00015E1AFE000E1A86803F02CF961696A6A09
:101BB000881C8B1801465B1E4246384627E0296A7E
:101BC000B14226DD6069022E074600F1020801DB02
:101BD000374401E007F10207206901DB304401E0EE
:101BE00000F1020022693B460A44A2F1010241468B
:101BF00002F0D4FB022E02DBA069821B01E0A26985
:101C0000921EA069E9693B46401A401C414602F019
:101C1000C5FB022E02DB6069064401E06669B61C62
:101C2000E76928687F1E03F0EDF83A4631462069DF
:101C300002F04AFB3A463146A06902F045FBE769EB
:101C40006868BF1E03F0DEF820693A46401C314642
:101C500002F03AFBA0693A46401E314602F034FBDE
:101C6000E869022802DC286A022823DDA86A022823
:101C700002DDE1690F1A01E0E769BF1EA86803F001
:101C8000C1F8E969022909DD20693B46421800F1E3
:101C9000020C521E3146604602F080FB286A022880
:101CA00008DDA269E8693B46101A401C921E3146C5
:101CB00002F074FB286803F0A5F8D4E90620216936
:101CC00002F062FA686803F09DF8A2692169E06990
:101CD000521E491C401E02F057FAA86A022811DD64
:101CE0002669A169E469B61C271AA1F102087F1CC4
:101CF000A41EA86803F086F82346424639463046BB
:101D000002F04CFB72E0208A06B2ADF81460A08AA3
:101D100001B2ADF81610208B02B2ADF81820A08BDE
:101D200003B2ADF81A30D5E90304CDE9000430461A
:101D300002F0F6F95AE0208A298B0844ADF8140025
:101D4000A08AADF81600208B298B401AADF8180038
:101D5000A08BADF81A00206801F038FD0390006FE9
:101D6000F0B1022003F098F8039991F87C00C0F3D9
:101D7000C00001EB8000006C03F044F80398406B56
:101D800003F04AF80398006F01F020FD03990A90D0
:101D9000B1F95A2005A902F06DF80AA801F038FD42
:101DA00003A801F035FD21E0208AADF81400A08AD7
:101DB000ADF81600208BADF81800A08BADF81A0016
:101DC000A86803F01FF805A802F00CFB0EE02068DD
:101DD00001F0FCFC039030F85A1F41F00C01018027
:101DE00003A801F015FD206808F094FD00206AE6C4
:101DF0004803002038B5002450B101F0E7FC009002
:101E000090F87C00000700D50124684601F000FD31
:101E1000204638BD30B504468BB0006801F0D6FCD2
:101E2000009090F87C10246A006FC1F3C00508B1DF
:101E300001F0CCFC0690E068029020690390A08835
:101E4000401EADF81000E089ADF812002089401C5A
:101E5000ADF81400608AADF81600BDF80800401C0B
:101E6000ADF80800BDF80A00401CADF80A00BDF846
:101E70000C00401EADF80C000098406B02F0CCFF47
:101E8000009808AA02A9B0F95A30069803F0A6FAF9
:101E9000009800EB8500806B05F0E8F8009800EBF7
:101EA0008500006C05F01AF908AB02AA04A906988F
:101EB00007F01AFE684601F0ABFC069810B106A8C0
:101EC00001F0A6FC0BB0002030BD0000074A064917
:101ED000054B1160064A083BD16958601B68C2E98E
:101EE00006300846704700003C03002034060020FE
:101EF0003806002038B50D46040009D001F066FC14
:101F000000900566684601F083FC204608F01FFB40
:101F100038BD2DE9F34F85B000270C46B84605982B
:101F200001F054FC0090C06D0121856805982A6875
:101F3000904782462A6803210598904704902A68B2
:101F400002210598904703902A6800210598904740
:101F50000646009808F082FE8346009808F085FE49
:101F60008146009890F83210890601D5B0F9588062
:101F700000F036F805460098C06E10B108F030FA4F
:101F8000074625806780A4F804A0049AABEB020002
:101F900006EB0802401E2A4420813A44E280039B5B
:101FA000A9EB0302521E6281A4F80CA020827019D2
:101FB000E681401E6082684601F02AFCB4F90C00FC
:101FC0000190B4F91000029002AA01A9059800F04E
:101FD00039F80198A0810298208207B0BDE8F08FFF
:101FE00010B50146002091F83220920607D5B1F9CC
:101FF0005400002803D1486B02F06CFA801C10BD1D
:1020000070B58AB00C46054601F0E0FB0990C06D42
:10201000866809A801F0FCFB009534B1012C06D0BC
:10202000022C0BD0032C04D10AE0182000E016206B
:1020300001907168684688470AB070BD1520F7E7BF
:102040001720F5E72DE9FC4790468946044601F044
:10205000BDFB0090C16D056868468E6801F0D8FB35
:1020600032680021204690470646204608F042F993
:102070002F1404462DB227E001F0A8FB0190B0F91F
:102080000010B0F90420B0F90230491B521BDB1BD1
:10209000B34212D190F82800000607D5D8F8000006
:1020A00088420ADB491EC8F8001006E0D9F8000093
:1020B000904202DC521CC9F8002001A801F0A8FBE4
:1020C000204608F043F90446002CD5D1BDE8FC8732
:1020D0004FF0204202EB800021B1016841F0010184
:1020E000016070470168024A1140016070470000BA
:1020F000FEFF0F0030B5D0E901121143D0E90323F0
:102100001A43114342690368114382691143C2694A
:102110001143026A1143426A1143826A1143C26A3F
:102120001143026B11434FF0204242F823108168A3
:10213000082906D1016802EB81010B6843F04003D6
:102140000B60416BD1E9003443EA04138C68CD681D
:10215000240244EA054423430C6943EA04534C69CE
:10216000896943EA04630B430168491C42F8213042
:10217000C16AB1F5804F07D000686FF0704102EB83
:102180008000C0F8041130BD816B0068D1E90034D3
:1021900043EA04138C680D69240244EA055423437E
:1021A0004C69896943EA046302EB80000B43C0F881
:1021B000043130BD70B5FE4C2068010E0120FFF7E0
:1021C00033FC2068C0F307410220FFF72DFC206894
:1021D000C0F307210320FFF727FC2068C1B20420C9
:1021E000FFF722FCF34D2868010E0520FFF71CFCC9
:1021F0002868C0F307410620FFF716FC2868C0F3E3
:1022000007210720FFF710FC2868C1B20820FFF75C
:102210000BFC6068010E0920FFF706FC6068C0F344
:1022200007410A20FFF700FC6068C0F307210B207C
:10223000FFF7FAFB6068C1B20C20FFF7F5FB686896
:10224000010E0D20FFF7F0FB6868C0F307410E2078
:10225000FFF7EAFB6868C0F307210F20FFF7E4FBF4
:102260006868C1B21020FFF7DFFBA068010E1120E3
:10227000FFF7DAFBA068C0F307411220FFF7D4FB99
:10228000A068C0F307211320FFF7CEFBA068C1B2FE
:102290001420FFF7C9FBA868010E1520FFF7C4FB47
:1022A000A868C0F307411620FFF7BEFBA868C0F37B
:1022B00007211720FFF7B8FBA868C1B21820FFF765
:1022C000B3FBE068010E1920FFF7AEFBE068C0F336
:1022D00007411A20FFF7A8FBE068C0F307211B2085
:1022E000FFF7A2FBE068C1B21C20FFF79DFBE86886
:1022F000010E1D20FFF798FBE868C0F307411E2080
:10230000FFF792FBE868C0F307211F20FFF78CFB63
:10231000E868C1B22020FFF787FB2069010E212069
:10232000FFF782FB2069C0F307412220FFF77CFB07
:102330002069C0F307212320FFF776FB2069C1B293
:102340002420FFF771FB2869010E2520FFF76CFBA5
:102350002869C0F307412620FFF766FB2869C0F310
:1023600007212720FFF760FB2869C1B22820FFF76B
:102370005BFB6069010E2920FFF756FB6069C0F323
:1023800007412A20FFF750FB6069C0F307212B208B
:10239000FFF74AFB6069C1B22C20FFF745FB686973
:1023A000010E2D20FFF740FB6869C0F307412E2086
:1023B000FFF73AFB6869C0F307212F20FFF734FBD2
:1023C0006869C1B23020FFF72FFBA069010E3120F0
:1023D000FFF72AFBA069C0F307413220FFF724FB77
:1023E000A069C0F307213320FFF71EFBA069C1B22B
:1023F0003420FFF719FBA869010E3520FFF714FB05
:10240000A869C0F307413620FFF70EFBA869C0F3A7
:1024100007213720FFF708FBA869C1B23820FFF772
:1024200003FBE069010E3920FFF7FEFAE069C0F313
:1024300007413A20FFF7F8FAE069C0F307213B2093
:10244000FFF7F2FAE069C1B23C20FFF7EDFAE86964
:10245000010E3D20FFF7E8FAE869C0F307413E208E
:10246000FFF7E2FAE869C0F307213F20FFF7DCFA43
:10247000E869C1B24020FFF7D7FA206A010E412077
:10248000FFF7D2FA206AC0F307414220FFF7CCFAE7
:10249000206AC0F307214320FFF7C6FA206AC1B2C1
:1024A0004420FFF7C1FA286A010E4520FFF7BCFA65
:1024B000286AC0F307414620FFF7B6FA286AC0F33E
:1024C00007214720FFF7B0FA286AC1B24820FFF77A
:1024D000ABFA606A010E4920FFF7A6FA606AC0F302
:1024E00007414A20FFF7A0FA606AC0F307214B209A
:1024F000FFF79AFA606AC1B24C20FFF795FA686A52
:10250000010E4D20FFF790FA686AC0F307414E2094
:10251000FFF78AFA686AC0F307214F20FFF784FAB1
:10252000686AC1B25020FFF77FFAA06A010E5120FD
:10253000FFF77AFAA06AC0F307415220FFF774FA56
:10254000A06AC0F307215320FFF76EFAA06AC1B258
:102550005420FFF769FAA86A010E5520FFF764FAC4
:10256000A86AC0F307415620FFF75EFAA86AC0F3D5
:1025700007215720FFF758FAA86AC1B25820FFF781
:1025800053FA0D4C21785920FFF74EFA61785A2002
:10259000FFF74AFAA1785B20FFF746FAE1785C2062
:1025A000FFF742FA21795D20FFF73EFA617905E0F5
:1025B000380B0020640B002090000020BDE8704024
:1025C0005E20FFF731BA00002DE9F0430446C568EC
:1025D00087B090468946002002F01CFC064625B1D3
:1025E000287910B146F0020001E026F0020002F066
:1025F00011FC2069012558B1D4E902128DE82600AA
:10260000039563882288046841464846A0471EE037
:10261000124F134B214638681B68427CE06898478C
:1026200030B9E088012801D0002001E03868806BD3
:10263000A288E388A1680095CDE90410CDE90232B3
:102640000195638822884146484604F05FF907B047
:102650003046BDE8F04302F0DDBB00000001002081
:10266000F80000201CB50024019401AC009400F097
:10267000E7F81CBD2DE9FF4F83B0814606988A46D6
:10268000A0EB0A08109E00200090A2EB0904356818
:10269000934654EA080018D02046FEF7F0F90746A2
:1026A0004046FEF7ECF987420BDA20464446804666
:1026B0004846D14682465846DDF818B006900120BB
:1026C0000090002C07DD204606E007B04846BDE834
:1026D000F04F00F03BB96042A0420AD04846D946CC
:1026E0006442C8F1000883464FF0FF37DDF818A0B8
:1026F00000E001275148B8F1000F11D004EBD4716C
:102700004FEA610B01DACBF1000B4C480068807E88
:1027100088B3002F02DA30682044306000257BE067
:1027200000990029016821D0897E11B100278046D7
:1027300015E007B05A4649465046BDE8F04F04F050
:1027400049BA28466D1C0EF081FF38B9D8F8000050
:1027500009EB0701C06E4268504690477F1CA742B4
:10276000EFDD6D1E356007B0BDE8F08F8A7E1AB1CF
:102770000027804617E019E0C86E5A4651460368A4
:1027800007B04846BDE8F04F184728466D1C0EF0CC
:102790005DFF38B9D8F8001009EB0700C96E4A6828
:1027A000514690477F1CA742EFDDDAE700250FE096
:1027B00008FB05B090FBF4F101EB0A00009951B160
:1027C0001E4A09EB05011268D26E526890476D1CD3
:1027D000A542EDDDC7E7194909EB05030968C96E94
:1027E0004A6801461846F1E708FB05B090FBF4F192
:1027F00001EB0A0001903068384430600EF026FF8B
:1028000048B9009890B10D4809EB05010068C06E09
:102810004268019890476D1CA542E5DD3068002FA5
:1028200001DA20443060C01B30609CE7034909EBAB
:1028300005000968C96E4A680199EBE700010020AC
:102840002DE9FF470F4640491646804609680C9817
:102850001D460A7E012A1CD0A8EB0600791B50EA0F
:1028600001031CD0A2F101090FF096FE00F5806073
:10287000824603F051FD00FB09F4504603F050FD81
:1028800000FB09F1002C0CDAC4F500708012404204
:102890000AE00090324639464046FFF7EBFEBDE8BD
:1028A000FF8704F50074A012002904DAC1F5007155
:1028B00089124C4202E001F500718C12002804DDFF
:1028C000411C01EBD171491003E000EBD0714910BC
:1028D000401E00EBD0704210002C04DD601C00EBA9
:1028E000D070401003E004EBD4704010641E04EB81
:1028F000D47308EB0104ADF800403C18ADF8024079
:10290000A8EB02045B10B21AADF80440ADF8082041
:102910003144FC1AEA1AADF80C102844ADF80A202C
:10292000ADF80E000023ADF806401A4604216846B3
:1029300000F07AF8394640460BF026F82946304632
:102940000BF022F8ABE7000000010020064A1368F4
:102950001A7E012A05D0521E02EBD272521000F0EC
:1029600005B8DA6E52681047000100202DE9F05FCB
:102970000646884640F2C32050434FF47A7190FBDC
:10298000F1F702FB02F002EBD27100EB610B25497B
:1029900014467F1C09683244301BC96E0B684146DF
:1029A000984701253AE000BF05FB05F004FB040150
:1029B00059451CDDBC4219DD1A4B06EB050AA6EB96
:1029C00005091B68AAF1010208EB0401DB6E09F19D
:1029D00001001B689847134BAAF10102A8EB040100
:1029E0001B6809F10100DB6E1B689847641E0D48E7
:1029F00006EB040AA6EB0409006808EB0501524641
:102A0000C06E0368484698470648A8EB0501524641
:102A10000068C06E0368484698476D1CBD42C3DD20
:102A2000BDE8F09F000100202DE9FF4F40F6FF7444
:102A30000F46664283B09B46814600210BE000BFF3
:102A400009EB8100B0F90200A04200DA0446B0426E
:102A500000DD0646491CB942F2DB6848006840695F
:102A600000280DD0B0F906101A46A1EB0B01B142B7
:102A700000DA0E46B0F90200801AA04200DD0446DA
:102A8000B5E0DFF87CA100200546CAF8000089E027
:102A9000781E854201DA6B1C00E0002309EB850CEF
:102AA00009EB8302BCF90200B2F90210A04245D141
:102AB000A14215D139F92330059A39F9251003EBD4
:102AC000020C4E4A05981268084404EB0B01D26EC2
:102AD0006045136801DA62462BE00246604628E052
:102AE0002846A4464FF000087A1E0BE008B1401EAD
:102AF00000E0781E09EB8003B3F90230634504D18E
:102B000008F101089045F1DB2346A34249D0A3EB2D
:102B1000040239F92500A1EB040C059B92EA0C0292
:102B200009D4364A184404EB0B011268D26E1368BC
:102B30000246984735E008F04BFC32E0A14230D025
:102B400001DBA04203DDA0422BDBA14229DCE046F1
:102B500088420ADC0346A04223DC0846A14220DB6F
:102B6000B8F900C0B2F9001008E00B46A14218DC29
:102B7000A04216DBB2F900C0B8F90010E21AA1EBCE
:102B80000C0151430029A0EB030202DD01EB6201BD
:102B900002E0A1EB6201491CC01A91FBF0F0604415
:102BA000C9E76D1CBD42FFF673AF0598009004EBBA
:102BB0000B00019000208046054613E01149B8F152
:102BC000000F31F915A009D0009901EB0A02084461
:102BD0000A490968C96E0B680199984788F001088D
:102BE00050466D1C064909688D42E7DB641CB442FF
:102BF0007FF747AF07B0BDE8F08F0000000100206D
:102C000044070020E485002010B5002002F0F6F80B
:102C10006FF07F4002F0F6F8012002F02BF900205F
:102C200002F030F9002002F037F9002002F0F2F84B
:102C30000448006802F0F0F8BDE81040002002F0FF
:102C4000F5B80000FC0000202DE9FC4701211F2001
:102C500004F070FE02268DF8056001248DF8044012
:102C600000258DF80650E00300906946324800F0D8
:102C70006DF88DF805608DF804408DF806504FF41E
:102C8000435000902D4F6946384600F05FF88DF8AC
:102C900005608DF804408DF8065041F2C230009076
:102CA000DFF89C806946404600F050F88DF80560DA
:102CB0008DF804408DF806504FF440500090DFF836
:102CC00084906946484600F041F88DF805608DF81B
:102CD00004408DF806504020009069461A4800F0E4
:102CE00035F88DF805608DF804508DF80740200206
:102CF00000906946384600F029F88DF805608DF897
:102D000004508DF80740E00200906946404600F00C
:102D10001DF864032146484600F06EF84021404605
:102D200000F068F84021404600F066F82146384639
:102D300000F062F8BDE8FC87000002400004024099
:102D400000080240000C024000100240F0B50022D2
:102D500001274FF0030C07FA02F40B682340A3424B
:102D60002DD1046853000CFA03F5AC4304600C79D0
:102D700006689C40344304600E79012E01D0022E77
:102D800012D18468AC4384604C7985689C402C43A4
:102D90008460456807FA02F4A543456044688D796C
:102DA0009540ADB22C434460C56856000CFA06F459
:102DB000A543C560CC799C40C3681C43C460521CC9
:102DC000102AC8D3F0BD10B54B07DB0E9A40C908D6
:102DD00000EB8100016A0F249C40A1430162016A5B
:102DE0001143016210BD0246002012690A4200D060
:102DF00001207047418370470183704770B50C46CE
:102E0000054600F0F1F8A8682168C16261680163B5
:102E1000A1684163490707D5D0E90021C0E9001244
:102E2000D0E90221C0E90212A18981842169002927
:102E300003D001DC4FF00001016270BD2DE9F041CB
:102E40001E4617468846054600F0CEF8AC68682254
:102E5000414604F58470FDF7F1FA2846B847284644
:102E6000B047286980688047A062BDE8F081000013
:102E700010B5044600F0B8F8A0680E494C30114A6D
:102E8000C1650D4981650D4901660D4981660021C5
:102E9000C166136843660C4BC0E91E315168416737
:102EA00030F8261C21F0030120F8261C0749416454
:102EB00010BD0000111701087D180108D91601087E
:102EC000E711010858010020B71201081D1601087A
:102ED00010B5044600F088F8A4680C48903410211E
:102EE00020650B4860650B48A0650B48E0650B4802
:102EF000E0600B482061206BA06654F890292046C2
:102F000090471020A0630748606410BD39CD0008C9
:102F1000D9E40008292F000859300008A111010840
:102F2000CD1B01081C970108F8B5846815460F46AB
:102F300094F8260080074CD5D4F8FC3020469847FA
:102F40000646D4F800312A46394620469847D4F838
:102F5000943005461BB10022012120469847206984
:102F6000B04201DD012000E00020A169B14201DA98
:102F7000012100E0002108436169A94201DD01212E
:102F800000E000210843E169A94201DA012100E0E3
:102F9000002108430AD06068401E00902368D4F8DE
:102FA000A4705B1E002211462046B847D4F8A83012
:102FB0002A46314620469847D4F89C102046884738
:102FC000D4F8943005466BB1012200212046984781
:102FD00008E0D4F8A83020469847D4F89C10204642
:102FE000884705462846F8BD70B504468068002825
:102FF00012D14FF4B875284600F066FB2A4600212E
:10300000A06003F00DF9A0680221C18401210464CD
:1030100001620249C0F8041170BD000021300008AF
:1030200010B590B0044620220A496846FDF706FA1A
:1030300008492022203108A8FDF700FA606B5DF8EE
:103040002010C4F8FC1008A951F82000C4F80001B1
:1030500010B010BDE45801082DE9F8438468984683
:10306000154694F826000F46800740D5D4F8FC306A
:10307000204698470646D4F800312A46394620466D
:10308000984705462069B04201DD012000E000209C
:10309000A169B14201DA012100E000210843616920
:1030A000A94201DD012100E000210843E169A942B4
:1030B00001DA012100E0002108430AD06068401EC7
:1030C00000902368D4F8A4705B1E002211462046AD
:1030D000B847D4F8A8302A46314620469847D4F855
:1030E000A02001B041462046BDE8F0431047D4F887
:1030F000A830F2E72DE9F04FDFF828B191B04FF09A
:10310000FF35DBF80030B3F922100691DE69B3F920
:103110002490F469A189814206D8E289824203D3CE
:10312000471AD4F8008012E0D4E9018100296FD059
:103130000A8882426CD84D88854269D3801A82B24F
:10314000486800EB8200B0F90070B0F90250781CBA
:103150005ED0307EA17C10FB01FA217CCDE9080114
:10316000B3F92A60304603F0CBFFC0B20E90DBF813
:10317000000007FB0A81A37C826B0127CDE90412C2
:10318000CDE90273C069DDE90832C17E807ECDE9F8
:1031900000014946069803F0B9FB681C18D046F0B8
:1031A000020003F0ADFFDBF80000A37C05FB0A8101
:1031B000826BCDE90273CDE90412C069DDE9083202
:1031C000C17E807ECDE900014946069803F09EFB52
:1031D000DBF800005D46C069417E007E814214D963
:1031E000022E12D086F0040003F08AFF2868C0691E
:1031F000027EC37E12FB0391437E857E099A069868
:103200004B4402FB050203F00FFD0E9803F078FF1C
:10321000DBF80000627C418C1144418411B0BDE8B0
:10322000F08F00000001002004480068C069C069F8
:1032300009B1027C0A60407C704700000001002058
:10324000022008807047C06982898A4202D8C289F8
:103250008A4210D2806880B102888A420DD84388A1
:103260008B420AD3406800EB8100A0EB8200B0F9EA
:103270000000002801DB012070470020704700009B
:103280002DE9F0432F4C034687B020681946B0F96A
:103290002A80C069C06900F0AEF900284ED04168AC
:1032A0000088181A01EBC0054046AE7803F028FFED
:1032B000814620686A680123816BCDE90236CDE939
:1032C0000421C169CB7E8A7ECDE900230B7EB0F953
:1032D00024102A78B0F9220003F018FB2068C06996
:1032E000477E067EB7421DD9C07E47434643B8F1AC
:1032F000020F17D001F0A7F8804601F087F801F01F
:1033000081FD21682A78CB69B1F92200DB7E12FBAE
:103310000302B1F92410CB19314403F085FC404677
:1033200001F070FD484603F0EBFE20686A78C3693F
:10333000B0F922109B7E12FB0311418407B0BDE857
:10334000F083000000010020F0B5244D044687B052
:1033500028682146B0F92A30C069C06900F012F926
:103360001F49097809B143F00203002834D04168AD
:103370000088201A00EB400001EB80042078C01D7B
:10338000C608184603F0BCFE07462868A268012359
:10339000816BCDE90236CDE90421C169CA7E897EFF
:1033A000CDE90012B0F9241094F90320B0F92200FD
:1033B000114494F9022063781044227803F0A6FAAD
:1033C000384603F09DFE28682279C369B0F92210BF
:1033D0009B7E12FB0311418407B0F0BD0001002069
:1033E0003401002030B5104C05460B4620682946B4
:1033F000C069C06900F0C6F8002813D04168008891
:103400002468281A00EB40020420E46900EB8200E3
:10341000085CA47E10FB04F0002B03D011F82210EE
:103420006143196030BD00000001002003460D48D3
:1034300010B500680C461946C069C06900F0A2F8D2
:1034400070B141680088181A00EB400001EB800061
:10345000D0E9001280682160C4E90120002010BD7D
:10346000012010BD0001002001200880704700B538
:10347000C06900F087F8002800D0012000BD0000DE
:103480002DE9F35F0E46002500F0DDFFDFF8A88090
:103490008346D8F8000090F82A00400702D500F0D3
:1034A000D2FF01E000F0B2FF01F0ACFCD8F8000060
:1034B0000024C1694A7EC97E12FB01FAB0F922904C
:1034C000B0F924701FE0684601F0F6FD0546D8F813
:1034D00000002946C069C06900F054F898B14168FD
:1034E0000088281A00EB400001EB800090F90210E0
:1034F00000790144D8F80000C069807E11FB00F01B
:10350000002800DD0444761EDDD51DB1284602F0FA
:10351000E9FC044407EB0A0309EB04025B1E48467E
:10352000521E394603F080FB584601F06BFC0349FC
:1035300001200870BDE8FC9F00010020340100203C
:103540002DE9F3410D4D0E4F0E462868B0F92A4083
:10355000A0070AD17A680098904706E0684601F013
:10356000ABFD2968C96909688847761EF6D5002031
:10357000387028684485BDE8FC8100000001002007
:103580003401002006E002888A4202D842888A423A
:1035900002D280680028F6D17047000030B50F4C89
:1035A00005460B4620682946C069C06900F023F82B
:1035B000002811D04168008824682A1A0120E46993
:1035C00000EBC200085CA47E10FB04F0002B03D0CB
:1035D00011F832106143196030BD00000001002075
:1035E00001200880704700B5C06900F004F8002889
:1035F00000D0012000BD06E002888A4202D842883D
:103600008A4202D280680028F6D17047002801D093
:1036100007F036BF704738B50546FFF7F7FF0400DF
:1036200009D000F0D3F82A460021009002F0F8FDFE
:10363000684600F0EDF8204638BD0000024A1060F0
:1036400021F0030050607047A884002010B50028C6
:1036500014D004460A48006B10F8341000290DD02D
:1036600002290BD2042101EBC4014158486807F03C
:10367000CBFE2046BDE810400DF080BD10BD00001F
:10368000EC830020002805D0034A916B016001B152
:103690004860906370470000EC83002010B504463A
:1036A0000068FFF7D3FF0020206010BD70B50D4605
:1036B0000646002405E000BF06EB8400FFF7EEFF9E
:1036C000641CAC42F8DB70BD2DE9F04104460BF000
:1036D0002FFF2648E41C24F00305C16B2D1DA942D1
:1036E00000D90D46846B13E054F8042CAA420ED185
:1036F00084B1216809B162684A60616809B12268D1
:103700000A60826BA2422ED1216881632BE024687B
:10371000002CE9D18046416B80680F1857F8040CE3
:103720003E1A306838B100200DF032FE57F8040C14
:103730003E1A3068B8B97068A84214DB3044441BA4
:1037400030460DF0DDFDD8F80810491BC8F8081008
:10375000D8F810102944C8F8101070683146401B82
:1037600007F052FE20C42046BDE8F081EC83002023
:1037700010B500240BF0DCFE0C490F2001EBC00259
:10378000126C1AB101EBC000006C08E0401EF5D5C8
:1037900008E04168A14200D90C46806810B18068F9
:1037A0000028F6D1A4F10C0010BD0000EC8300202D
:1037B000002138B10449042202EBC000096B08580B
:1037C00041680C3908467047EC83002005498A6936
:1037D000521C8A61096B01EBC0010A78521C0A7005
:1037E00000F02EB8EC83002010B5FFF7C1FF642273
:1037F0000649B0F5800F04D990FBF2F0C96948433F
:1038000010BDC9694143B1FBF2F010BDEC8300204B
:103810000A4902680B6B52F8082C03EBC2021378BA
:10382000022B03D38B690BB15B1E8B611178491E90
:10383000117000210160084670470000EC830020F1
:10384000002806D00349042202EBC000096B085887
:1038500008307047EC83002038B5002430B1FFF702
:10386000B5FF009004886846FFF7D2FF204638BDB8
:1038700038B50D46002448B1FFF7A8FF294600904F
:1038800000F016F804466846FFF7C2FF204638BD30
:1038900038B50D46002448B1FFF798FF294600903F
:1038A00000F018F804466846FFF7B2FF204638BD1E
:1038B00038B50D4601880024A94209D9406838B1BD
:1038C000FFF784FF009050F825406846FFF7A0FFFF
:1038D000204638BD10B50024FFF7EAFF10B1FFF70E
:1038E00075FF0446204610BDF0B52D271C68B0F1C9
:1038F000004F08D0002500280DDA661C1E602770D6
:103900004042012408E0661C01251E606FF0004063
:103910002770491E01E00024091BC9B22AB3491EC1
:10392000C9B222E00C46491EC9B2944205D1124CDC
:1039300027781C68661C1E602770104C54F82160A4
:1039400090FBF6F4E4B20A2C11D804FB160011B96E
:103950000DB1641CE4B20A2C02D10124491CC9B285
:103960001E683034771C1F6034700029DAD1196862
:1039700000200870F0BD0000F4000020389A010813
:1039800010B5136808290FD85C1814600022227043
:10399000064A04E000F00F040009145D5C540C00BA
:1039A000A1F10101C9B2F5D110BD000000E3010889
:1039B00010B5002807DD0A682B24531C0B60147017
:1039C000096800220A7010BD10B5C2B2CBB2D21A7B
:1039D00002D5C2F1000212B293B2C0F30722C1F3C2
:1039E000072403FB03F3121B01D5524212B2000C51
:1039F00092B2A0EB114002FB023200B2002801DAC1
:103A0000404200B280B200FB002010BD10B5002182
:103A1000084600F075FD40F6FF725042BDE81040C8
:103A200013460146AFF300802DE9FC4107461C46D2
:103A300015460E46042003F063FB80461148C0681B
:103A4000C16C006D0F4406440D440444ADF8007091
:103A5000ADF80450ADF80260ADF80640684607F0D6
:103A60000BF907E023462A463146384603F0DCF8D6
:103A700007F0B6F80028F5D1404603F041FBBDE859
:103A8000FC810000F4000020B0F90630B0F90420F9
:103A9000B0F90210B0F90000FFF7C6BF2DE9F843F6
:103AA0001C00DDE9089816460F46054602D106F0CF
:103AB0000DFC044600962E6843464A462146284699
:103AC000B047060035D006F0F5FB8146698A3046DE
:103AD00005F04AFF304606F069FF484606F066FFEB
:103AE0004FF000080CE000BFCDF8008055F81CCF67
:103AF00000231A4649462846E047E0B106F056FF43
:103B00007F1E002FF0DC1D21484606F04CFE601C95
:103B10000ED006F0F7FB30B1FFF792FE8469B44295
:103B200001D02000F8D1B44202D0304606F0CAFEDF
:103B30003046BDE8F883304606F0FAFA0020F8E790
:103B40002DE9F0411C4616460D460746022B02DBC6
:103B50000020BDE8F0811C20FFF7B6FD0028F8D05A
:103B60000DB105610AE0094A52F8241009B905E0CF
:103B700011460A68002AFBD10969016184618682C5
:103B8000002101604160C0E90217E2E7180100204E
:103B900070B51D46FFF7D4FF040001D000F00EF809
:103BA000E068006820B90348006800EB8500846580
:103BB000204670BD00010020FFF764BD70B590B3D2
:103BC0008269022A30DA1C4C54F8221019B944F8E0
:103BD00022002FE019464B68002BFBD106E0CB6892
:103BE000C5681B682D68AB4203DD09680029F6D162
:103BF0001AE0C1B1CB68C6681B683668B3420CD105
:103C0000838A012B05D008E01946DB681B68AB42AC
:103C100003DB0B68002BF7D129B14B6833B1186077
:103C20004A68426004E0FFE7012070BD44F82200CA
:103C300048600160002070BD180100200DF09ABF9F
:103C4000022801DB00207047054951F8200004E0FC
:103C5000C16809680029F6D000680028F8D17047CB
:103C6000180100202DE9F8431D4616468846040039
:103C70000CD0FFF7ABFD0090006807686846FFF7BF
:103C8000C7FD2B46324641462046B847BDE8F8837B
:103C900038B504004FF000000AD02046FFF796FD2B
:103CA0000090006845686846FFF7B2FD2046A847C7
:103CB00038BD38B504004FF000000AD02046FFF7A9
:103CC00085FD0090006885686846FFF7A1FD2046E5
:103CD000A84738BD70B5044601F04EFB051908E051
:103CE00000F042FB052C01DD052000E0204601F03C
:103CF00037FB01F041FB2C1A002CF1DC70BD7FB5C5
:103D00001E4614460D46CDF80CD003AB00223146BA
:103D1000FFF7EAFD22462946684600F0A3F87FBD7A
:103D20001FB503ABCDF80CD0FFF7DEFD684600F001
:103D300019F81FBD002207F0CBBF7FB50C46154612
:103D4000CDF80CD003A9FFF733FE002801DD641E77
:103D5000E4B203AB2A462146FFF7C6FD684600F0F1
:103D600001F87FBD2DE9FC4706005BD000F072FB37
:103D70003B4C81462068B0F9228000F093FB21681B
:103D800007468A8CD01B888441E000BF47F6FF714C
:103D9000304602F06FF882460146304602F040F8A5
:103DA0002168054691F82C0000F0030001283FD05F
:103DB000022839D000204A8C101A4884ADF800003F
:103DC0006A1E1044ADF80400888CADF80200A9F119
:103DD00001010844ADF806006A465146304601F03C
:103DE000B5FC2168BDF8020088845146304601F0D8
:103DF00079F9064430780A281CD00D281AD0BDF86D
:103E00000000216828444884307818B1761C307846
:103E10000028BBD12068818C39448184818D21F0B8
:103E200003018185BDE8FC8705EBD5704010C2E732
:103E30002846C0E7206890F82C1001F00301012902
:103E40000BD0022909D0018C418431780A29DBD1B9
:103E5000828C02EB09018184D6E7A0F82280F4E786
:103E600000010020024B1B6859849A84FFF77ABF37
:103E70000001002047F6FF73AFF300802DE9FC41FD
:103E80001F46904606000D464FF0000416D065B15F
:103E9000084606F07FFD040007D002462946684622
:103EA00002F055F8684606F075FD3B464246294645
:103EB000304601F0A3FC204606F06CFDBDE8FC8115
:103EC0002DE9FF4F85B090468A46070078D00C68F0
:103ED000DAF8046021B230B2401A401C029000F0BF
:103EE000B9FA054618F00C0F1ED03846089A029908
:103EF00001F013FA08F00C01042904D0082902D0BB
:103F00000C2911D104E0311400FB1510401C09E00C
:103F10002114C1EB264200FB1520401C00EBD070A1
:103F200001EB600060F31F44504600F069FFA5F10B
:103F3000010B04903846089A029902F03FF9039069
:103F40004FEA244909EB0B0060F31F46CDE9004618
:103F50003846039901F064FF18F003010ED00129DF
:103F600028D002290ED1BAF90420BAF90010521A49
:103F7000101A00EBD07001EB600001E0BAF800000D
:103F8000ADF800006A463846039901F0DFFB384679
:103F9000089A029902F008F9074409EB050060F35A
:103FA0001F4438780028C5D1049809B0BDE8F04F07
:103FB00000F026BFBAF80410081A401CE0E7FFE73B
:103FC00009B0BDE8F08F00007CB5064610480068D7
:103FD000C36C006D5D1884183188681E0844ADF804
:103FE0000400ADF800507188601E0844ADF806006A
:103FF000ADF80240684606F03FFE06E0224629463C
:104000003046FEF7E1FA06F0EBFD0028F6D17CBD64
:10401000000100201CB50A460146684602F078F807
:104020002448BDF80010006830F84C2F1144ADF85A
:104030000010BDF8021082881144ADF80210BDF8DE
:10404000041002881144ADF80410BDF806108088F1
:104050000844ADF80600684606F00EFE27E000BFF3
:10406000BDF900400BE000BFBDF90210204602F090
:104070007DFDBDF90610204602F078FDA41CBDF9B7
:104080000400A042F0DABDF902400AE0BDF90000E8
:10409000214602F06BFDBDF90400214602F066FDE9
:1040A000A41CBDF90600A042F0DA06F099FD002834
:1040B000D6D11CBD000100202DE9F04F0C46164959
:1040C00087B00D68DDE91098E96C0F18286D8D1820
:1040D0000619C418ADF81070ADF81450ADF81260A0
:1040E000ADF8164004A806F0C7FD002811D0DFF88F
:1040F0002CB04FF0000ACDE90098CDE902BA2B466A
:1041000022463946304609F015FB06F069FD0028C5
:10411000F1D107B0BDE8F08F00010020D56B000899
:104120002DE9F04F164C87B02568DDE91098EC6C4E
:104130002718286DA5184618C418ADF81070ADF8EA
:104140001450ADF81260ADF8164004A806F094FDC6
:10415000002811D0DFF82CB04FF0010ACDE900980B
:10416000CDE902BA23462A463146384609F0E2FA3A
:1041700006F036FD0028F1D107B0BDE8F08F000051
:1041800000010020156B00082DE9FC41104F04468A
:104190003B68D86C4518196DADF800500E1984189D
:1041A000ADF80440ADF80260ADF80660684606F070
:1041B00063FD08E0386822463146C06E0368284631
:1041C000984706F00DFD0028F4D1BDE8FC81000001
:1041D000000100202DE9F0410B4C2568EC6C2718FC
:1041E000286DA5184618C418002006F045FD07E004
:1041F00023462A4631463846FEF734FA06F0F0FCEC
:104200000028F5D1BDE8F081000100207CB50E4DFD
:104210002A68D36C1E18106DADF804604418ADF810
:104220000060ADF80640ADF80240684606F024FD97
:1042300007E028682146C06E42683046904706F085
:10424000CFFC0028F5D17CBD000100202DE9FC4108
:104250001C4C2468E66C94F818C03718206DACF13B
:10426000010C4518C418A7EB0C001644ADF800006B
:1042700006EB0C00ADF80400A5EB0C00ADF8020055
:1042800004EB0C00ADF80600684606F0F5FC15E0FE
:1042900032462946384602F03DFC32462146384631
:1042A00002F038FC621E691C384602F093FC621E64
:1042B000691C304602F08EFC06F092FC0028E7D123
:1042C000BDE8FC81000100207CB50E4B1B68DC6C56
:1042D0002618186DADF8006045188418ADF8046014
:1042E000ADF80250ADF80640684606F0C5FC06E0A1
:1042F00022462946304602F06DFC06F071FC00288B
:10430000F6D17CBD0001002010B5044601F032F862
:1043100004490968002903D02046BDE81040084739
:1043200010BD00006805002030B59DB00D46044664
:10433000CDF870D06F220021684601F071FF642231
:104340002146684607F01EFB6846FBF7D1FF1C9923
:104350001CAA08441C900821284601F014F868465D
:10436000FFF7D2FF1DB030BD10B5002400E00124DE
:1043700000F004F80028FAD1204610BD064810B518
:104380000068002410B1804700B1012405F034FF1B
:1043900000B10124204610BD200100202DE9FC4180
:1043A0000F4C2568EC6C2718286DA5184618C41802
:1043B000ADF80070ADF80450ADF80260ADF80640FD
:1043C000684606F059FC07E023462A46314638463F
:1043D00002F02AFC06F004FC0028F5D1BDE8FC81BF
:1043E00000010020B0F90630B0F90420B0F9021045
:1043F000B0F90000FFF7D2BF034951F82000C168AF
:104400008A6A0821104700001801002010B502F048
:104410003BFCBDE8104002F0B3BC00000249096853
:10442000C9694A680021104700010020024A126849
:10443000D26952681047000000010020002801D016
:1044400005F028BF704710B502F026FCBDE810400B
:1044500002F096BC02480068C069407E70470000C8
:104460000001002010B906480068C0690830027ECB
:104470008A70827E0A71427ECA7050F808291047FD
:104480000001002001F0C2BC01F01EBD10B50446C1
:1044900001F00CFD01462046BDE8104001F0C0BC13
:1044A00000F06ABF0A490020096891F82C2002F048
:1044B0000C02042A07D0082A01D00C2A02D1C869AC
:1044C000007E40087047C869007E401E70470000AB
:1044D00000010020017EC07E11FB00F0704700004B
:1044E000024951F820000069006870471801002057
:1044F000024951F820000069406870471801002007
:1045000070B50D460AF076FF044628460AF07AFF99
:10451000204370BD124810B5016821F0010101600F
:104520001048012181601049016000680F498842EC
:1045300000D0FEE701F0F0F80D492E20087000F0E1
:1045400021FF0C480AF0BCFF0EF036FD04460021A6
:10455000084600F073FC05F055FF204610BD000032
:10456000002000E000300240C2A507F4CDB5E8B558
:10457000F4000020B48400201CB520B90C48006869
:10458000006E002812D0FFF721F9009044696846B8
:10459000FFF73EF9002C09D02046FFF717F90190EC
:1045A00081688968884701A8FFF732F91CBD0000BF
:1045B0000001002001490A4600F002B801F0FFFFA7
:1045C0002DE9F04387B015460C465FEA000842D05B
:1045D000002000F01FFC814620480068066E40461F
:1045E000FFF7F4F800900068806900F0F5FB0746DB
:1045F00040F6FF70001904D10098B0F90440B0F9FA
:1046000006500098611E0289ADF804401144ADF8CF
:1046100008104189681E0844ADF80650ADF80A003C
:1046200005F02EFC6846FFF7F3F801A806F024FB1E
:1046300006E02A462146404600F0F8FA06F0D0FA95
:104640000028F6D1384600F0C7FB304600F048F9A4
:10465000484600F0DFFB07B0BDE8F0830001002012
:104660002DE9FE4F834619488A46194900680C9E79
:104670009846407C9146002751F82040E16809683F
:10468000042903D02468002CF8D100E014B9FFF706
:10469000D7FA04460121E068C26A20469047050027
:1046A00011D02469A0688047401C02D1094C46F013
:1046B00001060096CDE9015443464A465146584604
:1046C00000F09AF907463846BDE8FE8F0001002049
:1046D0001801002090D2010838B5040018D00D4808
:1046E0000068006EA04201D100F06CFB2046FFF78D
:1046F0006DF80090406908B100F0FDFD0098006879
:10470000FFF75AFA6846FFF783F82046FEF79EFF48
:1047100038BD0000000100202DE9FF4F83B0454C5B
:10472000DDF840B098468A4607002BD002A901A8C0
:10473000FFF7AAFEB7F90060002E00DA0026B7F9ED
:104740000250002D00DA00252068A146407C02F0CE
:10475000D7FA01990144491EB7F904000AF0EFFFA6
:104760000446D9F80000407C02F0D0FA02990144D6
:10477000491EB7F906000AF0E2FFA71B7F1C441B85
:10478000641C0BE0206800263546407C02F0B8FA35
:1047900007462068407C02F0B9FA0446B8F1000FE1
:1047A00001D1C4F10008002F01DD002C03DC002042
:1047B00007B0BDE8F08F43463A4629463046CDF86B
:1047C00000B0FFF74DFF5FEA000909D000F054F890
:1047D0008046484600F084F80027DFF85CB01FE010
:1047E0005146059888470120E2E7E11B414502DA7E
:1047F000484600F05FF83FB1EA193146484600F0FC
:1048000099F84846FFF7B8FE514605988847DBF807
:10481000001009B1002088474846FFF7CBFE474407
:10482000A742E2DB4846FFF757FF002000F058F8A8
:10483000BDE7000000010020AC05002038B50024D1
:1048400060B1FEF7C3FF0090006800698068804790
:1048500002F006FE04466846FEF7DAFF204638BD41
:1048600038B5FEF7B3FF00F1180400906846FEF774
:10487000CFFF204638BD000038B5002418B90748DE
:104880000068006E38B1FEF7A1FF0090B0F90A4051
:104890006846FEF7BDFF204638BD0000000100203D
:1048A00010B507F053F9002803D0BDE8104000F020
:1048B0006DB810BD38B50C4620B908480068006EC8
:1048C00000280AD0FEF782FF0090B0F90A10A1423A
:1048D00000DD44816846FEF79BFF38BD00010020E3
:1048E000F8B5134E05003068046E0CD00CB100F022
:1048F00069FA05F0DFFB2846FEF768FF0090316893
:104900000A6E1AB106E000F05DFA0EE0D1E902236A
:10491000C1E919230D660068FFF750F96846FEF7F4
:1049200077FF02F035FC02F0CBFB2046F8BD00001B
:10493000000100207CB515460C4620B912480068DD
:10494000006E00281FD0FEF741FF2DB20090C580F9
:1049500024B2848002F0B4FB0098406980B1FEF775
:1049600035FF009A0190B2F908108180B2F90A204F
:10497000C28011B10AB10480458001A8FEF748FF4A
:104980006846FEF745FF7CBD0001002001490A464C
:1049900000F002B801F0FFFF7FB515460C46060097
:1049A00028D0FEF713FF40F6FF710190091903D1DB
:1049B000B0F90440B0F906500289611E1144ADF807
:1049C0000840ADF80C104189681E0844ADF80E008F
:1049D000ADF80A5001A8FEF71BFF02A806F04CF93B
:1049E00006E02A462146304600F008F906F0F8F8BD
:1049F0000028F6D17FBD00002DE9FF4FDFF8E0B0C1
:104A000083B01C46DBF80010DDE9106092460027F9
:104A10004B7C3A461299FFF793F805005DD0286960
:104A20008068804702F01CFD81460AFB09F0C01D2A
:104A30004FEAD008FEF7D8FEF10705D1C11700EB09
:104A40009170801000EB4000002C06DC1838B0FBA1
:104A5000F8F06442A04200DC0446F00707D1009061
:104A6000DDE903012346524600F0BCFB0746002C5B
:104A700003DC2846FFF7A0F82FE004FB08F018300D
:104A8000F10702D0FEF7C2FD01E0FEF7C4FD06000B
:104A90001CD0FEF79BFE019005600399818004996C
:104AA000C180A0F808A04481C0F80C80C0E9049738
:104AB00001A8FEF7ADFE1298AE602861DBF8000099
:104AC000407CA861304607B0BDE8F08F2846FFF76C
:104AD00073F817B13846FEF7B9FD0020F3E7000080
:104AE000000100202DE9F74F92B090461298FEF792
:104AF0006DFE0B90B0F908100691B0F90A100D91F7
:104B000000680069D0F804B00BA8FEF781FE384CAD
:104B1000384D2068407C55F82000C1688A6A082119
:104B200090478146182801D34FF020092068407C27
:104B300055F820000069079003C80C902E48814268
:104B400001D0012000E000201090002000F028FC9F
:104B5000002849D10026DDE91207B2460FAB069CBA
:104B60004546761C0193FFF77BFE014604FB0AF0E5
:104B700001EB8002234629463846CDF800B000F00C
:104B8000EDFE050030D01098D0B1DDE906134A469D
:104B9000284600F006FD98B9DDE906702C46D0F8ED
:104BA00010C0BCF1000F05D0294604233A46084640
:104BB000E04705E00C992068884701C47F1EF9D1C1
:104BC0000020CDE90305059001200090CDE9010901
:104BD0004146034608F10108069A139801F096FE33
:104BE0000D98401E0D90B6D115B0BDE8F08F0000B5
:104BF00000010020180100209F6D0008F8B515463F
:104C00000E460746FEF7E2FD009000681621C068D8
:104C1000426A0020904704466846FEF7F9FD002CE2
:104C200003D02A4631463846A047F8BDF8B51546A8
:104C30000E460746FEF7CAFD009044696846FEF737
:104C4000E7FD3846FFF7FAFD0346082800DD2CB1E2
:104C50002A46314638460CF0CFFFF8BD2A46314689
:104C600038460DF061F9F8BD10B5002821D009B320
:104C70000AB3B1F90040B2F900309C4200DA234691
:104C80000380B1F90240B2F902309C4200DA2346B7
:104C90004380B1F90440B2F904309C4200DD234660
:104CA0008380B1F90610B2F90620914200DC11466A
:104CB000C18010BD11460A6802604968416010BD9C
:104CC00000280BD003880B4403808388194481801B
:104CD000418811444180C1881144C180704700005F
:104CE00070B5094C0020D4E900218A420AD0D2E9EB
:104CF000005610460AF09CFB20603146284605F01D
:104D000087FC012070BD00006C0500202DE9FC41EE
:104D1000154DDDE908742D68B5F90860864200DD9F
:104D20003046B5F90C60964200DA3246824219DB11
:104D3000B5F90A608E4200DD3146B5F90E509D424C
:104D400000DA2B468B420DDB00E02C46E5682D682F
:104D500025B1042D02D02568002DF6D1CDE90074CF
:104D600002F096F8BDE8FC8100010020B0F90220B5
:104D7000B1F906309A4213DCB1F90220B0F90630DD
:104D80009A420DDCB0F90020B1F904309A4207DCF8
:104D9000B1F90010B0F90400814201DC0120704734
:104DA000002070470146024878220068FBF746BBA6
:104DB00000010020024978220968FBF73FBB000090
:104DC0000001002010B502F02FF902F0E1F9BDE872
:104DD000104005F055B8000070B504460548022C97
:104DE0000068457C02D24474FFF7ECFF024804607F
:104DF000284670BD000100200C05002002F036B9E5
:104E000005F0C8BD02F06AB901498860704700002A
:104E1000F400002002F074B903490968CA6900B1BE
:104E2000C86110467047000000010020024909686F
:104E30008A7E88761046704700010020094A30B407
:104E40001080094A1180094A1268537C084A52F8B6
:104E50002330DA68146A0A46A446014630BC184674
:104E600060470000300100203201002000010020D6
:104E700018010020024909680A7E0876104670472A
:104E80000001002003490968B1F92C2088851046EB
:104E9000704700000001002003490968B1F92A2089
:104EA0004885104670470000000100200248006855
:104EB000002800D0004770478C05002002498A680E
:104EC00002B98860FFF7F2BF6C0500202DE9FC41B4
:104ED0000746984615460E461C20FEF79CFB04002C
:104EE00028D01949174808602046FEF76FFC00904B
:104EF0000760C0E90456A0F80C806846FEF788FCFD
:104F000020460AF0A7FB114DA86840B90120A8600F
:104F100005F10C010E480860084601F007F920462B
:104F2000FEF754FC0190296839B181602C6001A81A
:104F3000FEF76EFC2046BDE8FC8100212C608160FC
:104F4000F5E70000714F00082001002078050020DF
:104F5000B1F8000810B5040009D00CF0EBF92046B8
:104F60000CF0E0FD2046BDE81040FEF76FBB10BD21
:104F70002DE9F041184C88B00025676825E000BF96
:104F8000FFF78EFA06466068FEF720FC0190416943
:104F9000891B002915DC616802960491016903915F
:104FA00046686660D0F8008001A8FEF731FC02A8D0
:104FB0004146884766B160680125B84205D10025A1
:104FC00006E001A8FEF724FC02E060680028D7D1C3
:104FD00008B02846BDE8F0817805002038B50C46B9
:104FE00060B1FEF7F3FB00908089204201D00124DC
:104FF00000E000246846FEF70BFC00E00124204698
:1050000038BD38B5040012D0FEF7E0FB0090FFF782
:1050100047FA014600988269114441616846FEF7EB
:10502000F7FB20460CF07EFD20460AF013FB38BD4E
:1050300038B50C46002806D0FEF7C8FB0090846106
:105040006846FEF7E5FB38BD38B505460020286008
:105050000648046844B12046FEF7B8FB009000699A
:1050600028606846FEF7D4FB204638BD780500204E
:1050700038B504004FF000000D46086011D02046FE
:10508000FEF7A4FB0090846844B16846FEF7C0FBBD
:105090002046FEF79BFB0090006928606846FEF7FB
:1050A000B7FB204638BD0000024901480860704740
:1050B000A0580108040100202DE9F041084E0446E3
:1050C00005683068016828468847074630684168A7
:1050D00028468847284420603846BDE8F081000013
:1050E000040100202DE9F0410C4606460025064F3C
:1050F00005E0386841683046884706440544641E28
:10510000F7D22846BDE8F081040100202DE9F041E6
:105110001E46069C1746884605463A46A8687F1CE8
:105120003346D0F804C041462846E047641EF4D117
:10513000BDE8F08170B5B0F90040091BB0F904403A
:105140008C422CDD00F11404B0F902500069521BAE
:1051500002FB0040CA1800EBE104521ED010B0EB75
:10516000E10501F007034FF0FF0102F0070221FA09
:1051700003F0C2F1070201FA02F1CEB221780FD09A
:1051800001436D1E04F8011B002D05DDFF22294699
:105190002046FBF785F92C4420783043207070BD01
:1051A00030400143217070BD10B5B0F90030B0F946
:1051B0000240C91A00F114030069121B02FB0030FF
:1051C00000EBE10001F0070302788021D9400A4397
:1051D000027010BDB0F90610026951431430FBF79C
:1051E00067B900002DE9F843804602F10F00001175
:1051F000470003FB07F01C46154689461430FEF7AE
:105200000AFA060013D0FEF7E1FA0090A0F8008039
:10521000A0F802908580C4800649816001218181C7
:1052200007616846FEF7F4FA3046BDE8F8830020CF
:10523000FBE7000054E1010870B5B0F90660B0F971
:1052400004400B6800F11405964220DD0069A3427A
:1052500002FB005000EBE30219DAA4F101044FEA6B
:10526000E400A0EBE30512F8010B03F0070400FAD9
:1052700004F0C4B208E055B112F8014B03F1080381
:10528000A5F1010523F00703002CF4D008E000206D
:1052900070BD00BF4FEA44604FEA106403F10103A0
:1052A0002006F7D5FF2C0AD0184605E04FEA4464E3
:1052B0004FEA146400F101006606F7D400E0D81D3F
:1052C000C443640706D007E012F8014BFF2C0FD14E
:1052D00000F108006D1EF7D5A0EB030000F10100FE
:1052E0000B6070BD4FEA44624FEA126400F10100A6
:1052F0002206F7D4F0E738B50546FEF767FA0090C6
:105300008189491E0CB284816846FEF781FA002C1F
:1053100002D12846FEF79AF938BD2DE9F04116462C
:105320000F460546002432463946284600F03CFF29
:10533000054408B1641CF6E72046BDE8F081000092
:1053400010B54FF4F0410448FEF778F9BDE810407D
:105350000248FFF759BD0000EC0B00206C900108DB
:1053600003490A6810440A68821A002AFBDC704765
:10537000C400002070477047014800687047000073
:10538000C4000020704730B4136820241C703024FF
:105390005C7078249C70DB1C136030BCFEF7F0BAA4
:1053A0000EB508B102AA00E00022002301A9684658
:1053B00000F0E4FC0EBD0000074910B5CC6818B140
:1053C0000120C860801E03E00020C8606FF07F40AD
:1053D00001F086FA204610BD480700202DE9F04173
:1053E000984616460C4688B3FFF750F8074608F073
:1053F0000300012825D0022817D0B4F9005000BFBF
:10540000FFF728F8014608F00C0004282BD00C28E0
:105410001DD0B4F9020035807080EA19521E08448C
:10542000B280401EF080BDE8F081B4F90400B4F908
:105430000010401AC01B401C00EBD07001EB60054F
:10544000DEE7B4F90400C51B6D1CD9E710E0B4F920
:105450000600B4F90220801A401A401C00EBD070FC
:1054600002EB6000D7E7B4F90600401A401CD2E70F
:105470002068306060687060D5E710B5082A0EDCDF
:105480000346012A1AD0022A58D0042A78D010F8EC
:10549000042B03F8012B491EF9D1012010BD102A5D
:1054A0000ADC0222022AF8D1024630F8043B22F834
:1054B000023B491EF9D1F0E7002010BD10F8042B83
:1054C000D207120E491E34D010F8044B491E04F0C6
:1054D000010442EA84122CD010F8044B491E04F057
:1054E000010442EA441224D010F8044B491E04F08F
:1054F000010442EA04121CD010F8044B491E04F0C7
:10550000010442EAC40214D010F8044B491E04F00E
:10551000010442EA84020CD010F8044B491E04F046
:10552000010442EA440204D010F8044B04F00104E0
:10553000224303F8012B0029C0D1AEE710F8042B59
:105540009207120E491E15D010F8044B491E04F0A4
:10555000030442EA04120DD010F8044B491E04F073
:10556000030442EA840205D010F8044B04F003045B
:105570002243491E03F8012B0029DFD18DE7FFE705
:1055800010F8042B1207120E491E05D010F8044B18
:1055900004F00F042243491E03F8012B0029EFD128
:1055A0007BE72DE9F0411E680D460446082A09DC18
:1055B0000746012A21D0022A62D0042A7CD0082A78
:1055C0001AD195E0102A03DC02200228F8D102E06B
:1055D0000020BDE8F081D3F810C02746BCF1000FD1
:1055E00004D00A462146022308468AE001CCB0478F
:1055F00027F8020B6D1EF9D18BE001CCB047C00734
:105600004FEA10686D1E36D001CCB04748EA8010D2
:1056100000F0FF086D1E2ED001CCB04748EA4010C4
:1056200000F0FF086D1E26D001CCB04748EA0010FC
:1056300000F0FF086D1E1ED001CCB04748EAC00044
:1056400000F0FF086D1E16D001CCB04748EA80007C
:1056500000F0FF086D1E0ED001CCB04748EA4000B4
:1056600000F0FF086D1E06D001CCB04740EA0800EC
:1056700000F0FF086D1E07F8018B002DBDD148E03A
:1056800001CCB04780074FEA10686D1E18D001CCDE
:10569000B04748EA001000F0FF086D1E10D001CCA2
:1056A000B04748EA800000F0FF086D1E08D001CC2A
:1056B000B04740EA080000E007E000F0FF086D1E78
:1056C00007F8018B002DDBD123E001CCB0470007A8
:1056D0004FEA10686D1E06D001CCB04740EA0800C2
:1056E00000F0FF086D1E07F8018B002DEDD110E0D2
:1056F000D3F810C0BCF1000F05D00A4601460123C3
:105700003846E04705E001CCB04707F8010B6D1EB5
:10571000F9D101205DE700000A4810B58169002930
:105720000ED101218161FFF70BFE01F043FD054918
:1057300005481C310860BDE81040084600F0F6BC82
:1057400010BD0000F400002051F800087CB50646AA
:1057500028480D46006868B1002005F08DFA06E083
:105760006A462946304606F0D3FA05F039FA002891
:10577000F6D17CBD106800901F4C506801902268E3
:10578000BDF8000032F84C1F0844ADF80000BDF829
:10579000020091880844ADF80200BDF804001188A9
:1057A0000844ADF80400BDF8060091880844ADF83F
:1057B0000600684605F060FA0EE000BF2068BDF8FC
:1057C00000106A464184BDF80210818429463046A3
:1057D00006F09EFA05F004FA0028EFD1206830F8B0
:1057E000221F428D891A01804188C28D891A418009
:1057F0007CBD00002C010020000100202DE9FF4F9E
:1058000085B09A4690460D46FEF724FE4FF00009FB
:10581000DDF814B006464C4625B12868009068684B
:10582000019002E06846FEF709FE18F00C0F02D066
:105830005546002713E0BDF902402DE07F1C2946A4
:10584000059800F017FB01466D1A0598FFF74AFC12
:1058500005990844059005A800F050FB08B9002DF3
:10586000ECD108F00C00042804D0082802D00C2841
:1058700012D105E0BDF9060007FB1604641C0BE01D
:10588000BDF90600BDF90210401A07FB1600401CC6
:1058900000EBD07001EB60045546CDF814B043E046
:1058A0002946059800F0E6FA07460146ED1B0598E3
:1058B00000F0B6FA18F003010ED0012939D0022900
:1058C0000DD1BDF90410BDF90020891A091A01EBA8
:1058D000D17102EB610101E0BDF900108946174A60
:1058E000401E484412683946A2F822909484ADF8CC
:1058F0000C00A019401EADF80890ADF80E00ADF8F0
:105900000A4002AA0598FFF721FF39460598FFF7DC
:10591000E9FB059908440590FEF79CFD044405A8A1
:1059200000F0ECFA002801D1002DB9D109B0BDE892
:10593000F08FBDF90410091A491CCFE700010020BF
:1059400049B1002802DAA0EB610001E000EB610040
:1059500090FBF1F070470020704700002DE9FF4FE9
:1059600000208BB004460146009019981D4616464B
:10597000016007AB002203A902A800F0FFF918B1EB
:1059800000200FB0BDE8F08F0798854200DD054686
:105990005C4F0A955C493868407C51F820100491AE
:1059A00009690691FEF728FD05903868407CFEF7EE
:1059B0009FFD56498146884204D05549894501D00A
:1059C000012000E00020099001CE18998847824606
:1059D0005FEA106B71D0009870BB0B9800EB040865
:1059E00048480068B0F90800404503DDA0EB08070F
:1059F000804600E000270299049801EB840101EB46
:105A00008701CDE90010DDE90A010A180C9B089214
:105A1000521E19464046FFF779F90120009005987B
:105A200018280ADA0298DDE9052300EB840000EB70
:105A30008700E91B00F0D0F810E0099870B10298D7
:105A400000EB840000EB87070898A0EB08084946A4
:105A50003868884701C7B8F10108F8D12D48C069F6
:105A600060B3DDE9020700EB840007EB8402CDE9B7
:105A70000202284C361F2B46E46930460299A047A3
:105A8000FF203168B0EB116F02D10299096804E080
:105A9000029A1268B0EB126F01D1039A1160029959
:105AA000361D091D02910399091D03916D1EE8D150
:105AB00019990120039708601DE01EE0FFE7BBF184
:105AC000FF0F0ED00298CBF1FF0250F82410504681
:105AD00000F0C4FA039941F82400199901200860E4
