:020000040800F2
:10000000F88D002095020008BFDA0008B9920008B8
:10001000BDDA0008192200082D4101080000000087
:10002000000000000000000000000000A113010813
:10003000EF3B000800000000F9F70008ED2401087C
:10004000AF020008AF020008AF020008AF020008CC
:10005000AF020008AF020008AF020008AF020008BC
:10006000AF020008AF020008AF020008AF020008AC
:10007000AF020008AF020008AF020008AF0200089C
:10008000AF020008AF020008AF020008AF0200088C
:10009000AF020008AF020008AF020008AF0200087C
:1000A000AF020008AF020008AF020008AF0200086C
:1000B000AF020008FD2901082D2B0108AF0200083E
:1000C000AF020008AF020008AF020008AF0200084C
:1000D000AF020008A13C0108AF020008F53D01088D
:1000E000AF020008AF020008AF020008AF0200082C
:1000F000AF020008AF020008AF020008AF0200081C
:10010000AF020008AF020008AF020008AF0200080B
:10011000AF020008AF020008352C0108AF0200084A
:10012000113A0008AF020008AF020008AF02000851
:10013000AF020008AF020008AF020008AF020008DB
:10014000AF020008AF020008AF02000805E4000893
:10015000AF020008AF020008AF020008AF020008BB
:10016000AF020008AF020008AF020008AF020008AB
:10017000AF020008AF020008AF020008AF0200089B
:10018000AF020008AF02000800F002F800F072F8B9
:100190000AA090E8000C82448344AAF10107DA45E2
:1001A00001D100F067F8AFF2090EBAE80F0013F0C2
:1001B000010F18BFFB1A43F001031847C0220300C8
:1001C000E02203000A444FF0000C10F8013B13F04A
:1001D000070408BF10F8014B1D1108BF10F8015BA0
:1001E000641E05D010F8016B641E01F8016BF9D193
:1001F00013F0080F1EBF10F8014BAD1C0C1B09D1EA
:100200006D1E58BF01F801CBFAD505E014F8016B5B
:1002100001F8016B6D1EF9D59142D6D370470000ED
:100220000023002400250026103A28BF78C1FBD8FF
:10023000520728BF30C148BF0B607047662924F0C1
:10024000CE83642900F08480002070471FB524F01D
:10025000BCFB00F0CFFD04000020002123F060FE75
:10026000401C60600020002123F044FEE0601FBDC0
:1002700010B510BD00F00AFF1146FFF7E7FF23F0AD
:1002800045FA00F036FF03B4FFF7F2FF03BC00F0BD
:1002900077FF00000948804709480047FEE7FEE76E
:1002A000FEE7FEE7FEE7FEE7FEE7FEE7FEE7FEE726
:1002B00004480549054A064B70470000B52501086A
:1002C00089010008F8870020F88D0020F8890020B7
:1002D000F88900200FB41CB5074B06AA7B44694679
:1002E0000090059800F0CBFC0020694600F0DAFC95
:1002F0001CBC5DF814FB0000C509000070B5044685
:1003000085690068C10601D5302600E02026C007B7
:1003100008D070BDD4E9012130469047206A00F131
:10032000010020626D1EF5D570BD70B5044685696B
:100330000068C00708D170BDD4E901212020904792
:10034000206A00F1010020626D1EF5D570BD00002D
:100350002DE9F0410746002510687529394616A495
:1003600011D0AFF30080002803DAC0F1000013A41D
:1003700007E039688A0701D511A402E0490704D5CE
:1003800010A4012501E0AFF3008000210A2307F14A
:10039000240607E0B0FBF3F203FB12003030705488
:1003A0001046491C0028F5D12B4622463846BDE8A8
:1003B000F04100F0F3B90000000000002D00000043
:1003C0002B000000200000002DE9F05F0446894664
:1003D0004FF0000ADFF828B1FB44C0F820A0204607
:1003E000E168884700287CD0252806D0D4E901217F
:1003F0009047206A401C2062F1E700255F462046B6
:10040000E16888472028064608DB312E06D207EB34
:10041000060010F8200C08B10543F0E7A80701D545
:1004200025F00405C4F81CA00027C4F818A02A2E43
:1004300009D0304623F01CF838B304EB8708303E6F
:10044000C8F8186019E059F8041B204604EB87022D
:100450009161E1688847012F064618D1E0690028BC
:1004600020DA25F020051DE0D8F8180000EB800008
:1004700006EB40003038C8F818002046E16888478D
:10048000064622F0F5FF0028EED1012F0AD02E2ECD
:1004900008D12046E16888477F1C0646022F45F0B8
:1004A0002005C4DBA069002803DA404245F00105BD
:1004B000A061E80701D025F0100596B1A6F1410032
:1004C000192802D8203645F400654A4631462046B0
:1004D00025604D46FFF7B2FE60B1012807D0ED1D43
:1004E00000E009E025F0070000F1080977E705F1D1
:1004F000040974E7304679E7206ABDE8F09F000000
:10050000CC1F030070B5064600F044F904680546A8
:1005100030460A22002100F0CAFB2C6070BD40EA80
:100520000103024630B59B0710D14FF0013400E0C3
:1005300008C208C91D1B9D4315EAC41FF8D013F05B
:10054000FF0102F8011B0DD01B0AF8E711F8013B6F
:10055000002B02F8013B05D011F8013B002B02F8FB
:10056000013BF3D130BD10B5431C02E010F8011B74
:1005700071B18107FAD14FF0013202C88C1A8C4355
:1005800014EAC211F9D0C01A0A0603D0C01E10BD69
:10059000C01A10BD0A0401D0801E10BD0902FCD093
:1005A000401E10BD421E12F8013F002BFBD111F876
:1005B000013B002B02F8013BF9D17047032A40F2BE
:1005C000308010F0030C00F0158011F8013BBCF1F5
:1005D000020F624498BF11F801CB00F8013B38BF0D
:1005E00011F8013BA2F1040298BF00F801CB38BF1B
:1005F00000F8013B11F0030300F06780083AC0F0F7
:10060000088051F8043B083A51F804CBA0E80810E0
:10061000F5E7121D5CBF51F8043B40F8043BAFF313
:100620000080D20724BF11F8013B11F801CB48BF6D
:1006300011F8012B24BF00F8013B00F801CB48BFA3
:1006400000F8012B7047431A28BF9A427FF6B6AFD5
:10065000032A1044114440F2268010F0030F1EBFFD
:1006600011F8013D521E00F8013D10F0030F7FF418
:10067000F6AF11F0030300F06583083AC0F00B8079
:1006800051F8043D083A51F804CD40F8043D40F8D3
:1006900004CDFFF7F3BF121D5CBF51F8043D40F8D5
:1006A000043DAFF30080D20724BF11F8013D11F8DB
:1006B00001CD48BF11F8012C24BF00F8013D00F81E
:1006C00001CD48BF00F8012C704710B5203AC0F0AA
:1006D0000B80B1E81850203AA0E81850B1E8185043
:1006E000A0E81850BFF4F5AF5FEA027C24BFB1E880
:1006F0001850A0E8185044BF18C918C0BDE81040F1
:100700005FEA827C24BF51F8043B40F8043B08BFF9
:100710007047D20728BF31F8023B48BF11F8012BC0
:1007200028BF20F8023B48BF00F8012B704702F0B9
:10073000FF0343EA032242EA024200F02FBB4FF0DC
:10074000000200B5134694469646203922BFA0E821
:100750000C50A0E80C50B1F12001BFF4F7AF09072D
:1007600028BFA0E80C5048BF0CC05DF804EB89001E
:1007700028BF40F8042B08BF704748BF20F8022B61
:1007800011F0804F18BF00F8012B70477047704779
:100790007047000000487047948700202DE9F0471B
:1007A0000D4604469246994600F1240801688806E1
:1007B00004D5E06921F01001216000E00120A84289
:1007C00002DDA0EB050700E00027A16907EB0502A9
:1007D00002EB0900A1EB0000A0612068C00602D472
:1007E0002046FFF78BFD002608E0D4E901211AF826
:1007F00006009047206A401C761C20624E45F4DBC0
:100800002068C0060AD52046FFF778FD06E0D4E947
:10081000012130209047206A401C2062381EA7F139
:100820000107F4DC07E0D4E9012118F8050090473E
:10083000206A401C2062281EA5F10105F3DC204639
:10084000FFF773FD2068000602D50220BDE8F0879F
:100850000120FBE770472DE9FF4F0C461E464FF085
:10086000FF378BB0D2E90001DDF860800A908A463C
:10087000C1F30A5505B93D46002108464FF0000076
:10088000BAF1000F00F4400005DA00EB80004FF4ED
:10089000400101EA50004FEA9059B9F1010F00DD23
:1008A000B9460A9850EA4A000FD044F61050A5F213
:1008B000FF3545432F14B8F1000F1FD07542291E94
:1008C0001FDD4846C9F100021CE0B8F1010F4FF0EE
:1008D000000001D1F24307E0302101E02154401C27
:1008E000B042FBDB30460022002121540B99C1F8B5
:1008F0000880C1E900200FB0BDE8F08FBD1B6D1C62
:10090000DDE74A4600DA694206A800F04DFB06AB77
:1009100007CB03AB07C350460A9900F038FC8DE8BB
:100920000700A0F500501F3800900398002D09DD46
:1009300042F21F014A46084403A90390684600F0AA
:1009400097FE08E0A0F500504A461F3803A903901F
:10095000684600F0A1FE8DE807000004000C03D0FB
:100960004FF0FF30410800E01046B8F1000F03D00F
:100970000022009215461FE0751E06D400F03EFAD4
:1009800002F1300262556D1EF8D5B34601220843CC
:1009900002D000227F1C04E02078302801D1002200
:1009A0007F1E002A099786D01DE0112D07DA00F07E
:1009B00025FA303262556D1C50EA0102F5D1084328
:1009C0000FD10021681E05E0235C625C6354491C62
:1009D0002254401E8142F7DBAB46A81B401E099003
:1009E00001E0009848B1002004F80B000B98099A28
:1009F000C0F80880C0E9002B7DE711264FF0000801
:100A000059E72DE9F04F88460446D21D22F0070130
:100A100091B0D1E90001CDE90A011DF053FB024676
:100A20000B98C00F01D02D2007E02068810701D569
:100A30002B2002E0202101EAC000032A099001D006
:100A4000072A05DB03464146204600F01DFA0EE169
:100A50002068800601D5E06900E00620B8F1650F46
:100A6000814606D0B8F1660F18D0B8F1670F72D181
:100A700032E00020B9F1110F009001DB112301E0F9
:100A800009F101030AAA01A90CA8FFF7E4FEDDE9B8
:100A90000C70002609F10105834648E001204B4611
:100AA00000904FF000470AAA01A90CA8FFF7D3FE57
:100AB000DDE90C050E990026AB4619B909F10101D3
:100AC00000EB0105B9EB050003D4C0F1FF3609F1D5
:100AD0000105A5EB09002BE0B9F1010F01DA4FF098
:100AE00001090020B9F1110F0090484601DD1123E2
:100AF00000E003460AAA01A90CA8FFF7ACFEDDE955
:100B00000C704D4600268346206800070AD4AB458A
:100B100000DA5D4601A8012D04DD411911F8011C20
:100B2000302907D04F4502DA17F1040F04DA01200B
:100B3000824610E06D1EEEE7002F02DCED1B3E4406
:100B400003E0781CA84200DD0546A7EB060000F193
:100B5000010A4FF000472068000703D4AA4501DBD3
:100B60004FF0FF3A0021B7F1004F0DF143088DF827
:100B7000431022D002202B23002F01DA7F422D23A5
:100B80000A22011EA0F1010000DC4FB197FBF2F137
:100B900002FB117C0F460CF1300C08F801CDF0E798
:100BA000A8F1010003702168090501D5452100E085
:100BB0006521A0F1010800F8011C09980FA9A1EB1B
:100BC000080707F1070700B1012000EB050101EB61
:100BD000EA70A1693844A1EB0000A0F10100A06116
:100BE0002068C00602D42046FFF788FB099830B180
:100BF000D4E901219047206A00F1010020622068B9
:100C0000C00620D52046FFF779FB1CE0002E04DB50
:100C1000B34502DD01A8805D00E03020D4E9012168
:100C20009047206A761C401CBAF1010A20620AD162
:100C300000F0E0F8C0680168405CD4E90121904709
:100C4000206A401C2062281EA5F10105DEDC07E0B9
:100C5000D4E9012118F8010B9047206A401C20625A
:100C6000381EA7F10107F3DC2046FFF75EFB0220E8
:100C700011B041E601694A1C02610878704700B56D
:100C80008FB0CDE901310021059105497944CDE9C5
:100C9000031011466846FFF797FB0FB000BD000038
:100CA000E5FFFFFF0A6802F8010B0A6070472DE9B3
:100CB000F0470F46914680460446002614F8015B33
:100CC0002DB100F08FF80068405DC007F6D12B2DE4
:100CD00002D02D2D18D0641E4A463946204600F019
:100CE00013F927B13968A14201D1C7F800804FF04C
:100CF000020471050BD54042002803DDFFF74AFDD1
:100D00000460A007BDE8F08746F48066E4E70028A9
:100D1000F8DAFFF73FFD04606FF00040F2E7431A96
:100D200028BF9A427FF6D1AC104410F0030F114453
:100D30001EBF11F8013D521E00F8013D10F0030FD7
:100D40007FF4F6AF103AC0F00A8010B531E91850C0
:100D5000103A20E91850BFF4F9AFBDE8104053072E
:100D600024BF31E9081020E9081044BF51F8043DC0
:100D700040F8043D12F0030F08BF7047D20728BFA8
:100D800031F8023D48BF11F8012C28BF20F8023D80
:100D900048BF00F8012C70474FF000020429C0F052
:100DA000128010F0030C3FF4CCACCCF1040CBCF17D
:100DB000020F18BF00F8012BA8BF20F8022BA1EBEF
:100DC0000C01FFF7BEBC5FEAC17C24BF00F8012B19
:100DD00000F8012B48BF00F8012B7047004870470E
:100DE0009487002010B500F005F8001D10BD00BF6D
:100DF0003131020000487047B487002030B5B0F1AF
:100E00000A024FEA900E71F100034EEA817EB0EBC8
:100E10000E0061EB91014FEA101E4EEA017E10EBCD
:100E20000E0041EB11114FEA102E4EEA016E10EB4D
:100E30000E0041EB11214FEA104E4EEA014E10EB2D
:100E40000E0041EB1141401841F100014FEAD00082
:100E500040EA41704FEAD10110EB80054FEA81046E
:100E600044EA907444EB01046D1944EB0404521BF2
:100E7000A3414FF0000348BF0A3200D530BD401CEB
:100E800041F1000130BD00002DE9F04104461F464C
:100E900003260168072A01F4006004DB08B116A5E7
:100EA00005E016A503E008B115A500E015A521F0A1
:100EB00010002060A069C01EA0610FB1401EA0619B
:100EC0002046FFF71BFA4FB1D4E90121384690477D
:100ED000206A401C2062C01C206206E0206AFAE7FB
:100EE000D4E9012115F8010B9047761EF8D220466F
:100EF000FFF71BFABDE8F0814E414E006E616E00B7
:100F0000494E4600696E66002DE9F05F82468B46C9
:100F1000154600270AF10104B9460078302801D0AF
:100F20009DB113E014F8010B0127782803D058284D
:100F300001D045B10AE00DB1102D07D1002714F8FA
:100F4000010B102502E0082500E00A250026B04626
:100F50000EE005FB080005FB06F101271FFA80F8EB
:100F600001EB1046B6F5803F00D3B94614F8010BEB
:100F7000294600F0B0F80028EBDABBF1000F05D0ED
:100F80000FB1641E00E05446CBF80040B9F1000FE9
:100F900006D0FFF7FFFB02210160C81EBDE8F09FED
:100FA00048EA0640FAE700002DE9F0478146164678
:100FB0008AB035487844D0E9002380680092CDE9B2
:100FC0000130314878440C38D0E90223006903929B
:100FD0004FF03702CDE9043041F69B30014491FBDC
:100FE000F2F0A0F1800502FB10141B3C02D5644214
:100FF000012000E00020DFF890A080460027FA449E
:10100000AAF1C60A0DE0E00709D03246684607EBB0
:1010100047010AEB810100F03FFB8DE807006410F7
:101020007F1C002CEFD1184F7F44B43F17E0E80736
:1010300013D007EB04100DF1180A90E80E00AAE88F
:101040000E00C068F04201D198190890324606A9F6
:1010500003A800F021FB03AB07C36D10641C002D37
:10106000E5D132466946B8F1000F03A802D000F07E
:10107000FFFA01E000F010FBC9E90001C9F80820FF
:101080000AB0BDE8F0870000801403007546FFF742
:10109000A5FEAE4605006946534620F0070085468A
:1010A00018B020B5FFF704F9BDE820404FF0000666
:1010B0004FF000074FF000084FF0000B21F0070140
:1010C000AC46ACE8C009ACE8C009ACE8C009ACE883
:1010D000C0098D4670473A2800D2303820F02002EF
:1010E000412A01D3A2F13700884201D34FF0FF30EB
:1010F00070470446AFF300802046FFF7C4F80000B5
:101100004FF0013C50F8042B51F8043B9A4221D196
:10111000A2EB0C03934313EACC1317D150F8042B22
:1011200051F8043B9A4215D1A2EB0C03934313EA06
:10113000CC130BD150F8042B51F8043B9A4209D13F
:10114000A2EB0C03934313EACC13DBD04FF0000067
:10115000704700BFD01A01BAB1FA81F101F018014D
:1011600022FA01F0CB40C1F12001DBB2C0B2C01ABB
:101170002CFA01F3D11A914311EAC311E6D1704759
:1011800001491820ABBEFEE72600020070475FEA67
:10119000400C08BF91F0000F4FEA8C234FEAC122A8
:1011A00043EA51514FEA1C5018BF00F5F0404FEA96
:1011B000300018BF41F000415FEA6C5C00F029800C
:1011C000BCF1FF3F08BF40F080407047130C06BFE2
:1011D00012044FF0100C4FF0000C130E04BF12025B
:1011E0000CF1080C130F04BF12010CF1040C930F47
:1011F00004BF92000CF1020CD30F04BF52000CF19B
:10120000010C11464FF00002A0F11F00A0EB0C00F2
:10121000704711F0004F08BF704731F000413FF4B4
:10122000D5AF0B0C06BF09044FF0100C4FF0000CAB
:101230000B0E04BF09020CF1080C0B0F04BF0901CF
:101240000CF1040C8B0F04BF89000CF1020CCB0FC6
:1012500004BF49000CF1010CCCF12003A0EB0C0001
:1012600022FA03F302FA0CF241EA030100F1010051
:10127000704720F07F4C80EA030023F07F47ACEBFF
:10128000070303F57C5300F0004003F1FF032DE951
:1012900080494FEA154B09B44FEA144325EA0B4E37
:1012A00024EA03480FF2042606EB132749083E7888
:1012B0005FEA320203FB0667C7F5000707FB06F685
:1012C0004FEA54374FEAD64606F1020607FB066C92
:1012D000CCF1005C4FEA1C472CEA074C07FB06F4F4
:1012E0000CFB06F504EB15464FEA961634BF0020BA
:1012F0004FF000404FEAD13706FB07FC4FEA1C4C89
:101300000CFB0BF7D21B03FB0CF761EB07010CFB8B
:101310000EF7B0EB074072EB17420CFB08F734BF37
:10132000A2EB0742B2EB074261EB17414FEA0C44D4
:101330004FEA910706FB07FC4FEA1C4C0CFB0BF72E
:10134000B0EBC74072EB573203FB0CF734BFA2EB94
:10135000C742B2EBC74261EB57310CFB0EF7B0EB63
:10136000C70072EB57720CFB08F734BFA2EBC70241
:10137000B2EBC70261EB5771039F4FEA816141EA0B
:10138000921104EBCC044FEAD1374FEA826206FB9C
:1013900007FC42EA90124FEA80604FEA1C4C0CFBBB
:1013A0000BF7D21B03FB0CF761EB07010CFB0EF7ED
:1013B000B0EB074072EB17420CFB08F734BFA2EB0F
:1013C0000742B2EB074261EB17414FEA8C554FEAF7
:1013D000910704EB9C2406FB07FC4FEA1C4C0CFB1A
:1013E0000BF7B0EBC74072EB573203FB0CF734BF7F
:1013F000A2EBC742B2EBC74261EB57310CFB0EF7D1
:10140000B0EBC70072EB57720CFB08F734BFA2EBCE
:10141000C702B2EBC70261EB577115EB4C254FEADF
:10142000816141EA92114FEA82624FEAD13742EA82
:10143000901206FB07FC44F100044FEA80604FEA7B
:101440001C4C0CFB0BF7D21B03FB0CF761EB0701E9
:101450000CFB0EF7B0EB074072EB17420CFB08F7E2
:1014600034BFA2EB0742B2EB074261EB174115EB29
:101470001C154FEA813141EA92414FEA823242EA39
:1014800090424FEA80304FEA0C7644F1000448EA7B
:1014900003434EEA0B484FF0000EB2EB080C71EB21
:1014A000030724BF624639464EEB0E0E4FF0000B89
:1014B0000018524149414BEB0B0BB2EB080C71EB9E
:1014C00003077BF1000B24BF624639464EEB0E0E3C
:1014D0004FF0000B0018524149414BEB0B0BB2EBA4
:1014E000080C71EB03077BF1000B24BF6246394601
:1014F0004EEB0E0E51EA020718BF46F0010616EB3E
:101500000E7655F1000254F1000103D5BDE88901C2
:10151000BDE80088BDE88901BDE80048B619524120
:1015200041EB0101A3F10103704780807F7E7D7C48
:101530007B7A7978777676757473727171706F6E65
:101540006E6D6C6C6B6A6A69686867666665646410
:10155000636362616160605F5F5E5E5D5D5C5C5B9A
:101560005B5A5A5959585857575656555555545409
:10157000535352525251515050504F4F4F4E4E4D67
:101580004D4D4C4C4C4B4B4B4A4A4A4949494848B3
:1015900048474747474646464545454444444443F3
:1015A00043434342424242414141002B26D477000B
:1015B00021D01CB54FEA370703B44FF010004FF0AD
:1015C00010014FF000000FBCBDE810400BF1010B03
:1015D000BBF1010F08BF5FEA170722BF12F101023A
:1015E00011F101014FF0004143F1000300F0004010
:1015F00043EA00007047F9D35708DAE746EA06469F
:1016000013F1400F4FEA16461FDD13F1200FDFBF25
:1016100016430A46002120335B42C8D0C3F120079D
:1016200046EA064602FA07F74FEA164646EA070672
:10163000C3F1200722FA03F201FA07F721FA03F1B6
:101640004FF0000342EA0702B1E746EA020646EA23
:1016500006464FEA164646EA0106BCBF46EA06467B
:10166000360C4FF000034FF000024FF000019EE7F0
:101670002DE9C048934630B491E8380007C831EAF4
:10168000400C48BF34EA430C03D5FFF7F2FDFFF7E7
:101690008CFFF0BCBDE800882DE9C048934630B40B
:1016A00091E8380007C810F0804F08BF13F0804F52
:1016B00003D100F005F8FFF778FFF0BCBDE8008823
:1016C00020F07F4780EA030023F07F4C07EB0C03F8
:1016D000A3F57C5300F00040A3F1FE0392F0000F4D
:1016E00000F0B38095F0000F00F077802DE90149FC
:1016F0004FEA11404FEA144621EA004800FB06FC7D
:1017000024EA064708FB06F607FB08F800FB07F784
:1017100018EB06484CEB164C4FEA124B18EB0748F7
:101720004FEA15464CEB174022EA0B4E0BFB06FC2A
:1017300025EA06470EFB06F607FB0EFE0BFB07F736
:101740001EEB064E4CEB164C4FF000061EEB074E00
:101750004CEB174B18EB0B0840F1000018EB0E0B8D
:1017600058EB000840F100008F1A4FF000013CBF19
:10177000C943661B14BFB5EB040C00213CBFC94331
:10178000F61B4FEA17444EEA8E0E27EA04454FEA4D
:101790001C4704FB07622CEA074C05FB07F70CFB10
:1017A00005F604FB0CFC16EB074642EB174216EB62
:1017B0000C4642EB1C421BEB060658EB0202414171
:1017C00046EA9E0601D5BDE80189B619524141EBB2
:1017D0000101A3F10103BDE801894FEA14454FEA75
:1017E000114724EA054621EA074C05FB07F406FBEE
:1017F00007F70CFB06F105FB0CFC11EB074144EB72
:1018000017444FEA124711EB0C4144EB1C4422EA07
:10181000074C05FB07F206FB07F70CFB06F605FB7A
:101820000CFC16EB074642EB174216EB0C4642EB5C
:101830001C456A1854F1000148BF7047B61952415F
:1018400041EB0101A3F10103704795F0000F37D080
:101850004FEA11424FEA144721EA024624EA074CB4
:1018600002FB07F106FB07F70CFB06F402FB0CFC7E
:1018700014EB074441EB17414FEA154714EB0C44B6
:1018800041EB1C4125EA074C02FB07F506FB07F775
:101890000CFB06F602FB0CFC16EB074645EB174566
:1018A00016EB0C4645EB1C42121951F1000148BFE2
:1018B0007047B619524141EB0101A3F10103704792
:1018C0004FEA14454FEA114724EA054621EA074C3E
:1018D00005FB07F106FB07F70CFB06F24FF00006CD
:1018E00005FB0CFC12EB074241EB174112EB0C42DB
:1018F00051EB1C4148BF7047921841EB0101A3F125
:10190000010370472DE9F0419CB04FF4807801212C
:1019100040460EF015F8012188050DF0EDFF042773
:10192000019703258DF8085000248DF80B40454E93
:1019300001A9304603F060FE082001908DF80850A0
:101940008DF80B4001A9304603F056FE402001906F
:101950008DF808508DF80B4001A9304603F04CFE7D
:10196000012601968DF808508DF80B4001A93648E4
:1019700003F042FE039435480490354805900694E0
:10198000C82007900894B002099040000A90800097
:101990000B90CDF8308000010D900E940F961094AE
:1019A00011942C4D03A9284602F07EF80121284607
:1019B00002F056F801221021284602F05CF802F0ED
:1019C00011F8224D01214C3D284600F043F91294B4
:1019D00013941494159412A800F024F916948DF819
:1019E0005C608DF85D6019941A948DF86C7016A97E
:1019F000284600F045F9042301220221284600F080
:101A000065F9002302220321284600F05FF9002334
:101A100003220621284600F059F900230422082158
:101A2000284600F053F90121284600F0EFF8284637
:101A300000F08AF90121284600F017F91CB0BDE832
:101A4000F081000000000240000402404C200140F0
:101A5000C4080020106402402DE9F0430020684CC7
:101A6000684A04F5C87604F5FA7704F5167504F5A6
:101A70002F7336E081070BD000F00301022911D04B
:101A80006FEA000C5FEA8C7C16D001291ED026E09C
:101A900034F81080117801F1010C82F800C026F8AA
:101AA00011801CE034F810C0517801F1010882F86F
:101AB000018023F811C012E034F810C0917801F1D0
:101AC000010882F8028027F811C008E034F810C03D
:101AD000D17801F1010882F8038025F811C0401C7B
:101AE00080B2C828C6D30024147054709470D47087
:101AF0000021002004E036F810C06144401CC0B250
:101B00003228F8D35079DFF8008132264FF0130CD9
:101B1000142806D2B1FBF6F0517928F81100002103
:101B20000EE00021012004E038F810904944401CE8
:101B3000C0B21328F8D3B1FBFCF09081002154719E
:101B40005079401C5071002004E037F81080414467
:101B5000401CC0B23228F8D310792B4F283F1428EC
:101B600006D2B1FBF6F0117927F8110000210FE041
:101B70000021012004E037F810804144401CC0B22D
:101B80001328F8D31220B1FBF0F05081002114711A
:101B90001079401C1071002004E035F810703944B1
:101BA000401CC0B23228F8D39079174D283514283C
:101BB00006D2B1FBF6F0917925F8110000210EE074
:101BC0000021012004E035F810703944401CC0B2F7
:101BD0001328F8D3B1FBFCF0D081002194719079E7
:101BE000401C9071002004E033F810402144401C58
:101BF000C0B23228F8D3B1FBF6F01081BDE8F08313
:101C0000C40800205C0000200C0C002021B1816879
:101C100041F0010181607047816821F0010181601C
:101C20007047000010B5094C2268094902EA010218
:101C3000D0E9001341EA0301D0E9023043EA00038E
:101C400041EA030141EA0201216010BD0423014081
:101C5000E030FCFF21B1816841F480718160704700
:101C6000816821F480718160704721B1816841F4FD
:101C7000007181607047816821F400718160704754
:101C800030B542680F4B1A400C790B6842EA0422C7
:101C90001343436083680C4A1340D1E90342224353
:101CA0004D798C6844EA450422431A438260C26A33
:101CB00022F47002097D491EC9B242EA0151C16293
:101CC00030BD0000FFFEFFFCFDF7FFC070B507262A
:101CD00009290ED9D0F80CC0A1F10A0404EB440480
:101CE000A6402CEA060CA3404CEA030CC0F80CC03A
:101CF00007E0056901EB4104A640B543A3401D433D
:101D000005611F23072A09D2446B521E02EB82028F
:101D100093409C4391400C43446370BD0D2A09D20B
:101D2000046BD21F02EB820293409C4391400C4310
:101D3000046370BDC46A0D3A02EB820293409C4377
:101D400091400C43C46270BD816841F08041816064
:101D50007047002800DC40427047000010B50C4876
:101D60000068400612D40B4C206841070ED50206CD
:101D700009484FF4007103D4BDE8104003F092BC51
:101D800003F08EFC206820F00400206010BD0000ED
:101D90003C0000203400002000080240054908688B
:101DA00040F00400044B00221A8020F080000860FC
:101DB00070470000340000207C00002038B54568E2
:101DC00004460146284612F0D5F900282AD020689A
:101DD000304A0F2819D006DC0B2824D00C2810D04C
:101DE0000E2851D12FE0112802D028284CD145E0EF
:101DF0009268002A16D02146284601B0BDE830403E
:101E00001047214628465268F7E7284604F092FB1F
:101E10000090406E0468684604F0D6FB002C01D0A8
:101E20002846A04738BD284604F084FB009068305F
:101E300004F0E8FA009803216C3004F0EBFA6846ED
:101E400004F0C2FB20E0E168486809680D2902D06F
:101E5000202913D105E0002810DD284618F04AFF9C
:101E600006E0002804DD2846BDE8384018F042BFEF
:101E70002846BDE83840022118F052BFE06818B982
:101E80000021284600F097F92046BDE8384012F0BE
:101E9000E5BD000048020020F0B5044685B0806929
:101EA000B4F90850668A0027CDE90265CDE900172C
:101EB0000490B4F90C00B4F91060C118B4F90A0028
:101EC000B4F90E50104433462A4600F007F8054690
:101ED000616800F079F905B02846F0BDF0B585B02D
:101EE0000C46DDE90D514C31DFF850C0DDE90A67E1
:101EF000CDE902C12146CDE9006712F0FFFC0400E4
:101F000018D004F017FB10222946049012F056FB5B
:101F1000049830220A493430FEF7D7FB084D049963
:101F20000C3D2868486604A804F04EFB2868416808
:101F30002046884705B02046F0BD0000BD1D0008C2
:101F400054020020F0B5044680688B4989B051F8EE
:101F50002050606800287DD0052804D006287AD05B
:101F6000122879D1AEE0E86900284FD095E80E003C
:101F70008DE80F0004F110010FC906F073FD002673
:101F800055F8260005F0B2FEA169E8690A1A216930
:101F900001446069304405F04FF8A169E8690A1A04
:101FA00021690144E069801B05F046F8E169E869B0
:101FB0000A1A616901442069304405F0DDF8E169DD
:101FC000E8690A1A61690144A069801B05F0D4F828
:101FD000761C022ED4DBA86805F088FEE069E9696A
:101FE0006669431A20694218521E3144801C05F06C
:101FF0002DF9E169E869A2690B1A61690144101AB7
:10200000401C921E05F022F9EE6913E05FF0000615
:1020100055F8260005F06AFEE069831BA069821B63
:10202000606981192069304405F068F8761C022E39
:10203000EEDB0226D5E90301CDE900016169E06923
:1020400008444310A069891C821B2069304404F0B5
:102050009BFF02E089E012E08AE0D5E90501CDE9C5
:102060000001E36960690121184401EB6001A06986
:102070009B1E821B2069304404F086FF78E02068B4
:1020800004F058FA0490206813F018FD40B1A068DD
:1020900008B1002008E00498006F28B1012003E097
:1020A0000498406F00B10220049901EB8000C56ED6
:1020B00004A804F089FA00231A462846216804F08F
:1020C00015FD55E0206804F035FA0490866EEEB3F5
:1020D000B0F95C70A168D1B3032942D05FF0000170
:1020E00000EB8101406D0C6C05F00AFE204605F006
:1020F000FDFD05A805F0FAF8BDF81410A88B014401
:10210000ADF81410BDF81810081AADF81800BDF895
:102110001600801CADF81600BDF81A00801EADF840
:102120001A0004985E30B0F90220B0F9001005A83A
:1021300005F03AFD04A804F047FA022005F020FE5D
:10214000304604F0F7F93A4605A901E00BE006E055
:10215000079004F0C3FD07A804F036FA08E0012157
:10216000BEE70221BCE704A8F6E7206813F06AF98D
:1021700009B00020F0BD00000CED0208044A03493C
:10218000116004494A6A4862104670478402002080
:10219000480200205402002038B50D46040009D042
:1021A00004F0C8F900904565684604F00DFA204631
:1021B00012F04BFF38BD4FF480720029114601D058
:1021C00012F062B811F0B3BF2DE9FF410E460500D1
:1021D0004FF001041CD004F0ADF90190876E01A806
:1021E000009704F0F1F93146684606F01BFF78B11C
:1021F00000980024B84208D0284604F09BF90190CA
:102200000099816601A804F0DFF9284612F01DFF4D
:1022100004B02046BDE8F081FEE700002DE9F05F44
:102220007C4D29787C486FF07046193937118269E6
:1022300040F66F044FF4076840F6770940F6780AD5
:1022400040F6710B0C2925D2DFE801F00626456423
:102250002424242483A324C481462146104612F05A
:102260000BFD04463146204610F06CFA39462046F4
:1022700010F0BAFA4146D9F8180012F0FDFC0446F5
:102280006649204610F05EFA0021204610F0ACFAB4
:102290001A202870BDE8F09F41468046104612F093
:1022A000EBFC04463146204610F04CFA39462046F5
:1022B00010F09AFA4946D8F8180012F0DDFC0446EE
:1022C0005649204610F03EFA0021204610F08CFAC4
:1022D0001B202870DEE780464946104612F0CCFCF1
:1022E00004463146204610F02DFA3946204610F0BB
:1022F0007BFA5146D8F8180012F0BEFC0446474954
:10230000204610F01FFA0021204610F06DFA1C2024
:102310002870BFE780465146104612F0ADFC0446D7
:102320003146204610F00EFA3946204610F05CFA8D
:102330005946D8F8180012F09FFC04463749204649
:1023400010F000FA0021204610F04EFA21202870EB
:10235000A0E780465946104612F08EFC04463146EE
:10236000204610F0EFF93946204610F03DFA40F6CD
:102370007901D8F8180012F07FFC0446274920465E
:1023800010F0E0F90021204610F02EFA22202870EB
:1023900080E7804640F67901104612F06DFC044655
:1023A0003146204610F0CEF93946204610F01CFA8E
:1023B00040F67201D8F8180012F05EFC0446174986
:1023C000204610F0BFF90021204610F00DFA24201D
:1023D00028705FE7814640F67201104612F04CFC0F
:1023E00080463146404610F0ADF93946404610F07F
:1023F000FBF92146D9F8180012F03EFC04460749C3
:10240000204610F09FF90021204610F0EDF9192028
:1024100028703FE76301002098010020FFFFBF0004
:102420002DE9F0412DED028B82B0AE480178DFF846
:10243000BC82AD4A00260127D8F81800192933D0EC
:102440001A297DD0AA4A1B297BD01C2927D198F8AC
:102450000E3040F678010D1D022B73D098F80E3027
:10246000012B1CD1D46812F007FCA2A110F097F93F
:102470002946D8F8180012F0FFFB0546204622F046
:1024800033FA41EC100B9FA153EC102B6846FDF77B
:1024900021FF6946284610F082F988F80E6002B0E4
:1024A000BDEC028BBDE8F08198F80B109FED970A08
:1024B00040F66F031C1D01292AD098F80B10022941
:1024C000EDD1D2F8801000EE901AF8EE600A80EE9E
:1024D000808A194612F0D0FB8DA110F060F92146D8
:1024E000D8F8180012F0C8FB044618EE100A22F0C3
:1024F000FBF941EC100B8AA153EC102B6846FDF759
:10250000E9FE6946204610F04AF988F80B70C6E7E4
:10251000D16F00EE901AF8EE600A80EE808A1946BC
:1025200012F0AAFB80A110F03AF92146D8F8180061
:1025300012F0A2FB044618EE100A22F0D5F902E0D0
:1025400010E06AE0B0E041EC100B75A153EC102BE9
:102550006846FDF7BFFE6946204610F020F988F86E
:102560000B609CE798F80C109FED730A4FF407631B
:102570001C1D02292AD098F80C1001298FD1D2F8FD
:10258000881000EE901AF8EE600A80EE808A1946F4
:1025900012F072FB69A110F002F92146D8F8180078
:1025A00012F06AFB044618EE100A22F09DF941EC85
:1025B000100B54A153EC102B6846FDF78BFE6946B7
:1025C000204610F0ECF888F80C6068E7D2F88C1020
:1025D00000EE901AF8EE600A80EE808A194612F03A
:1025E0004BFB5AA110F0DBF82146D8F8180012F086
:1025F00043FB044618EE100A22F076F941EC100B6A
:1026000040A153EC102B6846FDF764FE6946204656
:1026100010F0C5F888F80C7041E798F80D3040F6D6
:1026200077010D1D022B21D098F80D30012B98D188
:10263000146812F021FB49A110F0B1F82946D8F82E
:10264000180012F019FB0546204622F04DF941EC26
:10265000100B33A153EC102B6846FDF73BFE694687
:10266000284610F09CF888F80D6018E7546812F0BE
:1026700003FB3EA110F093F82946D8F8180012F099
:10268000FBFA0546204622F02FF941EC100B24A15D
:1026900053EC102B6846FDF71DFE6946284610F0E6
:1026A0007EF888F80D70FAE6146912F0E5FA33A1A5
:1026B00010F075F82946D8F8180012F0DDFA054632
:1026C000204622F011F941EC100B0EA153EC102B17
:1026D0006846FDF7FFFD6946284610F060F888F867
:1026E0000E70DCE663010020B40C0020980100208D
:1026F0006C850020E688AAE6ADA2E794B5E6B58130
:1027000031000000252E3366000000000000C842A2
:10271000E8BE93E587BAE794B5E58E8B32000000FA
:10272000252E326600000000E8BE93E587BAE794E4
:10273000B5E58E8B3100000000007A44E99990E500
:1027400088B6E794B5E6B58131000000E99990E5D7
:1027500088B6E794B5E6B58132000000E688AAE6BF
:10276000ADA2E794B5E58E8B31000000E688AAE6BD
:10277000ADA2E794B5E58E8B32000000E688AAE6AC
:10278000ADA2E794B5E6B581320000002DE9F04135
:102790002DED028B82B0AD480178DFF8B882AC4AEB
:1027A00001260227D8F81800192933D01A297DD01C
:1027B000A94A1B297BD01C2927D198F80E3040F656
:1027C00078010D1D002B73D098F80E30012B1CD111
:1027D000546912F051FAA1A10FF0E1FF2946D8F88F
:1027E000180012F049FA0546204622F07DF841EC27
:1027F000100B9EA153EC102B6846FDF76BFD69464C
:1028000028460FF0CCFF88F80E7002B0BDEC028BAA
:10281000BDE8F08198F80B109FED960A40F66F0323
:102820001C1D51B398F80B100129EED1D2F8841079
:1028300000EE901AF8EE600A80EE808A194612F0D7
:102840001BFA8DA10FF0ABFF2146D8F8180012F04B
:1028500013FA044618EE100A22F046F841EC100B69
:1028600089A153EC102B6846FDF734FD69462046DC
:102870000FF095FF88F80B70C7E7D2F8801000EED4
:10288000901AF8EE600A80EE808A194612F0F4F988
:102890007FA10FF084FF2146D8F8180012F0ECF960
:1028A000044618EE100A22F01FF802E010E069E07A
:1028B000AEE041EC100B74A153EC102B6846FDF711
:1028C00009FD694620460FF06AFF88F80B609CE717
:1028D00098F80C109FED720A4FF407631C1D51B35A
:1028E00098F80C10012990D1D2F8901000EE901AAF
:1028F000F8EE600A80EE808A194612F0BDF969A1EF
:102900000FF04DFF2146D8F8180012F0B5F9044633
:1029100018EE100A21F0E8FF41EC100B53A153EC24
:10292000102B6846FDF7D6FC694620460FF037FFAE
:1029300088F80C7069E7D2F88C1000EE901AF8EE67
:10294000600A80EE808A194612F096F959A10FF0BC
:1029500026FF2146D8F8180012F08EF9044618EE2A
:10296000100A21F0C1FF41EC100B40A153EC102BD9
:102970006846FDF7AFFC694620460FF010FF88F867
:102980000C6042E798F80D3040F677010D1D0BB34F
:1029900098F80D30012B9AD1946812F06DF949A185
:1029A0000FF0FDFE2946D8F8180012F065F905462B
:1029B000204621F099FF41EC100B33A153EC102B72
:1029C0006846FDF787FC694628460FF0E8FE88F860
:1029D0000D701AE7546812F04FF93EA10FF0DFFEB8
:1029E0002946D8F8180012F047F90546204621F08C
:1029F0007BFF41EC100B24A153EC102B6846FDF734
:102A000069FC694628460FF0CAFE88F80D60FCE6AE
:102A1000146912F031F933A10FF0C1FE2946D8F83C
:102A2000180012F029F90546204621F05DFF41EC1F
:102A3000100B0EA153EC102B6846FDF74BFC6946BA
:102A400028460FF0ACFE88F80E60DEE66301002039
:102A5000B40C0020980100206C850020E688AAE6CE
:102A6000ADA2E794B5E6B58133000000252E3366AC
:102A7000000000000000C842E8BE93E587BAE79472
:102A8000B5E58E8B33000000252E32660000000075
:102A9000E8BE93E587BAE794B5E58E8B3200000077
:102AA00000007A44E99990E588B6E794B5E6B581E7
:102AB00033000000E99990E588B6E794B5E6B58162
:102AC00032000000E688AAE6ADA2E794B5E58E8B59
:102AD00033000000E688AAE6ADA2E794B5E58E8B48
:102AE00032000000E688AAE6ADA2E794B5E6B5811B
:102AF000320000002DE9F05F7D4D29787D481939BD
:102B000040F66F0782696FF070464FF4076840F631
:102B1000770940F6780A40F6710B40F679040C29E3
:102B200026D2DFE801F0062747662525252585A45E
:102B300025C339460746104612F09EF80446314632
:102B400020460FF0FFFD6FF07F4120460FF04CFE56
:102B500040F67201B86912F08FF8044666492046C3
:102B60000FF0F0FD002120460FF03EFE24202870DB
:102B7000BDE8F09F41468046104612F07DF80446BD
:102B8000314620460FF0DEFD6FF07F4120460FF00A
:102B90002BFE3946D8F8180012F06EF80446564954
:102BA00020460FF0CFFD002120460FF01DFE19201A
:102BB0002870DDE707464946104612F05DF80446E6
:102BC000314620460FF0BEFD6FF07F4120460FF0EA
:102BD0000BFE4146B86912F04FF8044646492046BC
:102BE0000FF0B0FD002120460FF0FEFD1A202870E6
:102BF000BEE707465146104612F03EF804463146FD
:102C000020460FF09FFD6FF07F4120460FF0ECFD56
:102C10004946B86912F030F80446374920460FF0AB
:102C200091FD002120460FF0DFFD1B2028709FE75B
:102C300007465946104612F01FF804463146204612
:102C40000FF080FD6FF07F4120460FF0CDFD514623
:102C5000B86912F011F80446274920460FF072FDBA
:102C6000002120460FF0C0FD1C20287080E7074699
:102C70002146104612F000F80446314620460FF077
:102C800061FD6FF07F4120460FF0AEFD5946B869F7
:102C900011F0F2FF0446184920460FF053FD0021C1
:102CA00020460FF0A1FD2120287061E7804640F604
:102CB0007201104611F0E0FF0746314638460FF02A
:102CC00041FD6FF07F4138460FF08EFD2146D8F868
:102CD000180011F0D1FF0446074920460FF032FDDD
:102CE000002120460FF080FD2220287040E70000E0
:102CF0006301002098010020FFFFBF002DE9F04F85
:102D00002DED048B83B0F948406E00EE100AB8EE4A
:102D1000400ADFEDF70A80EE208AF448806E00EE6C
:102D2000100AB8EE400ADFEDF30AC0EE208AEF4841
:102D3000C06E00EE100AB8EE400ADFEDEE0A80EE3B
:102D4000209AEA48006F00EE100AB8EE400ADFED64
:102D5000E80AC0EE209AE8480178EB4819390124C6
:102D6000E64DE74EE74F806940F66F0940F6730A7B
:102D70004FF4076B40F67908102932D2DFE801F0F2
:102D80000891FCFB36BBFAF9F8F7F6F5F4F3F2F12B
:102D90004946DD4F11F070FF06466FF07041304636
:102DA0000FF0D0FC6FF07F4130460FF01DFD514613
:102DB000B86911F061FF0646D44930460FF0C2FCF5
:102DC000002130460FF010FD0020D14A002102E022
:102DD0001154401CC0B20528FAD3C7491D20087001
:102DE0002C7003B0BDEC048BBDE8F08F5146DFF8CA
:102DF00018A311F041FF07466FF0704138460FF0FD
:102E0000A1FC6FF07F4138460FF0EEFCDFF8DC826A
:102E1000D8F8040000EE100AF8EE400A9FEDB41A4C
:102E200080EE810A10EE100A21F05EFD41EC100BDD
:102E3000B8A153EC102B01A8FDF74CFA01A93846B4
:102E40000FF0ADFC9AF80B0040B19AF80B00012886
:102E500009D09AF80B0002280AD00DE0D8F8040037
:102E6000C8F87C0008E0D8F80400C8F8800003E047
:102E7000D8F80400C8F884004946DAF8180011F0C0
:102E8000FBFE0746A14938460FF05CFC002138469E
:102E90000FF0AAFC9849192008702C70002030709F
:102EA0009FE75946984D11F0E7FE04466FF07041D8
:102EB00020460FF047FC6FF07F4120460FF094FC56
:102EC0000020934A002102E01154401CC0B20528A2
:102ED000FAD340F67401A86911F0CEFE04468B497E
:102EE00020460FF02FFC002120460FF07DFC824988
:102EF0001E20087075E740F67401DFF80C9211F09F
:102F0000BBFE07466FF0704138460FF01BFC6FF0B8
:102F10007F4138460FF068FCDFF8D081D8F8081000
:102F200043F69820814201D9C8F80800D8F8080073
:102F300000EE100AF8EE400A9FED6E1A80EE810A4C
:102F400010EE100A21F0D0FC41EC100B73A153ECF1
:102F5000102B01A8FDF7BEF901A938460FF01FFCA0
:102F60000BE0CEE16BE1F4E061E076E29EE13CE172
:102F7000FFE194E228E2A5E02EE099F80C0040B1D0
:102F800099F80C00012809D099F80C0002280AD001
:102F90000DE0D8F80800C8F8880008E0D8F8080064
:102FA000C8F88C0003E0D8F80800C8F8900059462B
:102FB000D9F8180011F060FE0746544938460FF062
:102FC000C1FB002138460FF00FFC4B491A20087056
:102FD0002C700020307004E740F677014A4D11F064
:102FE0004BFE04466FF0704120460FF0ABFB6FF0D4
:102FF0007F4120460FF0F8FB00204549002202E007
:103000000A54401CC0B20528FAD340F67B01A869D7
:1030100011F032FE04463D4920460FF093FB00219B
:1030200020460FF0E1FB344925200870D9E640F630
:103030007B01DFF8D49011F01FFE80466FF07041E5
:1030400040460FF07FFB6FF07F4140460FF0CCFB16
:1030500018EE100A21F048FC41EC100B2DA153ECA6
:10306000102B01A8FDF736F901A940460FF097FB98
:1030700099F80D0040B199F80D00012807D099F892
:103080000D00022806D007E087ED008A04E087EDF6
:10309000018A01E087ED028A40F67701D9F818002D
:1030A00011F0EAFD0746194938460FF04BFB0021A5
:1030B00038460FF099FB10491B2008702C70002037
:1030C00030708EE640F678010F4D11F0D5FD0446C4
:1030D0006FF0704120460FF035FB6FF07F412046C6
:1030E0000FF082FB00200A4A00211EE0B40C0020F1
:1030F0000000C84200007A44630100201C01002047
:103100001D0100206C85002098010020FFFFBF00FA
:103110005C010020252E326600000000252E33665B
:10312000000000001154401CC0B20528FAD340F63C
:103130007C01A86911F0A0FD0446EC4920460FF07F
:1031400001FB002120460FF04FFBE94926200870C3
:1031500047E640F67C01DFF89C9311F08DFD804638
:103160006FF0704140460FF0EDFA6FF07F4140463E
:103170000FF03AFB18EE900A21F0B6FB41EC100B71
:1031800053EC102BAFF26C0101A8FDF7A3F801A9D5
:1031900040460FF004FB99F80E0040B199F80E007C
:1031A000012807D099F80E00022806D007E0C7EDE5
:1031B000038A04E0C7ED048A01E0C7ED058A40F602
:1031C0007801D9F8180011F057FD0746C74938466D
:1031D0000FF0B8FA002138460FF006FBC4491C2056
:1031E00008702C7000203070FBE54146C14D11F095
:1031F00043FD04466FF0704120460FF0A3FA6FF0D4
:103200007F4120460FF0F0FA0020BB4A002102E087
:103210001154401CC0B20528FAD340F67D01A869BC
:1032200011F02AFD0446B14920460FF08BFA002127
:1032300020460FF0D9FAAE4927200870D1E540F6B4
:103240007D01DFF8B09211F017FD07466FF0704175
:1032500038460FF077FA6FF07F4138460FF0C4FA26
:1032600019EE100A21F040FB41EC100B53EC102B2F
:10327000AFF2581101A8FDF72DF801A938460FF05B
:103280008EFA4146D9F8180011F0F6FC0746974926
:1032900038460FF057FA002138460FF0A5FA944946
:1032A000222008702C70002030709AE540F67A01D8
:1032B000904D11F0E1FC04466FF0704120460FF094
:1032C00041FA6FF07F4120460FF08EFA00208A4AC3
:1032D000002102E01154401CC0B20528FAD340F688
:1032E0007E01A86911F0C8FC0446804920460FF011
:1032F00029FA002120460FF077FA7D49282008702E
:103300006FE540F67E01DFF8EC8111F0B5FC074671
:103310006FF0704138460FF015FA6FF07F41384674
:103320000FF062FA19EE900A21F0DEFA41EC100B70
:1033300053EC102BAFF2242101A8FCF7CBFF01A91D
:1033400038460FF02CFA40F67A01D8F8180011F040
:1033500093FC0746654938460FF0F4F900213846DA
:103360000FF042FA6249232008702C700020307060
:1033700037E540F671015F4D11F07EFC04466FF0B9
:10338000704120460FF0DEF96FF07F4120460FF0CC
:103390002BFA0020584A002102E01154401CC0B210
:1033A0000528FAD340F67501A86911F065FC0446BA
:1033B0004E4920460FF0C6F9002120460FF014FABE
:1033C0004B491F2008700CE540F67501DFF8248199
:1033D00011F052FC07466FF0704138460FF0B2F919
:1033E0006FF07F4138460FF0FFF9444801694EF60F
:1033F0006022914201D900210161006900EE100AAA
:10340000F8EE400A1FEDC51A80EE810A10EE100A90
:1034100021F06AFA41EC100B53EC102BAFF204319F
:1034200001A8FCF757FF01A938460FF0B8F940F69C
:103430007101D8F8180011F01FFC07462B493846D7
:103440000FF080F9002138460FF0CEF928492120ED
:1034500008702C7000203070C3E440F67201254DD6
:1034600011F00AFC04466FF0704120460FF06AF933
:103470006FF07F4120460FF0B7F940F67601A8695A
:1034800011F0FAFB0446194920460FF05BF90021C0
:1034900020460FF0A9F9164920200870A1E440F653
:1034A0007601DFF8508011F0E7FB07466FF07041BE
:1034B00038460FF047F96FF07F4138460FF094F926
:1034C00040F67201D8F8180011F0D6FB07460749FC
:1034D00038460FF037F9002138460FF085F90449D6
:1034E000242008702C70002030707AE4FFFFBF00A9
:1034F00063010020980100205C010020B40C002032
:1035000070B5134D69792846124E806940F69902CC
:1035100001290FD0114611F0AFFB04466FF0704146
:1035200020460FF00FF9314620460FF05DF92F20AD
:10353000287070BD114611F09FFB044631462046AD
:103540000FF000F92046BDE8704000210FF04CB9A3
:1035500070010020FFFFBF002DE9FF47044600680F
:1035600010B112F0ABFA68B10022314850F82210C5
:1035700060680A2841D007DCF0B306280DD0072880
:1035800054D106E00122F0E712280AD019284DD1C3
:1035900037E0204613F0CAFB48E0204614F044FD13
:1035A00044E0206802F0C6FF0290B0F9548090F821
:1035B0005650476C466B02A803F006F8206800F0EE
:1035C00039F88146684611F02FFBBDF8001009EB71
:1035D00005000844ADF80000246A304604F090FB72
:1035E000022004F0CDFB384604F080FB42466946D9
:1035F000204603F073FB19E007E0204615F000F8C1
:1036000014E0886904B0BDE8F087206811F01AFF63
:10361000206802F08FFF0390B0F90610B0F9022085
:10362000891A491CC16703A802F0CEFF0020E9E710
:103630001CED020838B502F07DFF0090C46F6846AB
:1036400002F0C2FF204638BD044A03491160044914
:10365000CA69C8611046704710030020D8060020D0
:10366000DC06002000B589B024216846FDF767F824
:1036700019200190034800688068416868468847BF
:1036800009B000BDD80600201CB510490120087003
:103690000F4A192111700F4900240C700E4908704F
:1036A000702168200FF013FC4FF480510B4801F09B
:1036B000F7FF11F0D5FA03460094094A282109487A
:1036C000019403F02FF9084988611CBD1E010020F8
:1036D000630100208400002085000020000C0240CF
:1036E0004D120208E8560208980100201CB50E4849
:1036F000002404700D4804700D4804707021682087
:103700000FF0E5FB4FF480510A4801F0C9FF11F0BA
:10371000A7FA03460094084A08210848019403F0D8
:1037200001F9074908601CBD1E010020850000202A
:1037300084000020000C024009280208485B0208AF
:10374000B80100207CB50C4C1320A0710320A070A0
:103750000A4908700025E57120F094F908480570C1
:1037600011F07EFA03460095064A1F21064801958E
:1037700003F0D8F8A0627CBD1C0100208500002069
:1037800084000020D9EA0108F84B02081CB50F4953
:10379000052008700E48002404700E480470702143
:1037A00068200FF094FB4FF480510B4801F078FF34
:1037B00011F056FA03460094084A1F210848019464
:1037C00003F0B0F8074908601CBD00001E0100208E
:1037D0006301002084000020000C02408D030208D9
:1037E000A85102086C0100201CB514490220087081
:1037F0001349087013490920087013480024047005
:103800001249032008700121114810F08BFC70212F
:1038100068200FF05CFB4FF480510E4801F040FF30
:1038200011F01EFA034600940B4A13210B48019431
:1038300003F078F80A4948601CBD00001E01002012
:103840008500002063010020840000206101002029
:1038500000480040000C0240B5E30108E4490208BA
:10386000140100201CB51449042008701349087085
:1038700013491720087013480024047012490220CD
:1038800008700021114810F04DFC702168200FF0E5
:103890001EFB4FF480510E4801F002FF11F0E0F9D9
:1038A000034600940B4A15210B48019403F03AF8A3
:1038B0000A4948601CBD00001E0100208500002050
:1038C00063010020840000206101002000480040C6
:1038D000000C0240712B02085C4F020864010020BA
:1038E0001CB511F0BDF9002403460094074A1121CC
:1038F0000748019403F016F806498861064A1470D7
:10390000064B07221A702F220A701CBDE10C020818
:103910000C55020870010020840000201E010020C8
:103920001CB502208DF8050001208DF80400002050
:103930008DF806001C2000906946024801F05CFEEC
:103940001CBD00000010024070B50546244E042145
:10395000304601F0A5FE0821304601F0A3FE00BF6D
:1039600000BF00BF00BF0421304601F09BFE00BF36
:103970000821304601F096FE0421304601F090FE09
:10398000002420E0072C0DD9280404D5102130464E
:1039900001F088FE03E01021304601F081FE68044A
:1039A000050C03E01021304601F07AFE0821304674
:1039B00001F076FE00BF00BF00BF0821304601F0D5
:1039C00071FE641CE4B2182CDCD30421304601F0F3
:1039D00069FE3046BDE87040082101F063BE00007A
:1039E0000010024008B538208DF8000003208DF843
:1039F00001008DF8020001208DF8030068460AF0EE
:103A00005FF808BD01480068704700005C030020B3
:103A100010B50549054800F00DF80548016841F06A
:103A20000201016010BD00002080001010640240FF
:103A300034000020074A904201D2074801E00548BF
:103A40001038064A8B0001EA020101D5C1607047B7
:103A50008160704710640240006002407D0F7D0F5E
:103A600021B1016841F0010101607047016821F056
:103A70000101016070470B0609D522B1436943F08B
:103A80008003436103E0436923F08003436180299D
:103A900005D001F01E011AB102680A4302607047A6
:103AA00002688A430260704730B50368124A1340C7
:103AB000CC680A682243D1E905452C432243CC69EE
:103AC00022430C6A22434C6A22438C6A22434C6B89
:103AD00022438C6B22431A430260426922F007039F
:103AE000D1E90B2422431A4342610A6942604A68C1
:103AF00082608968C16030BD3F801CF0F8B5054622
:103B0000006802F017FD0090448ED0F88860684687
:103B100002F05AFD06B1012604F00104286811F0F4
:103B2000CDFF0EB1002006E00CB1012003E008B18A
:103B3000022000E003201B4951F82010686858B3A8
:103B400002280CD0052802D0122828D103E02846EC
:103B500013F018F923E0284615F0E7F91FE06A6929
:103B6000E8694FF0FF33801AA0F1080203EB62040A
:103B7000421CAB69001B4510A3EB6206C86904F048
:103B8000B5F806E03219311B284603F055FA641ED9
:103B90006D1C002CF6DA02E0286811F053FC0020BE
:103BA000F8BD00007CED0208044A03491160044995
:103BB0000A6B086310467047600300201807002056
:103BC0001C07002038B50D46002402F0B3FC00901D
:103BD000C06B294602F090FD0546684602F0F4FCF1
:103BE0001DB1284602F0A6FC0446204638BD7047A9
:103BF00030B504464FF47A7502E0284600F006F826
:103C00002300A4F1010084B2F7D130BD00220BE003
:103C1000042100BF00BF00BF00BF00BF491E090450
:103C2000090CF6D1521C92B28242F1D370470000C7
:103C300010B52DED028B24490A78244CB2EE048A8B
:103C4000022AE0681FD00978032939D1204991ED73
:103C5000000A20EE080ABDEEC00A10EE101A09B2E2
:103C600001F0F8FD1B4890ED000A20EE080ABDEEB9
:103C7000C00A10EE100A01B22069BDEC028BBDE84B
:103C8000104001F0E7BD144991ED000A20EE080A4A
:103C9000BDEEC00A10EE101A09B201F0DBFD0F48AC
:103CA00090ED000A20EE080ABDEEC00A10EE100AE0
:103CB00001B22069BDEC028BBDE8104001F0CABD25
:103CC000BDEC028B10BD000061010020B801002096
:103CD0002800002030000020240000202C000020BC
:103CE00010B504461FF0C2FCA0201FF091FC1FF08D
:103CF000EDFC68B920461FF08BFC1FF0E7FC38B9DB
:103D00001FF0B4FCA1201FF083FC1FF0DFFC18B1F2
:103D10001FF0C8FC002010BD1FF058FC034C2070A1
:103D20001FF03CFC1FF0BEFC207810BD7A00002084
:103D300070B50120FFF7D4FFFE4C20600120FFF793
:103D4000CFFF20602068000220600220FFF7C8FF3C
:103D50002168084420602068000220600320FFF7EB
:103D6000BFFF216808442060206800022060042012
:103D7000FFF7B6FF2168084420600520FFF7B0FF79
:103D8000ED4D28602868000228600620FFF7A8FF94
:103D90002968084428602868000228600720FFF787
:103DA0009FFF2968084428602868000228600820CE
:103DB000FFF796FF2968084428600920FFF790FF65
:103DC00060606068000260600A20FFF789FF616838
:103DD000084460606068000260600B20FFF780FFAD
:103DE0006168084460606068000260600C20FFF752
:103DF00077FF6168084460600D20FFF771FF68601D
:103E00006868000268600E20FFF76AFF696808446E
:103E100068606868000268600F20FFF761FF6968EA
:103E2000084468606868000268601020FFF758FF67
:103E30006968084468601120FFF752FFA060A0681D
:103E40000002A0601220FFF74BFFA1680844A060A9
:103E5000A0680002A0601320FFF742FFA168084499
:103E6000A060A0680002A0601420FFF739FFA168DD
:103E70000844A0601520FFF733FFA860A86800027F
:103E8000A8601620FFF72CFFA9680844A860A8685E
:103E90000002A8601720FFF723FFA9680844A86064
:103EA000A8680002A8601820FFF71AFFA968084454
:103EB000A8601920FFF714FFE060E0680002E060EE
:103EC0001A20FFF70DFFE1680844E060E068000297
:103ED000E0601B20FFF704FFE1680844E060E06851
:103EE0000002E0601C20FFF7FBFEE1680844E06090
:103EF0001D20FFF7F5FEE860E8680002E8601E207C
:103F0000FFF7EEFEE9680844E860E8680002E86050
:103F10001F20FFF7E5FEE9680844E860E868000252
:103F2000E8602020FFF7DCFEE9680844E860212013
:103F3000FFF7D6FE20612069000220612220FFF7F2
:103F4000CFFE2169084420612069000220612320FE
:103F5000FFF7C6FE21690844206120690002206144
:103F60002420FFF7BDFE2169084420612520FFF7CA
:103F7000B7FE28612869000228612620FFF7B0FEFD
:103F80002969084428612869000228612720FFF771
:103F9000A7FE2969084428612869000228612820B1
:103FA000FFF79EFE2969084428612920FFF798FE43
:103FB00060616069000260612A20FFF791FE61691B
:103FC000084460616069000260612B20FFF788FE91
:103FD0006169084460616069000260612C20FFF73C
:103FE0007FFE6169084460612D20FFF779FE6861FA
:103FF0006869000268612E20FFF772FE6969084453
:1040000068616869000268612F20FFF769FE6969CD
:10401000084468616869000268613020FFF760FE4B
:104020006969084468613120FFF75AFEA061A06900
:104030000002A0613220FFF753FEA1690844A0618D
:10404000A0690002A0613320FFF74AFEA16908447D
:10405000A061A0690002A0613420FFF741FEA169C0
:104060000844A0613520FFF73BFEA861A869000263
:10407000A8613620FFF734FEA9690844A861A86941
:104080000002A8613720FFF72BFEA9690844A86148
:10409000A8690002A8613820FFF722FEA969084438
:1040A000A8613920FFF71CFEE061E0690002E061D1
:1040B0003A20FFF715FEE1690844E061E06900027B
:1040C000E0613B20FFF70CFEE1690844E061E06934
:1040D0000002E0613C20FFF703FEE1690844E06173
:1040E0003D20FFF7FDFDE861E8690002E8613E2040
:1040F000FFF7F6FDE9690844E861E8690002E86154
:104100003F20FFF7EDFDE9690844E861E869000236
:10411000E8614020FFF7E4FDE9690844E8614120D7
:10412000FFF7DEFD2062206A000220624220FFF7D6
:10413000D7FD03E05C0C0020880C0020216A0844B5
:104140002062206A000220624320FFF7C9FD216A35
:1041500008442062206A000220624420FFF7C0FD6C
:10416000216A084420624520FFF7BAFD2862286AC8
:10417000000228624620FFF7B3FD296A084428623E
:10418000286A000228624720FFF7AAFD296A08442E
:104190002862286A000228624820FFF7A1FD296AE8
:1041A000084428624920FFF79BFD6062606A0002B4
:1041B00060624A20FFF794FD616A08446062606AA9
:1041C000000260624B20FFF78BFD616A0844606269
:1041D000606A000260624C20FFF782FD616A084459
:1041E00060624D20FFF77CFD6862686A00026862C9
:1041F0004E20FFF775FD696A08446862686A00022C
:1042000068624F20FFF76CFD696A08446862686A5B
:10421000000268625020FFF763FD696A0844686223
:104220005120FFF75DFDA062A06A0002A06252204B
:10423000FFF756FDA16A0844A062A06A0002A062CE
:104240005320FFF74DFDA16A0844A062A06A000256
:10425000A0625420FFF744FDA16A0844A0625520E3
:10426000FFF73EFDA862A86A0002A8625620FFF789
:1042700037FDA96A0844A862A86A0002A86257200C
:10428000FFF72EFDA96A0844A862A86A0002A86286
:104290005820FFF725FDA96A0844A8625920FFF7B6
:1042A0001FFD0B4C20705A20FFF71AFD60705B2039
:1042B000FFF716FDA0705C20FFF712FDE0705D2097
:1042C000FFF70EFD20715E20FFF70AFD607170BDE3
:1042D000C400002070B505460E461FF0E3F9002427
:1042E00009E01FF0C3F9A0201FF092F91FF0EEF9CA
:1042F00018B1641CA4B2642CF3D3B4F57A7F0DD04A
:10430000E8B21FF085F91FF0E1F938B930461FF027
:104310007FF91FF0DBF908B91FF0C4F9BDE8704060
:104320001FF0C0B92DE9F041044694B0006800F0D8
:10433000B7F908B1D94D01E0D84D2C356068152882
:104340001ED00CDC0B281FD004DC00287ED00528F2
:104350007DD12EE10E287BD01228F9D141E116281B
:1043600006D0172808D0182808D01C28F0D109E05A
:10437000E86914B0BDE8F081286AFAE7686AF8E7EE
:10438000A86AF6E76869F4E720680B901C200C9097
:10439000206802F0CFF80390016D0BA8884706460D
:1043A00003A802F011F9022E0EDB95E807008DE854
:1043B0000700D4E904023346A16904F021FB206917
:1043C0008719A069801B2BE0286803F08FFC216906
:1043D000E8690A18521E606902F02EFEA269E869B7
:1043E000111A491C606902F027FE676920697F1C69
:1043F000394602F063FE3946A06902F05FFE686844
:1044000003F074FC20693946401C02F057FEA06995
:104410003946401E02F052FE2769A069BF1C801E6B
:104420008046286803F062FC42463946606902F023
:1044300003FE686803F05AFC60694246401C394636
:1044400002F0FAFD686A02280FDD02E015E1AFE034
:1044500000E1A86803F04AFC61696A6A881C8B184D
:1044600001465B1E4246384627E0296AB14226DDF6
:104470006069022E074600F1020801DB374401E0C3
:1044800007F10207206901DB304401E000F102007E
:1044900022693B460A44A2F10102414602F0D6FEDF
:1044A000022E02DBA069821B01E0A269921EA069B4
:1044B000E9693B46401A401C414602F0C7FE022E05
:1044C00002DB6069064401E06669B61CE76928689A
:1044D0007F1E03F00BFC3A463146206902F04CFE89
:1044E0003A463146A06902F047FEE7696868BF1E98
:1044F00003F0FCFB20693A46401C314602F03CFECA
:10450000A0693A46401E314602F036FEE8690228AC
:1045100002DC286A022823DDA86A022802DDE1699C
:104520000F1A01E0E769BF1EA86803F0DFFBE96925
:10453000022909DD20693B46421800F1020C521E97
:104540003146604602F082FE286A022808DDA26930
:10455000E8693B46101A401C921E314602F076FE76
:10456000286803F0C3FBD4E90620216902F064FD4A
:10457000686803F0BBFBA2692169E069521E491C0F
:10458000401E02F059FDA86A022811DD2669A169C2
:10459000E469B61C271AA1F102087F1CA41EA868B2
:1045A00003F0A4FB234642463946304602F04EFE55
:1045B00072E0208A06B2ADF81460A08A01B2ADF8AC
:1045C0001610208B02B2ADF81820A08B03B2ADF804
:1045D0001A30D5E90304CDE90004304602F0D4FCDA
:1045E0005AE0208A298B0844ADF81400A08AADF85F
:1045F0001600208B298B401AADF81800A08BADF85F
:104600001A00206801F096FF0390006FF0B10220BD
:1046100003F0B6FB039991F87C00C0F3C00001EBF6
:104620008000006C03F062FB0398406B03F068FBB2
:104630000398006F01F07EFF03990A90B1F95A20A8
:1046400005A902F04BFB0AA801F0BEFF03A801F088
:10465000BBFF21E0208AADF81400A08AADF8160057
:10466000208BADF81800A08BADF81A00A86803F0F5
:104670003DFB05A802F00EFE0EE0206801F05AFF97
:10468000039030F85A1F41F00C01018003A801F09B
:104690009BFF206810F0D6FE00206AE63004002060
:1046A00038B5002450B101F045FF009090F87C002F
:1046B000000700D50124684601F086FF204638BD7A
:1046C00030B504468BB0006801F034FF009090F8DC
:1046D0007C10246A006FC1F3C00508B101F02AFF05
:1046E0000690E068029020690390A088401EADF813
:1046F0001000E089ADF812002089401CADF81400CC
:10470000608AADF81600BDF80800401CADF808003E
:10471000BDF80A00401CADF80A00BDF80C00401EB0
:10472000ADF80C000098406B03F0EAFA009808AA74
:1047300002A9B0F95A30069803F0C4FD009800EBC6
:104740008500806B08F0B8FA009800EB8500006CDB
:1047500008F0EAFA08AB02AA04A906980FF054FE82
:10476000684601F031FF069810B106A801F02CFF51
:104770000BB0002030BD0000074A0649054B116010
:10478000064A083BD16958601B68C2E906300846F2
:104790007047000024040020580700205C07002018
:1047A00038B50D46040009D001F0C4FE009005663E
:1047B000684601F009FF204610F047FC38BD2DE99E
:1047C000F34F85B000270C46B846059801F0B2FEBD
:1047D0000090C06D0121856805982A68904782463F
:1047E0002A6803210598904704902A6802210598B9
:1047F000904703902A680021059890470646009844
:1048000010F0E2FF8346009810F0E5FF8146009823
:1048100090F83210890601D5B0F9588000F036F8CA
:1048200005460098C06E10B110F044FB0746258085
:104830006780A4F804A0049AABEB020006EB080220
:10484000401E2A4420813A44E280039BA9EB0302E4
:10485000521E6281A4F80CA020827019E681401ECD
:104860006082684601F0B0FEB4F90C000190B4F922
:104870001000029002AA01A9059800F039F80198E9
:10488000A0810298208207B0BDE8F08F10B50146E4
:10489000002091F83220920607D5B1F95400002883
:1048A00003D1486B02F074FD801C10BD70B58AB056
:1048B0000C46054601F03EFE0990C06D866809A8C9
:1048C00001F082FE009534B1012C06D0022C0BD0F1
:1048D000032C04D10AE0182000E016200190716832
:1048E000684688470AB070BD1520F7E71720F5E73E
:1048F0002DE9FC4790468946044601F01BFE0090D6
:10490000C16D056868468E6801F05EFE3268002160
:10491000204690470646204610F0B6F92F1404466C
:104920002DB227E001F006FE0190B0F90010B0F9B9
:104930000420B0F90230491B521BDB1BB34212D1D9
:1049400090F82800000607D5D8F8000088420ADB56
:10495000491EC8F8001006E0D9F80000904202DCB9
:10496000521CC9F8002001A801F02EFE204610F0CC
:104970001BFA0446002CD5D1BDE8FC874FF020423D
:1049800002EB800021B1016841F001010160704734
:104990000168024A1140016070470000FEFF0F00ED
:1049A00030B5D0E901121143D0E903231A43114372
:1049B00042690368114382691143C2691143026A63
:1049C0001143426A1143826A1143C26A1143026B66
:1049D00011434FF0204242F823108168082906D184
:1049E000016802EB81010B6843F040030B60416BEF
:1049F000D1E9003443EA04138C68CD68240244EA08
:104A0000054423430C6943EA04534C69896943EA2A
:104A100004630B430168491C42F82130C16AB1F5B7
:104A2000804F07D000686FF0704102EB8000C0F843
:104A3000041130BD816B0068D1E9003443EA0413EE
:104A40008C680D69240244EA055423434C69896942
:104A500043EA046302EB80000B43C0F8043130BD2D
:104A600070B5FE4C2068010E0120FFF733FC206872
:104A7000C0F307410220FFF72DFC2068C0F3072197
:104A80000320FFF727FC2068C1B20420FFF722FCB7
:104A9000F34D2868010E0520FFF71CFC2868C0F3C1
:104AA00007410620FFF716FC2868C0F307210720FE
:104AB000FFF710FC2868C1B20820FFF70BFC606804
:104AC000010E0920FFF706FC6068C0F307410A20C9
:104AD000FFF700FC6068C0F307210B20FFF7FAFB2B
:104AE0006068C1B20C20FFF7F5FB6868010E0D206D
:104AF000FFF7F0FB6868C0F307410E20FFF7EAFB01
:104B00006868C0F307210F20FFF7E4FB6868C1B2B3
:104B10001020FFF7DFFBA068010E1120FFF7DAFB82
:104B2000A068C0F307411220FFF7D4FBA068C0F3D0
:104B300007211320FFF7CEFBA068C1B21420FFF7B6
:104B4000C9FBA868010E1520FFF7C4FBA868C0F3D5
:104B500007411620FFF7BEFBA868C0F30721172006
:104B6000FFF7B8FBA868C1B21820FFF7B3FBE068F5
:104B7000010E1920FFF7AEFBE068C0F307411A20D1
:104B8000FFF7A8FBE068C0F307211B20FFF7A2FB9B
:104B9000E068C1B21C20FFF79DFBE868010E1D20F4
:104BA000FFF798FBE868C0F307411E20FFF792FB70
:104BB000E868C0F307211F20FFF78CFBE868C1B24B
:104BC0002020FFF787FB2069010E2120FFF782FBE1
:104BD0002069C0F307412220FFF77CFB2069C0F366
:104BE00007212320FFF776FB2069C1B22420FFF7BD
:104BF00071FB2869010E2520FFF76CFB2869C0F3C3
:104C000007412620FFF766FB2869C0F3072127200C
:104C1000FFF760FB2869C1B22820FFF75BFB6069E2
:104C2000010E2920FFF756FB6069C0F307412A20D7
:104C3000FFF750FB6069C0F307212B20FFF74AFB09
:104C40006069C1B22C20FFF745FB6869010E2D2079
:104C5000FFF740FB6869C0F307412E20FFF73AFBDE
:104C60006869C0F307212F20FFF734FB6869C1B2E0
:104C70003020FFF72FFBA069010E3120FFF72AFB40
:104C8000A069C0F307413220FFF724FBA069C0F3FD
:104C900007213320FFF71EFBA069C1B23420FFF7C4
:104CA00019FBA869010E3520FFF714FBA869C0F3B2
:104CB00007413620FFF70EFBA869C0F30721372014
:104CC000FFF708FBA869C1B23820FFF703FBE069D2
:104CD000010E3920FFF7FEFAE069C0F307413A20E0
:104CE000FFF7F8FAE069C0F307213B20FFF7F2FA7B
:104CF000E069C1B23C20FFF7EDFAE869010E3D2002
:104D0000FFF7E8FAE869C0F307413E20FFF7E2FA4F
:104D1000E869C0F307213F20FFF7DCFAE869C1B278
:104D20004020FFF7D7FA206A010E4120FFF7D2FAA0
:104D3000206AC0F307414220FFF7CCFA206AC0F393
:104D400007214320FFF7C6FA206AC1B24420FFF7CB
:104D5000C1FA286A010E4520FFF7BCFA286AC0F3A1
:104D600007414620FFF7B6FA286AC0F3072147201B
:104D7000FFF7B0FA286AC1B24820FFF7ABFA606AC1
:104D8000010E4920FFF7A6FA606AC0F307414A20E6
:104D9000FFF7A0FA606AC0F307214B20FFF79AFAE9
:104DA000606AC1B24C20FFF795FA686A010E4D2087
:104DB000FFF790FA686AC0F307414E20FFF78AFABE
:104DC000686AC0F307214F20FFF784FA686AC1B20E
:104DD0005020FFF77FFAA06A010E5120FFF77AFA00
:104DE000A06AC0F307415220FFF774FAA06AC0F32B
:104DF00007215320FFF76EFAA06AC1B25420FFF7D3
:104E000069FAA86A010E5520FFF764FAA86AC0F390
:104E100007415620FFF75EFAA86AC0F30721572022
:104E2000FFF758FAA86AC1B25820FFF753FA0D4CA1
:104E300021785920FFF74EFA61785A20FFF74AFA95
:104E4000A1785B20FFF746FAE1785C20FFF742FA91
:104E500021795D20FFF73EFA617905E05C0C0020C6
:104E6000880C0020C4000020BDE870405E20FFF7E1
:104E700031BA00002DE9F0430446C56887B090467A
:104E80008946002002F03AFF064625B1287910B184
:104E900046F0020001E026F0020002F02FFF206938
:104EA000012558B1D4E902128DE8260003956388E4
:104EB0002288046841464846A0471EE0124F134B23
:104EC000214638681B68427CE068984730B9E08822
:104ED000012801D0002001E03868806BA288E388B7
:104EE000A1680095CDE90410CDE9023201956388EF
:104EF00022884146484607F02FFB07B03046BDE800
:104F0000F04302F0FBBE0000E8010020E0010020B9
:104F10001CB50024019401AC009400F0E7F81CBD1E
:104F20002DE9FF4F83B0814606988A46A0EB0A0818
:104F3000109E00200090A2EB09043568934654EAC5
:104F4000080018D02046FCF704FF07464046FCF74F
:104F500000FF87420BDA2046444680464846D14649
:104F600082465846DDF818B0069001200090002CCB
:104F700007DD204606E007B04846BDE8F04F00F0E8
:104F80003BB96042A0420AD04846D9466442C8F1C3
:104F9000000883464FF0FF37DDF818A000E0012736
:104FA0005148B8F1000F11D004EBD4714FEA610BF6
:104FB00001DACBF1000B4C480068807E88B3002FEB
:104FC00002DA30682044306000257BE00099002937
:104FD000016821D0897E11B10027804615E007B015
:104FE0005A4649465046BDE8F04F07F019BC2846DE
:104FF0006D1C18F0BDF938B9D8F8000009EB0701AD
:10500000C06E4268504690477F1CA742EFDD6D1E80
:10501000356007B0BDE8F08F8A7E1AB10027804660
:1050200017E019E0C86E5A465146036807B0484673
:10503000BDE8F04F184728466D1C18F099F938B9AB
:10504000D8F8001009EB0700C96E4A68514690472E
:105050007F1CA742EFDDDAE700250FE008FB05B073
:1050600090FBF4F101EB0A00009951B11E4A09EBE3
:1050700005011268D26E526890476D1CA542EDDDA5
:10508000C7E7194909EB05030968C96E4A68014673
:105090001846F1E708FB05B090FBF4F101EB0A00BC
:1050A000019030683844306018F062F948B90098CF
:1050B00090B10D4809EB05010068C06E4268019887
:1050C00090476D1CA542E5DD3068002F01DA2044D1
:1050D0003060C01B30609CE7034909EB050009689C
:1050E000C96E4A680199EBE7E80100202DE9FF4706
:1050F0000F4640491646804609680C981D460A7EB0
:10510000012A1CD0A8EB0600791B50EA01031CD031
:10511000A2F1010919F008F900F58060824604F057
:105120006FF800FB09F4504604F06EF800FB09F13B
:10513000002C0CDAC4F50070801240420AE00090A6
:10514000324639464046FFF7EBFEBDE8FF8704F5DF
:105150000074A012002904DAC1F5007189124C42D2
:1051600002E001F500718C12002804DD411C01EB06
:10517000D171491003E000EBD0714910401E00EBE3
:10518000D0704210002C04DD601C00EBD070401089
:1051900003E004EBD4704010641E04EBD47308EBFE
:1051A0000104ADF800403C18ADF80240A8EB020441
:1051B0005B10B21AADF80440ADF808203144FC1A77
:1051C000EA1AADF80C102844ADF80A20ADF80E002C
:1051D0000023ADF806401A460421684600F07AF82C
:1051E0003946404613F09EFD2946304613F09AFD9D
:1051F000ABE70000E8010020064A13681A7E012A86
:1052000005D0521E02EBD272521000F005B8DA6ED1
:1052100052681047E80100202DE9F05F06468846F5
:1052200040F2C32050434FF47A7190FBF1F702FB38
:1052300002F002EBD27100EB610B254914467F1C92
:1052400009683244301BC96E0B68414698470125F6
:105250003AE000BF05FB05F004FB040159451CDDE5
:10526000BC4219DD1A4B06EB050AA6EB05091B68C3
:10527000AAF1010208EB0401DB6E09F101001B68D1
:105280009847134BAAF10102A8EB04011B6809F12E
:105290000100DB6E1B689847641E0D4806EB040A8C
:1052A000A6EB0409006808EB05015246C06E0368CE
:1052B000484698470648A8EB050152460068C06E6C
:1052C0000368484698476D1CBD42C3DDBDE8F09FAA
:1052D000E80100202DE9FF4F40F6FF740F466642BB
:1052E00083B09B46814600210BE000BF09EB8100A3
:1052F000B0F90200A04200DA0446B04200DD0646E2
:10530000491CB942F2DB68480068406900280DD0AA
:10531000B0F906101A46A1EB0B01B14200DA0E46B5
:10532000B0F90200801AA04200DD0446B5E0DFF8C3
:105330007CA100200546CAF8000089E0781E85425D
:1053400001DA6B1C00E0002309EB850C09EB8302FA
:10535000BCF90200B2F90210A04245D1A14215D118
:1053600039F92330059A39F9251003EB020C4E4A1E
:1053700005981268084404EB0B01D26E604513686F
:1053800001DA62462BE00246604628E02846A44641
:105390004FF000087A1E0BE008B1401E00E0781EB6
:1053A00009EB8003B3F90230634504D108F1010829
:1053B0009045F1DB2346A34249D0A3EB040239F91F
:1053C0002500A1EB040C059B92EA0C0209D4364A95
:1053D000184404EB0B011268D26E1368024698471A
:1053E00035E010F0FDFE32E0A14230D001DBA042FA
:1053F00003DDA0422BDBA14229DCE04688420ADC27
:105400000346A04223DC0846A14220DBB8F900C0D5
:10541000B2F9001008E00B46A14218DCA04216DBEE
:10542000B2F900C0B8F90010E21AA1EB0C01514327
:105430000029A0EB030202DD01EB620102E0A1EB17
:105440006201491CC01A91FBF0F06044C9E76D1C71
:10545000BD42FFF673AF0598009004EB0B0001907E
:1054600000208046054613E01149B8F1000F31F9DC
:1054700015A009D0009901EB0A0208440A490968FD
:10548000C96E0B680199984788F0010850466D1C59
:10549000064909688D42E7DB641CB4427FF747AFD9
:1054A00007B0BDE8F08F0000E80100206808002088
:1054B0007C87002010B5002002F014FC6FF07F40C4
:1054C00002F014FC012002F049FC002002F04EFC26
:1054D000002002F055FC002002F010FC0448006897
:1054E00002F00EFCBDE81040002002F013BC0000EA
:1054F000E40100202DE9FC4701211F200AF0FCF9FE
:1055000002268DF8056001248DF8044000258DF8F1
:105510000650E00300906946324800F06DF88DF8BF
:1055200005608DF804408DF806504FF4435000900C
:105530002D4F6946384600F05FF88DF805608DF80C
:1055400004408DF8065041F2C2300090DFF89C8094
:105550006946404600F050F88DF805608DF804402B
:105560008DF806504FF440500090DFF88490694663
:10557000484600F041F88DF805608DF804408DF83C
:1055800006504020009069461A4800F035F88DF822
:1055900005608DF804508DF80740200200906946A0
:1055A000384600F029F88DF805608DF804508DF824
:1055B0000740E00200906946404600F01DF8640391
:1055C0002146484600F06EF84021404600F068F859
:1055D0004021404600F066F82146384600F062F867
:1055E000BDE8FC87000002400004024000080240C1
:1055F000000C024000100240F0B5002201274FF0DD
:10560000030C07FA02F40B682340A3422DD104686F
:1056100053000CFA03F5AC4304600C7906689C4017
:10562000344304600E79012E01D0022E12D1846819
:10563000AC4384604C7985689C402C438460456809
:1056400007FA02F4A543456044688D799540ADB2F0
:105650002C434460C56856000CFA06F4A543C560A7
:10566000CC799C40C3681C43C460521C102AC8D328
:10567000F0BD10B54B07DB0E9A40C90800EB810066
:10568000016A0F249C40A1430162016A1143016237
:1056900010BD0246002012690A4200D00120704766
:1056A000418370470183704733B583B0040016D03F
:1056B00000F040FF0190456E01A800F085FF0498BE
:1056C00000F038FF00908460684600F07DFF0422FF
:1056D00004A9284600F09CFF20460FF0B6FC05B058
:1056E00030BD33B583B0040016D000F023FF009026
:1056F000856E684600F068FF049800F01BFF01907B
:10570000846001A800F060FF042204A9284600F08C
:105710007FFF20460FF099FC05B030BD2DE9F04128
:1057200004460025D4E90007B0F5407F00D10125EB
:10573000214638460EF01EFD064615B1384615F0D6
:105740002EFA002E2FD02068052806D00B280ED068
:105750000F2806D0262821D10EE0384615F01FFA72
:105760001CE03846E168BDE8F04115F0C1BB3846A1
:10577000BDE8F04115F0F1BAE06805280ED13846D1
:105780000FF04FFBA168884205D038460FF040FB70
:10579000A168884202D1606815F0EFFD2046BDE89F
:1057A000F0410FF05BB9BDE8F081F0B585B0B0F91C
:1057B0000850468A84690296CDE903540027CDE952
:1057C0000017B0F90C10B0F91050B0F90E40B0F954
:1057D0000A00194410442B46224600F003F805B095
:1057E000F0BD00002DE9F04186B00DF1300CDDE98F
:1057F0000F84BCE8E0006C34DFF850C003948DE8FF
:1058000060100FF07BF804001BD000F03EFF05464F
:1058100000F03BFF0646204600F08CFE0490C0E9F5
:105820001956002241460EF0C9FE0498302208495C
:105830003430FAF74AFF0498A0F8787004A800F012
:10584000C3FE06B02046BDE8F08100001D570008E9
:105850008804002003B583B000F06CFE009060B1B6
:10586000406A00F067FE01460190022304AA0098F6
:1058700000F0F7F801A800F0A7FE684600F0A4FECB
:1058800005B000BD2DE9F043814685B01D46904628
:105890000F462C2000F073FD060024D0780000F0A5
:1058A0006EFD04000ED0B8F1000F0BD055B12046AC
:1058B00000F040FE6A0041460090FAF77FFE68461D
:1058C00000F082FE304600F035FE0949029000F1FA
:1058D0000C024462A2E8A202064901600649416046
:1058E00002A800F071FE05B03046BDE8F08300006C
:1058F00051AA01089BB00108EBAD01082DE9F8435E
:105900000746984615460E46302000F038FD040044
:1059100015D000F00FFE0090C0E905768584094A95
:10592000B7EE000AC0F81C8080ED0A0AD2E9001226
:10593000C0E9031204490160684600F045FE2046B4
:10594000BDE8F883B804002073B1010800B52DED5F
:10595000028B81B09FED0E8AF0EE408A88B100F094
:10596000E9FD009090ED0A8AB4EE688AF1EE10FA33
:1059700004D0C0ED0A8A80680FF067FB684600F02B
:1059800023FE01B0B0EE480ABDEC028B00BD000062
:10599000000000002DE9F8431D46DDF82080164682
:1059A0000F46040010D000F0C5FD0090C0F86080E4
:1059B0004765C0E91665684600F006FE204615F00A
:1059C000EEF820460FF041FBBDE8F883F8B50D4630
:1059D00006004FF000040CD000F0ACFD0090846C89
:1059E000AC4203D0856430460FF02FFB684600F0D0
:1059F000EBFD2046F8BDF8B50D4606004FF000045B
:105A000016D000F097FD0090B0F8781011F0010466
:105A100003D055B921F0010102E035B141F0010197
:105A2000A0F8781030460FF010FB684600F0CCFD6F
:105A30002046F8BDF8B50D4606004FF000040ED024
:105A400000F078FD009090F86C40AC4204D080F8F3
:105A50006C5030460FF0F9FA684600F0B5FD20466C
:105A6000F8BD2DE9F041044680681D4617460E46F4
:105A7000002826D0D4E9040290420ED1521E6A4377
:105A800071193046FAF7DFFD20692A46401E05FBF2
:105A900000603946FAF7D7FD0EE005FB0013401C05
:105AA00020612A4639461846FAF7CDFDE16819B15A
:105AB0002046BDE8F0410847A068BDE8F04100F08D
:105AC00002B8BDE8F08110B58AB0044600F032FD9E
:105AD00009A904AACDE9002105AB089006AA07A9E7
